{
  "abi": [
    {
      "inputs": [
        {
          "internalType": "contract IJBDelegatesRegistry",
          "name": "_delegatesRegistry",
          "type": "address"
        }
      ],
      "stateMutability": "nonpayable",
      "type": "constructor"
    },
    {
      "anonymous": false,
      "inputs": [
        {
          "indexed": false,
          "internalType": "uint256",
          "name": "projectId",
          "type": "uint256"
        },
        {
          "indexed": false,
          "internalType": "contract DominantJuice",
          "name": "delegate",
          "type": "address"
        },
        {
          "indexed": false,
          "internalType": "contract IJBDirectory",
          "name": "directory",
          "type": "address"
        },
        {
          "indexed": false,
          "internalType": "address",
          "name": "caller",
          "type": "address"
        }
      ],
      "name": "DelegateDeployed",
      "type": "event"
    },
    {
      "inputs": [],
      "name": "delegate",
      "outputs": [
        {
          "internalType": "contract DominantJuice",
          "name": "",
          "type": "address"
        }
      ],
      "stateMutability": "view",
      "type": "function"
    },
    {
      "inputs": [
        {
          "internalType": "uint256",
          "name": "",
          "type": "uint256"
        }
      ],
      "name": "delegateOfProject",
      "outputs": [
        {
          "internalType": "address",
          "name": "",
          "type": "address"
        }
      ],
      "stateMutability": "view",
      "type": "function"
    },
    {
      "inputs": [],
      "name": "delegatesRegistry",
      "outputs": [
        {
          "internalType": "contract IJBDelegatesRegistry",
          "name": "",
          "type": "address"
        }
      ],
      "stateMutability": "view",
      "type": "function"
    },
    {
      "inputs": [
        {
          "internalType": "address",
          "name": "_owner",
          "type": "address"
        },
        {
          "internalType": "uint256",
          "name": "_projectID",
          "type": "uint256"
        },
        {
          "internalType": "uint256",
          "name": "_cycleTarget",
          "type": "uint256"
        },
        {
          "internalType": "uint256",
          "name": "_minimumPledgeAmount",
          "type": "uint256"
        },
        {
          "internalType": "uint32",
          "name": "_maxEarlyPledgers",
          "type": "uint32"
        },
        {
          "internalType": "contract IJBController3_1",
          "name": "_controller",
          "type": "address"
        },
        {
          "internalType": "contract IJBDirectory",
          "name": "_directory",
          "type": "address"
        },
        {
          "internalType": "contract IJBSingleTokenPaymentTerminalStore3_1_1",
          "name": "_paymentTerminalStore",
          "type": "address"
        }
      ],
      "name": "deployDelegateFor",
      "outputs": [
        {
          "internalType": "contract DominantJuice",
          "name": "",
          "type": "address"
        }
      ],
      "stateMutability": "nonpayable",
      "type": "function"
    },
    {
      "inputs": [
        {
          "internalType": "uint256",
          "name": "_projectID",
          "type": "uint256"
        }
      ],
      "name": "getDelegateOfProject",
      "outputs": [
        {
          "internalType": "address",
          "name": "",
          "type": "address"
        }
      ],
      "stateMutability": "view",
      "type": "function"
    }
  ],
  "bytecode": {
    "object": "0x60a060405234801561001057600080fd5b5060405161246438038061246483398101604081905261002f91610040565b6001600160a01b0316608052610070565b60006020828403121561005257600080fd5b81516001600160a01b038116811461006957600080fd5b9392505050565b6080516123da61008a600039600060f501526123da6000f3fe608060405234801561001057600080fd5b50600436106100575760003560e01c80634e5ab7ad1461005c5780635964be5b1461008b5780637ca34833146100b4578063c89e4361146100dd578063d574ff04146100f0575b600080fd5b61006f61006a3660046102e9565b610117565b6040516001600160a01b03909116815260200160405180910390f35b61006f610099366004610380565b6000908152600260205260409020546001600160a01b031690565b61006f6100c2366004610380565b6002602052600090815260409020546001600160a01b031681565b60015461006f906001600160a01b031681565b61006f7f000000000000000000000000000000000000000000000000000000000000000081565b6000604051610125906102c4565b604051809103906000f080158015610141573d6000803e3d6000fd5b50600180546001600160a01b039283166001600160a01b03199182168117835560008c8152600260205260409081902080549093169091179091559054905163570e12d160e11b8152600481018b9052602481018a90526044810189905263ffffffff88166064820152868316608482015284831660a482015291169063ae1c25a29060c401600060405180830381600087803b1580156101e157600080fd5b505af11580156101f5573d6000803e3d6000fd5b505060015460405163f2fde38b60e01b81526001600160a01b038d81166004830152909116925063f2fde38b9150602401600060405180830381600087803b15801561024057600080fd5b505af1158015610254573d6000803e3d6000fd5b5050600154604080518c81526001600160a01b03928316602082015291871682820152336060830152517fbd318535ef41d837ffbebcb4725bbc083c0b01b23e236f2e4c3bcd8db2644a729350908190036080019150a1506001546001600160a01b031698975050505050505050565b61200b8061039a83390190565b6001600160a01b03811681146102e657600080fd5b50565b600080600080600080600080610100898b03121561030657600080fd5b8835610311816102d1565b9750602089013596506040890135955060608901359450608089013563ffffffff8116811461033f57600080fd5b935060a089013561034f816102d1565b925060c089013561035f816102d1565b915060e089013561036f816102d1565b809150509295985092959890939650565b60006020828403121561039257600080fd5b503591905056fe6080604052600f805466ffffffffffffff60201b1916905534801561002357600080fd5b5061002d33610032565b610082565b600080546001600160a01b038381166001600160a01b0319831681178455604051919092169283917f8be0079c531659141344cd1fd0a4f28419497f9722a3daafe3b4186f6b6457e09190a35050565b611f7a806100916000396000f3fe60806040526004361061020f5760003560e01c80638da5cb5b11610118578063d06bfb9d116100a0578063ddceec401161006f578063ddceec40146105f0578063decf1e6414610615578063f2fde38b1461062b578063f77c47911461064b578063f93148491461066b57600080fd5b8063d06bfb9d14610558578063d46cf1711461056e578063dacfd7161461059d578063dd63a549146105b357600080fd5b8063a51cfd18116100e7578063a51cfd18146104be578063acda2a06146104ed578063ae1c25a214610502578063b12d0e7a14610522578063c41c2f241461053857600080fd5b80638da5cb5b14610415578063959328ba14610433578063959d1cab14610465578063a29a68141461049e57600080fd5b80635665c7231161019b5780636f10492f1161016a5780636f10492f14610396578063715018a6146103b657806372dcc67d146103cb57806373d91df8146103e157806378352ac5146103f457600080fd5b80635665c723146103395780636b2049431461035a5780636b53f8ab1461036d5780636ee4c5e81461038057600080fd5b80631452438e116101e25780631452438e146102955780633013ce29146102cd57806332b235d0146102ed5780633fafa1271461030257806352e44fa01461031857600080fd5b806301ffc9a71461021457806306c3f8ab146102495780630bf46e591461026d57806312065fe014610282575b600080fd5b34801561022057600080fd5b5061023461022f366004611673565b6106a1565b60405190151581526020015b60405180910390f35b34801561025557600080fd5b5061025f600b5481565b604051908152602001610240565b61028061027b3660046116a4565b6106f3565b005b34801561028e57600080fd5b504761025f565b3480156102a157600080fd5b506004546102b5906001600160a01b031681565b6040516001600160a01b039091168152602001610240565b3480156102d957600080fd5b506008546102b5906001600160a01b031681565b3480156102f957600080fd5b506102806108f9565b34801561030e57600080fd5b5061025f60065481565b34801561032457600080fd5b50600f5461023490600160481b900460ff1681565b34801561034557600080fd5b50600f5461023490600160501b900460ff1681565b6102806103683660046116e0565b6109d5565b61028061037b366004611731565b610c02565b34801561038c57600080fd5b5061025f600d5481565b3480156103a257600080fd5b506005546102b5906001600160a01b031681565b3480156103c257600080fd5b50610280610dcf565b3480156103d757600080fd5b5061025f60095481565b6102806103ef36600461175d565b610de3565b34801561040057600080fd5b50600f5461023490600160401b900460ff1681565b34801561042157600080fd5b506000546001600160a01b03166102b5565b34801561043f57600080fd5b50600f546104509063ffffffff1681565b60405163ffffffff9091168152602001610240565b34801561047157600080fd5b50610234610480366004611776565b6001600160a01b031660009081526010602052604090205460ff1690565b3480156104aa57600080fd5b506003546102b5906001600160a01b031681565b3480156104ca57600080fd5b506104de6104d9366004611793565b611026565b60405161024093929190611815565b3480156104f957600080fd5b5061025f6111e1565b34801561050e57600080fd5b5061028061051d3660046118b3565b611234565b34801561052e57600080fd5b5061025f600a5481565b34801561054457600080fd5b506002546102b5906001600160a01b031681565b34801561056457600080fd5b5061025f60075481565b34801561057a57600080fd5b5061058e610589366004611923565b6113b2565b6040516102409392919061195f565b3480156105a957600080fd5b5061025f600e5481565b3480156105bf57600080fd5b506105c8611504565b6040805194855260208501939093529015159183019190915215156060820152608001610240565b3480156105fc57600080fd5b50600f5461045090640100000000900463ffffffff1681565b34801561062157600080fd5b5061025f600c5481565b34801561063757600080fd5b50610280610646366004611776565b611550565b34801561065757600080fd5b506001546102b5906001600160a01b031681565b34801561067757600080fd5b5061025f610686366004611776565b6001600160a01b031660009081526011602052604090205490565b60006001600160e01b031982166371700c6960e01b14806106d257506001600160e01b03198216636b20494360e01b145b806106ed57506001600160e01b03198216630bf46e5960e01b145b92915050565b60006107026020830183611776565b600f54909150600160401b900460ff1615156001146107435760095460405163191bf19b60e31b815260040161073a91815260200190565b60405180910390fd5b600f54600160481b900460ff16151560010361077257604051637be055d560e11b815260040160405180910390fd5b6001600160a01b03811660009081526012602052604090205460ff1615156001036107b057604051631a387d0f60e11b815260040160405180910390fd5b6001600160a01b03811660009081526010602052604090205460ff1615156001036108f5576107dd6111e1565b600b8190554710156108025760405163356680b760e01b815260040160405180910390fd5b6001600160a01b038116600081815260126020526040808220805460ff19166001179055600b5490519192918381818185875af1925050503d8060008114610866576040519150601f19603f3d011682016040523d82523d6000602084013e61086b565b606091505b50509050806108bc5760405162461bcd60e51b815260206004820152601c60248201527f4661696c656420746f2073656e6420726566756e6420626f6e75732e00000000604482015260640161073a565b600b546040516001600160a01b038416907f14397048c67a716290cdab60d1e0da191355e7efd4cfde59953d466d6214682290600090a3505b5050565b600f54600160401b900460ff16151560010361092857604051637c3555fb60e01b815260040160405180910390fd5b6009544210156109515760095460405163191bf19b60e31b815260040161073a91815260200190565b600f805468ff00000000000000001916600160401b179055600a54600e541061098e57600f805469ff0000000000000000001916600160481b1790555b600f5460405160ff600160481b83048116151592600160401b9004161515907f851b4e23988109dccdf7cdcc642bbbaf41b8191fa20f5bc0c0a641052f1bd65a90600090a3565b34151580610a575750600254600654604051636e49181f60e01b815260048101919091523360248201526001600160a01b0390911690636e49181f90604401602060405180830381865afa158015610a31573d6000803e3d6000fd5b505050506040513d601f19601f82011682018060405250810190610a559190611a00565b155b80610a685750600654816020013514155b15610a9857604051631705154f60e31b81523360048201526020820135602482015234604482015260640161073a565b6009544210610aba57604051631436910f60e31b815260040160405180910390fd5b6000610ac96020830183611776565b90506000610adf36849003840160608501611ab0565b6020808201516001600160a01b038516600090815260109092526040909120549192509060ff16158015610b255750600f5463ffffffff80821664010000000090920416105b15610be4576001600160a01b0383166000908152601060205260409020805460ff19166001179055600f805463ffffffff64010000000090910416906004610b6c83611b35565b91906101000a81548163ffffffff021916908363ffffffff160217905550508060116000856001600160a01b03166001600160a01b031681526020019081526020016000206000828254610bc09190611b58565b9250508190555080600e6000828254610bd99190611b58565b90915550610bfc9050565b80600e6000828254610bf69190611b58565b90915550505b50505050565b610c0a6115c9565b600f54600160401b900460ff1615156001148015610c365750600f54600160481b900460ff1615156001145b610ca85760405162461bcd60e51b815260206004820152603b60248201527f4379636c65206d757374206265206578706972656420616e642073756363657360448201527f7366756c20746f2063616c6c20746869732066756e6374696f6e2e0000000000606482015260840161073a565b47811115610cc95760405163356680b760e01b815260040160405180910390fd5b6000826001600160a01b03168260405160006040518083038185875af1925050503d8060008114610d16576040519150601f19603f3d011682016040523d82523d6000602084013e610d1b565b606091505b5050905080610d6c5760405162461bcd60e51b815260206004820152601f60248201527f4661696c656420746f207769746864726177206379636c652066756e64732e00604482015260640161073a565b604080516001600160a01b0385168152602081018490527fa919fadcfa556a012bab31b15f596ea7ccd397adbf10e15f176db9055ab361c4910160405180910390a147600003610dca57600f805460ff60501b1916600160501b1790555b505050565b610dd76115c9565b610de16000611623565b565b610deb6115c9565b600654600003610e0e57604051630d6ad97f60e41b815260040160405180910390fd5b803414610e31576040516336d921ad60e21b81526004810182905260240161073a565b60025460065460405163d175415360e01b815260048101919091526000916001600160a01b03169063d175415390602401600060405180830381865afa158015610e7f573d6000803e3d6000fd5b505050506040513d6000823e601f3d908101601f19168201604052610ea79190810190611b6b565b600081518110610eb957610eb9611c1d565b602090810291909101810151600480546001600160a01b0319166001600160a01b038316908117825560408051637e062a3560e11b81529051939550909363fc0c546a938284019391929091908290030181865afa158015610f1f573d6000803e3d6000fd5b505050506040513d601f19601f82011682018060405250810190610f439190611c3e565b600880546001600160a01b0319166001600160a01b03928316179055600154600654604051638776c49960e01b815260048101919091526000929190911690638776c499906024016103a060405180830381865afa158015610fa9573d6000803e3d6000fd5b505050506040513d601f19601f82011682018060405250810190610fcd9190611e17565b50905080608001518160600151610fe49190611b58565b600955600d83905560405133815283907f2a160df64fcb5d6c3f8843bb5c61c9ec3d5784979466a25cdc2d38a009a0fc399060200160405180910390a2505050565b60006060808261103c6040860160208701611776565b600f54909150600160401b900460ff1615156001146110745760095460405163191bf19b60e31b815260040161073a91815260200190565b600f54600160481b900460ff1615156001036110a357604051637be055d560e11b815260040160405180910390fd5b6001600160a01b03811660009081526012602052604090205460ff1615156001036110e157604051631a387d0f60e11b815260040160405180910390fd5b61010085013593506110f76101a0860186611ebd565b8080601f01602080910402602001604051908101604052809392919081815260200183838082843760009201919091525092955060019250611137915050565b60405190808252806020026020018201604052801561118457816020015b604080516060808201835260008083526020830152918101919091528152602001906001900390816111555790505b5091506040518060600160405280306001600160a01b031681526020016000815260200160405180602001604052806000815250815250826000815181106111ce576111ce611c1d565b6020026020010181905250509193909250565b600f54600090819063ffffffff80821664010000000090920416101561121757600f54640100000000900463ffffffff16611221565b600f5463ffffffff165b63ffffffff16600d546106ed9190611f0b565b6006541561125557604051631ee1e30360e21b815260040160405180910390fd5b600a859055600c849055600f805463ffffffff851663ffffffff199091161790556006869055600180546001600160a01b038085166001600160a01b031992831681179093556005805491851691909216179055604080516331070bc960e21b8152905163c41c2f24916004818101926020929091908290030181865afa1580156112e4573d6000803e3d6000fd5b505050506040513d601f19601f820116820180604052508101906113089190611c3e565b600280546001600160a01b0319166001600160a01b03928316179055600154604080516328a69a0560e21b81529051919092169163a29a68149160048083019260209291908290030181865afa158015611366573d6000803e3d6000fd5b505050506040513d601f19601f8201168201806040525081019061138a9190611c3e565b600380546001600160a01b0319166001600160a01b0392909216919091179055505050505050565b6000606080476000036113d857604051630d6ad97f60e41b815260040160405180910390fd5b600c546060850135101561140557600c546040516337e6f47560e01b815260040161073a91815260200190565b610120840135925061141b610160850185611ebd565b8080601f0160208091040260200160405190810160405280939291908181526020018383808284376000920191909152509294506001925061145b915050565b6040519080825280602002602001820160405280156114a857816020015b604080516060808201835260008083526020830152918101919091528152602001906001900390816114795790505b5090506040518060600160405280306001600160a01b031681526020016000815260200160405180602001604052806000815250815250816000815181106114f2576114f2611c1d565b60200260200101819052509193909250565b6000806000806000600a54600e54606461151e9190611f2d565b6115289190611f0b565b600e54600f54909791965060ff600160481b820481169650600160501b909104169350915050565b6115586115c9565b6001600160a01b0381166115bd5760405162461bcd60e51b815260206004820152602660248201527f4f776e61626c653a206e6577206f776e657220697320746865207a65726f206160448201526564647265737360d01b606482015260840161073a565b6115c681611623565b50565b6000546001600160a01b03163314610de15760405162461bcd60e51b815260206004820181905260248201527f4f776e61626c653a2063616c6c6572206973206e6f7420746865206f776e6572604482015260640161073a565b600080546001600160a01b038381166001600160a01b0319831681178455604051919092169283917f8be0079c531659141344cd1fd0a4f28419497f9722a3daafe3b4186f6b6457e09190a35050565b60006020828403121561168557600080fd5b81356001600160e01b03198116811461169d57600080fd5b9392505050565b6000602082840312156116b657600080fd5b813567ffffffffffffffff8111156116cd57600080fd5b8201610200818503121561169d57600080fd5b6000602082840312156116f257600080fd5b813567ffffffffffffffff81111561170957600080fd5b8201610220818503121561169d57600080fd5b6001600160a01b03811681146115c657600080fd5b6000806040838503121561174457600080fd5b823561174f8161171c565b946020939093013593505050565b60006020828403121561176f57600080fd5b5035919050565b60006020828403121561178857600080fd5b813561169d8161171c565b6000602082840312156117a557600080fd5b813567ffffffffffffffff8111156117bc57600080fd5b82016101e0818503121561169d57600080fd5b6000815180845260005b818110156117f5576020818501810151868301820152016117d9565b506000602082860101526020601f19601f83011685010191505092915050565b600060608583526020818185015261182f828501876117cf565b6040858203818701528187518084528484019150848160051b850101858a0160005b838110156118a157868303601f19018552815180516001600160a01b0316845288810151898501528601518684018a905261188e8a8501826117cf565b9589019593505090870190600101611851565b50909c9b505050505050505050505050565b60008060008060008060c087890312156118cc57600080fd5b863595506020870135945060408701359350606087013563ffffffff811681146118f557600080fd5b925060808701356119058161171c565b915060a08701356119158161171c565b809150509295509295509295565b60006020828403121561193557600080fd5b813567ffffffffffffffff81111561194c57600080fd5b82016101a0818503121561169d57600080fd5b6000606085835260208181850152611979828501876117cf565b6040858203818701528187518084528484019150848160051b850101858a0160005b838110156118a157868303601f19018552815180516001600160a01b0316845288810151898501528601518684018a90526119d88a8501826117cf565b958901959350509087019060010161199b565b805180151581146119fb57600080fd5b919050565b600060208284031215611a1257600080fd5b61169d826119eb565b634e487b7160e01b600052604160045260246000fd5b604051610240810167ffffffffffffffff81118282101715611a5557611a55611a1b565b60405290565b604051610120810167ffffffffffffffff81118282101715611a5557611a55611a1b565b604051601f8201601f1916810167ffffffffffffffff81118282101715611aa857611aa8611a1b565b604052919050565b600060808284031215611ac257600080fd5b6040516080810181811067ffffffffffffffff82111715611ae557611ae5611a1b565b6040528235611af38161171c565b808252506020830135602082015260408301356040820152606083013560608201528091505092915050565b634e487b7160e01b600052601160045260246000fd5b600063ffffffff808316818103611b4e57611b4e611b1f565b6001019392505050565b808201808211156106ed576106ed611b1f565b60006020808385031215611b7e57600080fd5b825167ffffffffffffffff80821115611b9657600080fd5b818501915085601f830112611baa57600080fd5b815181811115611bbc57611bbc611a1b565b8060051b9150611bcd848301611a7f565b8181529183018401918481019088841115611be757600080fd5b938501935b83851015611c115784519250611c018361171c565b8282529385019390850190611bec565b98975050505050505050565b634e487b7160e01b600052603260045260246000fd5b80516119fb8161171c565b600060208284031215611c5057600080fd5b815161169d8161171c565b600060608284031215611c6d57600080fd5b6040516060810181811067ffffffffffffffff82111715611c9057611c90611a1b565b604052905080611c9f836119eb565b8152611cad602084016119eb565b6020820152611cbe604084016119eb565b60408201525092915050565b60006102808284031215611cdd57600080fd5b611ce5611a31565b9050611cf18383611c5b565b8152606082015160208201526080820151604082015260a08201516060820152611d1d60c083016119eb565b6080820152611d2e60e083016119eb565b60a0820152610100611d418184016119eb565b60c0830152610120611d548185016119eb565b60e0840152610140611d678186016119eb565b838501526101609250611d7b8386016119eb565b828501526101809150611d8f8286016119eb565b908401526101a0611da18582016119eb565b838501526101c09250611db58386016119eb565b828501526101e09150611dc98286016119eb565b90840152610200611ddb8582016119eb565b838501526102209250611def8386016119eb565b82850152611e006102408601611c33565b818501525050610260830151818301525092915050565b6000808284036103a0811215611e2c57600080fd5b61012080821215611e3c57600080fd5b611e44611a5b565b9150845182526020850151602083015260408501516040830152606085015160608301526080850151608083015260a085015160a083015260c085015160c0830152611e9260e08601611c33565b60e0830152610100808601518184015250819350611eb286828701611cca565b925050509250929050565b6000808335601e19843603018112611ed457600080fd5b83018035915067ffffffffffffffff821115611eef57600080fd5b602001915036819003821315611f0457600080fd5b9250929050565b600082611f2857634e487b7160e01b600052601260045260246000fd5b500490565b80820281158282048414176106ed576106ed611b1f56fea2646970667358221220e81177a44d8055d60b503dc8c6c97561965afde0e5f326eda402192800a0b5c864736f6c63430008140033a264697066735822122006f4eba6714e97c4001231096f08908bd7a81088afe8faa72000c2aa5359ee5b64736f6c63430008140033",
    "linkReferences": {}
  },
  "methodIdentifiers": {
    "delegate()": "c89e4361",
    "delegateOfProject(uint256)": "7ca34833",
    "delegatesRegistry()": "d574ff04",
    "deployDelegateFor(address,uint256,uint256,uint256,uint32,address,address,address)": "4e5ab7ad",
    "getDelegateOfProject(uint256)": "5964be5b"
  },
  "id": 107
}