{
  "abi": [
    {
      "inputs": [
        {
          "internalType": "contract IJBDelegatesRegistry",
          "name": "_delegatesRegistry",
          "type": "address"
        }
      ],
      "stateMutability": "nonpayable",
      "type": "constructor"
    },
    {
      "anonymous": false,
      "inputs": [
        {
          "indexed": false,
          "internalType": "uint256",
          "name": "projectId",
          "type": "uint256"
        },
        {
          "indexed": false,
          "internalType": "contract DominantJuice",
          "name": "delegate",
          "type": "address"
        },
        {
          "indexed": false,
          "internalType": "contract IJBDirectory",
          "name": "directory",
          "type": "address"
        },
        {
          "indexed": false,
          "internalType": "address",
          "name": "caller",
          "type": "address"
        }
      ],
      "name": "DelegateDeployed",
      "type": "event"
    },
    {
      "inputs": [],
      "name": "delegate",
      "outputs": [
        {
          "internalType": "contract DominantJuice",
          "name": "",
          "type": "address"
        }
      ],
      "stateMutability": "view",
      "type": "function"
    },
    {
      "inputs": [
        {
          "internalType": "uint256",
          "name": "",
          "type": "uint256"
        }
      ],
      "name": "delegateOfProject",
      "outputs": [
        {
          "internalType": "address",
          "name": "",
          "type": "address"
        }
      ],
      "stateMutability": "view",
      "type": "function"
    },
    {
      "inputs": [],
      "name": "delegatesRegistry",
      "outputs": [
        {
          "internalType": "contract IJBDelegatesRegistry",
          "name": "",
          "type": "address"
        }
      ],
      "stateMutability": "view",
      "type": "function"
    },
    {
      "inputs": [
        {
          "internalType": "address",
          "name": "_owner",
          "type": "address"
        },
        {
          "internalType": "uint256",
          "name": "_projectID",
          "type": "uint256"
        },
        {
          "internalType": "contract IJBDirectory",
          "name": "_directory",
          "type": "address"
        }
      ],
      "name": "deployDelegateFor",
      "outputs": [
        {
          "internalType": "contract DominantJuice",
          "name": "",
          "type": "address"
        }
      ],
      "stateMutability": "nonpayable",
      "type": "function"
    },
    {
      "inputs": [
        {
          "internalType": "uint256",
          "name": "_projectID",
          "type": "uint256"
        }
      ],
      "name": "getDelegateOfProject",
      "outputs": [
        {
          "internalType": "address",
          "name": "",
          "type": "address"
        }
      ],
      "stateMutability": "view",
      "type": "function"
    }
  ],
  "bytecode": {
    "object": "0x60a060405234801561001057600080fd5b5060405161237938038061237983398101604081905261002f91610040565b6001600160a01b0316608052610070565b60006020828403121561005257600080fd5b81516001600160a01b038116811461006957600080fd5b9392505050565b6080516122ef61008a600039600060f501526122ef6000f3fe608060405234801561001057600080fd5b50600436106100575760003560e01c80634532cd511461005c5780635964be5b1461008b5780637ca34833146100b4578063c89e4361146100dd578063d574ff04146100f0575b600080fd5b61006f61006a36600461025c565b610117565b6040516001600160a01b03909116815260200160405180910390f35b61006f61009936600461029e565b6000908152600260205260409020546001600160a01b031690565b61006f6100c236600461029e565b6002602052600090815260409020546001600160a01b031681565b60015461006f906001600160a01b031681565b61006f7f000000000000000000000000000000000000000000000000000000000000000081565b600060405161012590610237565b604051809103906000f080158015610141573d6000803e3d6000fd5b50600180546001600160a01b039283166001600160a01b0319918216811783556000878152600260205260409081902080549093169091179091559054905163f2fde38b60e01b8152868316600482015291169063f2fde38b90602401600060405180830381600087803b1580156101b857600080fd5b505af11580156101cc573d6000803e3d6000fd5b5050600154604080518781526001600160a01b03928316602082015291861682820152336060830152517fbd318535ef41d837ffbebcb4725bbc083c0b01b23e236f2e4c3bcd8db2644a729350908190036080019150a1506001546001600160a01b03169392505050565b612002806102b883390190565b6001600160a01b038116811461025957600080fd5b50565b60008060006060848603121561027157600080fd5b833561027c81610244565b925060208401359150604084013561029381610244565b809150509250925092565b6000602082840312156102b057600080fd5b503591905056fe6080604052600f805466ffffffffffffff60201b1916905534801561002357600080fd5b5061002d33610032565b610082565b600080546001600160a01b038381166001600160a01b0319831681178455604051919092169283917f8be0079c531659141344cd1fd0a4f28419497f9722a3daafe3b4186f6b6457e09190a35050565b611f71806100916000396000f3fe60806040526004361061020f5760003560e01c80638da5cb5b11610118578063d06bfb9d116100a0578063ddceec401161006f578063ddceec40146105f0578063decf1e6414610615578063f2fde38b1461062b578063f77c47911461064b578063f93148491461066b57600080fd5b8063d06bfb9d14610558578063d46cf1711461056e578063dacfd7161461059d578063dd63a549146105b357600080fd5b8063a51cfd18116100e7578063a51cfd18146104be578063acda2a06146104ed578063ae1c25a214610502578063b12d0e7a14610522578063c41c2f241461053857600080fd5b80638da5cb5b14610415578063959328ba14610433578063959d1cab14610465578063a29a68141461049e57600080fd5b80635665c7231161019b5780636f10492f1161016a5780636f10492f14610396578063715018a6146103b657806372dcc67d146103cb57806373d91df8146103e157806378352ac5146103f457600080fd5b80635665c723146103395780636b2049431461035a5780636b53f8ab1461036d5780636ee4c5e81461038057600080fd5b80631452438e116101e25780631452438e146102955780633013ce29146102cd57806332b235d0146102ed5780633fafa1271461030257806352e44fa01461031857600080fd5b806301ffc9a71461021457806306c3f8ab146102495780630bf46e591461026d57806312065fe014610282575b600080fd5b34801561022057600080fd5b5061023461022f36600461166a565b6106a1565b60405190151581526020015b60405180910390f35b34801561025557600080fd5b5061025f600b5481565b604051908152602001610240565b61028061027b36600461169b565b6106f3565b005b34801561028e57600080fd5b504761025f565b3480156102a157600080fd5b506004546102b5906001600160a01b031681565b6040516001600160a01b039091168152602001610240565b3480156102d957600080fd5b506008546102b5906001600160a01b031681565b3480156102f957600080fd5b506102806108f9565b34801561030e57600080fd5b5061025f60065481565b34801561032457600080fd5b50600f5461023490600160481b900460ff1681565b34801561034557600080fd5b50600f5461023490600160501b900460ff1681565b6102806103683660046116d7565b6109d5565b61028061037b366004611728565b610c02565b34801561038c57600080fd5b5061025f600d5481565b3480156103a257600080fd5b506005546102b5906001600160a01b031681565b3480156103c257600080fd5b50610280610dcf565b3480156103d757600080fd5b5061025f60095481565b6102806103ef366004611754565b610de3565b34801561040057600080fd5b50600f5461023490600160401b900460ff1681565b34801561042157600080fd5b506000546001600160a01b03166102b5565b34801561043f57600080fd5b50600f546104509063ffffffff1681565b60405163ffffffff9091168152602001610240565b34801561047157600080fd5b5061023461048036600461176d565b6001600160a01b031660009081526010602052604090205460ff1690565b3480156104aa57600080fd5b506003546102b5906001600160a01b031681565b3480156104ca57600080fd5b506104de6104d936600461178a565b610e6e565b6040516102409392919061180c565b3480156104f957600080fd5b5061025f611029565b34801561050e57600080fd5b5061028061051d3660046118aa565b61107c565b34801561052e57600080fd5b5061025f600a5481565b34801561054457600080fd5b506002546102b5906001600160a01b031681565b34801561056457600080fd5b5061025f60075481565b34801561057a57600080fd5b5061058e61058936600461191a565b6113a9565b60405161024093929190611956565b3480156105a957600080fd5b5061025f600e5481565b3480156105bf57600080fd5b506105c86114fb565b6040805194855260208501939093529015159183019190915215156060820152608001610240565b3480156105fc57600080fd5b50600f5461045090640100000000900463ffffffff1681565b34801561062157600080fd5b5061025f600c5481565b34801561063757600080fd5b5061028061064636600461176d565b611547565b34801561065757600080fd5b506001546102b5906001600160a01b031681565b34801561067757600080fd5b5061025f61068636600461176d565b6001600160a01b031660009081526011602052604090205490565b60006001600160e01b031982166371700c6960e01b14806106d257506001600160e01b03198216636b20494360e01b145b806106ed57506001600160e01b03198216630bf46e5960e01b145b92915050565b6000610702602083018361176d565b600f54909150600160401b900460ff1615156001146107435760095460405163191bf19b60e31b815260040161073a91815260200190565b60405180910390fd5b600f54600160481b900460ff16151560010361077257604051637be055d560e11b815260040160405180910390fd5b6001600160a01b03811660009081526012602052604090205460ff1615156001036107b057604051631a387d0f60e11b815260040160405180910390fd5b6001600160a01b03811660009081526010602052604090205460ff1615156001036108f5576107dd611029565b600b8190554710156108025760405163356680b760e01b815260040160405180910390fd5b6001600160a01b038116600081815260126020526040808220805460ff19166001179055600b5490519192918381818185875af1925050503d8060008114610866576040519150601f19603f3d011682016040523d82523d6000602084013e61086b565b606091505b50509050806108bc5760405162461bcd60e51b815260206004820152601c60248201527f4661696c656420746f2073656e6420726566756e6420626f6e75732e00000000604482015260640161073a565b600b546040516001600160a01b038416907f14397048c67a716290cdab60d1e0da191355e7efd4cfde59953d466d6214682290600090a3505b5050565b600f54600160401b900460ff16151560010361092857604051637c3555fb60e01b815260040160405180910390fd5b6009544210156109515760095460405163191bf19b60e31b815260040161073a91815260200190565b600f805468ff00000000000000001916600160401b179055600a54600e541061098e57600f805469ff0000000000000000001916600160481b1790555b600f5460405160ff600160481b83048116151592600160401b9004161515907f851b4e23988109dccdf7cdcc642bbbaf41b8191fa20f5bc0c0a641052f1bd65a90600090a3565b34151580610a575750600254600654604051636e49181f60e01b815260048101919091523360248201526001600160a01b0390911690636e49181f90604401602060405180830381865afa158015610a31573d6000803e3d6000fd5b505050506040513d601f19601f82011682018060405250810190610a5591906119f7565b155b80610a685750600654816020013514155b15610a9857604051631705154f60e31b81523360048201526020820135602482015234604482015260640161073a565b6009544210610aba57604051631436910f60e31b815260040160405180910390fd5b6000610ac9602083018361176d565b90506000610adf36849003840160608501611aa7565b6020808201516001600160a01b038516600090815260109092526040909120549192509060ff16158015610b255750600f5463ffffffff80821664010000000090920416105b15610be4576001600160a01b0383166000908152601060205260409020805460ff19166001179055600f805463ffffffff64010000000090910416906004610b6c83611b2c565b91906101000a81548163ffffffff021916908363ffffffff160217905550508060116000856001600160a01b03166001600160a01b031681526020019081526020016000206000828254610bc09190611b4f565b9250508190555080600e6000828254610bd99190611b4f565b90915550610bfc9050565b80600e6000828254610bf69190611b4f565b90915550505b50505050565b610c0a6115c0565b600f54600160401b900460ff1615156001148015610c365750600f54600160481b900460ff1615156001145b610ca85760405162461bcd60e51b815260206004820152603b60248201527f4379636c65206d757374206265206578706972656420616e642073756363657360448201527f7366756c20746f2063616c6c20746869732066756e6374696f6e2e0000000000606482015260840161073a565b47811115610cc95760405163356680b760e01b815260040160405180910390fd5b6000826001600160a01b03168260405160006040518083038185875af1925050503d8060008114610d16576040519150601f19603f3d011682016040523d82523d6000602084013e610d1b565b606091505b5050905080610d6c5760405162461bcd60e51b815260206004820152601f60248201527f4661696c656420746f207769746864726177206379636c652066756e64732e00604482015260640161073a565b604080516001600160a01b0385168152602081018490527fa919fadcfa556a012bab31b15f596ea7ccd397adbf10e15f176db9055ab361c4910160405180910390a147600003610dca57600f805460ff60501b1916600160501b1790555b505050565b610dd76115c0565b610de1600061161a565b565b610deb6115c0565b600654600003610e0e57604051630d6ad97f60e41b815260040160405180910390fd5b803414610e31576040516336d921ad60e21b81526004810182905260240161073a565b600d81905560405133815281907f2a160df64fcb5d6c3f8843bb5c61c9ec3d5784979466a25cdc2d38a009a0fc399060200160405180910390a250565b600060608082610e84604086016020870161176d565b600f54909150600160401b900460ff161515600114610ebc5760095460405163191bf19b60e31b815260040161073a91815260200190565b600f54600160481b900460ff161515600103610eeb57604051637be055d560e11b815260040160405180910390fd5b6001600160a01b03811660009081526012602052604090205460ff161515600103610f2957604051631a387d0f60e11b815260040160405180910390fd5b6101008501359350610f3f6101a0860186611b62565b8080601f01602080910402602001604051908101604052809392919081815260200183838082843760009201919091525092955060019250610f7f915050565b604051908082528060200260200182016040528015610fcc57816020015b60408051606080820183526000808352602083015291810191909152815260200190600190039081610f9d5790505b5091506040518060600160405280306001600160a01b0316815260200160008152602001604051806020016040528060008152508152508260008151811061101657611016611bb0565b6020026020010181905250509193909250565b600f54600090819063ffffffff80821664010000000090920416101561105f57600f54640100000000900463ffffffff16611069565b600f5463ffffffff165b63ffffffff16600d546106ed9190611bc6565b6006541561109d57604051631ee1e30360e21b815260040160405180910390fd5b600a859055600c849055600f805463ffffffff851663ffffffff199091161790556006869055600180546001600160a01b038085166001600160a01b031992831681179093556005805491851691909216179055604080516331070bc960e21b8152905163c41c2f24916004818101926020929091908290030181865afa15801561112c573d6000803e3d6000fd5b505050506040513d601f19601f820116820180604052508101906111509190611be8565b600280546001600160a01b0319166001600160a01b03928316179055600154604080516328a69a0560e21b81529051919092169163a29a68149160048083019260209291908290030181865afa1580156111ae573d6000803e3d6000fd5b505050506040513d601f19601f820116820180604052508101906111d29190611be8565b600380546001600160a01b0319166001600160a01b0392831617905560025460065460405163d175415360e01b81526004810191909152600092919091169063d175415390602401600060405180830381865afa158015611237573d6000803e3d6000fd5b505050506040513d6000823e601f3d908101601f1916820160405261125f9190810190611c05565b60008151811061127157611271611bb0565b602090810291909101810151600480546001600160a01b0319166001600160a01b038316908117825560408051637e062a3560e11b81529051939550909363fc0c546a938284019391929091908290030181865afa1580156112d7573d6000803e3d6000fd5b505050506040513d601f19601f820116820180604052508101906112fb9190611be8565b600880546001600160a01b0319166001600160a01b03928316179055600154600654604051638776c49960e01b815260048101919091526000929190911690638776c499906024016103a060405180830381865afa158015611361573d6000803e3d6000fd5b505050506040513d601f19601f820116820180604052508101906113859190611e7e565b5090508060800151816060015161139c9190611b4f565b6009555050505050505050565b6000606080476000036113cf57604051630d6ad97f60e41b815260040160405180910390fd5b600c54606085013510156113fc57600c546040516337e6f47560e01b815260040161073a91815260200190565b6101208401359250611412610160850185611b62565b8080601f01602080910402602001604051908101604052809392919081815260200183838082843760009201919091525092945060019250611452915050565b60405190808252806020026020018201604052801561149f57816020015b604080516060808201835260008083526020830152918101919091528152602001906001900390816114705790505b5090506040518060600160405280306001600160a01b031681526020016000815260200160405180602001604052806000815250815250816000815181106114e9576114e9611bb0565b60200260200101819052509193909250565b6000806000806000600a54600e5460646115159190611f24565b61151f9190611bc6565b600e54600f54909791965060ff600160481b820481169650600160501b909104169350915050565b61154f6115c0565b6001600160a01b0381166115b45760405162461bcd60e51b815260206004820152602660248201527f4f776e61626c653a206e6577206f776e657220697320746865207a65726f206160448201526564647265737360d01b606482015260840161073a565b6115bd8161161a565b50565b6000546001600160a01b03163314610de15760405162461bcd60e51b815260206004820181905260248201527f4f776e61626c653a2063616c6c6572206973206e6f7420746865206f776e6572604482015260640161073a565b600080546001600160a01b038381166001600160a01b0319831681178455604051919092169283917f8be0079c531659141344cd1fd0a4f28419497f9722a3daafe3b4186f6b6457e09190a35050565b60006020828403121561167c57600080fd5b81356001600160e01b03198116811461169457600080fd5b9392505050565b6000602082840312156116ad57600080fd5b813567ffffffffffffffff8111156116c457600080fd5b8201610200818503121561169457600080fd5b6000602082840312156116e957600080fd5b813567ffffffffffffffff81111561170057600080fd5b8201610220818503121561169457600080fd5b6001600160a01b03811681146115bd57600080fd5b6000806040838503121561173b57600080fd5b823561174681611713565b946020939093013593505050565b60006020828403121561176657600080fd5b5035919050565b60006020828403121561177f57600080fd5b813561169481611713565b60006020828403121561179c57600080fd5b813567ffffffffffffffff8111156117b357600080fd5b82016101e0818503121561169457600080fd5b6000815180845260005b818110156117ec576020818501810151868301820152016117d0565b506000602082860101526020601f19601f83011685010191505092915050565b6000606085835260208181850152611826828501876117c6565b6040858203818701528187518084528484019150848160051b850101858a0160005b8381101561189857868303601f19018552815180516001600160a01b0316845288810151898501528601518684018a90526118858a8501826117c6565b9589019593505090870190600101611848565b50909c9b505050505050505050505050565b60008060008060008060c087890312156118c357600080fd5b863595506020870135945060408701359350606087013563ffffffff811681146118ec57600080fd5b925060808701356118fc81611713565b915060a087013561190c81611713565b809150509295509295509295565b60006020828403121561192c57600080fd5b813567ffffffffffffffff81111561194357600080fd5b82016101a0818503121561169457600080fd5b6000606085835260208181850152611970828501876117c6565b6040858203818701528187518084528484019150848160051b850101858a0160005b8381101561189857868303601f19018552815180516001600160a01b0316845288810151898501528601518684018a90526119cf8a8501826117c6565b9589019593505090870190600101611992565b805180151581146119f257600080fd5b919050565b600060208284031215611a0957600080fd5b611694826119e2565b634e487b7160e01b600052604160045260246000fd5b604051610240810167ffffffffffffffff81118282101715611a4c57611a4c611a12565b60405290565b604051610120810167ffffffffffffffff81118282101715611a4c57611a4c611a12565b604051601f8201601f1916810167ffffffffffffffff81118282101715611a9f57611a9f611a12565b604052919050565b600060808284031215611ab957600080fd5b6040516080810181811067ffffffffffffffff82111715611adc57611adc611a12565b6040528235611aea81611713565b808252506020830135602082015260408301356040820152606083013560608201528091505092915050565b634e487b7160e01b600052601160045260246000fd5b600063ffffffff808316818103611b4557611b45611b16565b6001019392505050565b808201808211156106ed576106ed611b16565b6000808335601e19843603018112611b7957600080fd5b83018035915067ffffffffffffffff821115611b9457600080fd5b602001915036819003821315611ba957600080fd5b9250929050565b634e487b7160e01b600052603260045260246000fd5b600082611be357634e487b7160e01b600052601260045260246000fd5b500490565b600060208284031215611bfa57600080fd5b815161169481611713565b60006020808385031215611c1857600080fd5b825167ffffffffffffffff80821115611c3057600080fd5b818501915085601f830112611c4457600080fd5b815181811115611c5657611c56611a12565b8060051b9150611c67848301611a76565b8181529183018401918481019088841115611c8157600080fd5b938501935b83851015611cab5784519250611c9b83611713565b8282529385019390850190611c86565b98975050505050505050565b80516119f281611713565b600060608284031215611cd457600080fd5b6040516060810181811067ffffffffffffffff82111715611cf757611cf7611a12565b604052905080611d06836119e2565b8152611d14602084016119e2565b6020820152611d25604084016119e2565b60408201525092915050565b60006102808284031215611d4457600080fd5b611d4c611a28565b9050611d588383611cc2565b8152606082015160208201526080820151604082015260a08201516060820152611d8460c083016119e2565b6080820152611d9560e083016119e2565b60a0820152610100611da88184016119e2565b60c0830152610120611dbb8185016119e2565b60e0840152610140611dce8186016119e2565b838501526101609250611de28386016119e2565b828501526101809150611df68286016119e2565b908401526101a0611e088582016119e2565b838501526101c09250611e1c8386016119e2565b828501526101e09150611e308286016119e2565b90840152610200611e428582016119e2565b838501526102209250611e568386016119e2565b82850152611e676102408601611cb7565b818501525050610260830151818301525092915050565b6000808284036103a0811215611e9357600080fd5b61012080821215611ea357600080fd5b611eab611a52565b9150845182526020850151602083015260408501516040830152606085015160608301526080850151608083015260a085015160a083015260c085015160c0830152611ef960e08601611cb7565b60e0830152610100808601518184015250819350611f1986828701611d31565b925050509250929050565b80820281158282048414176106ed576106ed611b1656fea2646970667358221220ac116d5b39f60506daa115f450dde4a195e2b1f410f6eaf16ffb0fe3dec5b94964736f6c63430008140033a26469706673582212209425769af185b90c1fc72f5310e2973ce57f11bf01e4d4af9c402c7afbc6ace564736f6c63430008140033",
    "linkReferences": {}
  },
  "methodIdentifiers": {
    "delegate()": "c89e4361",
    "delegateOfProject(uint256)": "7ca34833",
    "delegatesRegistry()": "d574ff04",
    "deployDelegateFor(address,uint256,address)": "4532cd51",
    "getDelegateOfProject(uint256)": "5964be5b"
  },
  "id": 107
}