{
  "abi": [
    {
      "inputs": [
        {
          "internalType": "contract IJBController3_1",
          "name": "_controller",
          "type": "address"
        },
        {
          "internalType": "contract IJBSingleTokenPaymentTerminalStore3_1_1",
          "name": "_paymentTerminalStore",
          "type": "address"
        }
      ],
      "stateMutability": "nonpayable",
      "type": "constructor"
    },
    {
      "inputs": [],
      "name": "AlreadyWithdrawnRefund",
      "type": "error"
    },
    {
      "inputs": [
        {
          "internalType": "uint256",
          "name": "minAmount",
          "type": "uint256"
        }
      ],
      "name": "AmountIsBelowMinimumPledge",
      "type": "error"
    },
    {
      "inputs": [],
      "name": "ContractAlreadyInitialized",
      "type": "error"
    },
    {
      "inputs": [],
      "name": "CycleHasExpired",
      "type": "error"
    },
    {
      "inputs": [
        {
          "internalType": "uint256",
          "name": "endTimestamp",
          "type": "uint256"
        }
      ],
      "name": "CycleHasNotEndedYet",
      "type": "error"
    },
    {
      "inputs": [],
      "name": "DataSourceNotInitialized",
      "type": "error"
    },
    {
      "inputs": [],
      "name": "FunctionCanOnlyBeCalledOnce",
      "type": "error"
    },
    {
      "inputs": [
        {
          "internalType": "uint256",
          "name": "input",
          "type": "uint256"
        }
      ],
      "name": "FundsMustMatchInputAmount",
      "type": "error"
    },
    {
      "inputs": [],
      "name": "InsufficientFunds",
      "type": "error"
    },
    {
      "inputs": [
        {
          "internalType": "address",
          "name": "caller",
          "type": "address"
        },
        {
          "internalType": "uint256",
          "name": "projectId",
          "type": "uint256"
        },
        {
          "internalType": "uint256",
          "name": "value",
          "type": "uint256"
        }
      ],
      "name": "InvalidPaymentEvent",
      "type": "error"
    },
    {
      "inputs": [],
      "name": "NoRefundsForSuccessfulCycle",
      "type": "error"
    },
    {
      "anonymous": false,
      "inputs": [
        {
          "indexed": true,
          "internalType": "bool",
          "name": "",
          "type": "bool"
        },
        {
          "indexed": true,
          "internalType": "bool",
          "name": "",
          "type": "bool"
        }
      ],
      "name": "CycleHasClosed",
      "type": "event"
    },
    {
      "anonymous": false,
      "inputs": [
        {
          "indexed": true,
          "internalType": "address",
          "name": "",
          "type": "address"
        },
        {
          "indexed": true,
          "internalType": "uint256",
          "name": "",
          "type": "uint256"
        }
      ],
      "name": "CycleRefundBonusWithdrawal",
      "type": "event"
    },
    {
      "anonymous": false,
      "inputs": [
        {
          "indexed": false,
          "internalType": "address",
          "name": "",
          "type": "address"
        },
        {
          "indexed": false,
          "internalType": "uint256",
          "name": "",
          "type": "uint256"
        }
      ],
      "name": "OwnerWithdrawal",
      "type": "event"
    },
    {
      "anonymous": false,
      "inputs": [
        {
          "indexed": true,
          "internalType": "address",
          "name": "previousOwner",
          "type": "address"
        },
        {
          "indexed": true,
          "internalType": "address",
          "name": "newOwner",
          "type": "address"
        }
      ],
      "name": "OwnershipTransferred",
      "type": "event"
    },
    {
      "anonymous": false,
      "inputs": [
        {
          "indexed": false,
          "internalType": "address",
          "name": "",
          "type": "address"
        },
        {
          "indexed": true,
          "internalType": "uint256",
          "name": "",
          "type": "uint256"
        }
      ],
      "name": "RefundBonusDeposited",
      "type": "event"
    },
    {
      "stateMutability": "payable",
      "type": "fallback"
    },
    {
      "inputs": [],
      "name": "controller",
      "outputs": [
        {
          "internalType": "contract IJBController3_1",
          "name": "",
          "type": "address"
        }
      ],
      "stateMutability": "view",
      "type": "function"
    },
    {
      "inputs": [
        {
          "internalType": "address payable",
          "name": "receivingAddress",
          "type": "address"
        },
        {
          "internalType": "uint256",
          "name": "amount",
          "type": "uint256"
        }
      ],
      "name": "creatorWithdraw",
      "outputs": [],
      "stateMutability": "payable",
      "type": "function"
    },
    {
      "inputs": [],
      "name": "cycleExpiryDate",
      "outputs": [
        {
          "internalType": "uint256",
          "name": "",
          "type": "uint256"
        }
      ],
      "stateMutability": "view",
      "type": "function"
    },
    {
      "inputs": [],
      "name": "cycleTarget",
      "outputs": [
        {
          "internalType": "uint256",
          "name": "",
          "type": "uint256"
        }
      ],
      "stateMutability": "view",
      "type": "function"
    },
    {
      "inputs": [
        {
          "internalType": "uint256",
          "name": "refundBonusAmount",
          "type": "uint256"
        }
      ],
      "name": "depositRefundBonus",
      "outputs": [],
      "stateMutability": "payable",
      "type": "function"
    },
    {
      "inputs": [
        {
          "components": [
            {
              "internalType": "address",
              "name": "payer",
              "type": "address"
            },
            {
              "internalType": "uint256",
              "name": "projectId",
              "type": "uint256"
            },
            {
              "internalType": "uint256",
              "name": "currentFundingCycleConfiguration",
              "type": "uint256"
            },
            {
              "components": [
                {
                  "internalType": "address",
                  "name": "token",
                  "type": "address"
                },
                {
                  "internalType": "uint256",
                  "name": "value",
                  "type": "uint256"
                },
                {
                  "internalType": "uint256",
                  "name": "decimals",
                  "type": "uint256"
                },
                {
                  "internalType": "uint256",
                  "name": "currency",
                  "type": "uint256"
                }
              ],
              "internalType": "struct JBTokenAmount",
              "name": "amount",
              "type": "tuple"
            },
            {
              "components": [
                {
                  "internalType": "address",
                  "name": "token",
                  "type": "address"
                },
                {
                  "internalType": "uint256",
                  "name": "value",
                  "type": "uint256"
                },
                {
                  "internalType": "uint256",
                  "name": "decimals",
                  "type": "uint256"
                },
                {
                  "internalType": "uint256",
                  "name": "currency",
                  "type": "uint256"
                }
              ],
              "internalType": "struct JBTokenAmount",
              "name": "forwardedAmount",
              "type": "tuple"
            },
            {
              "internalType": "uint256",
              "name": "projectTokenCount",
              "type": "uint256"
            },
            {
              "internalType": "address",
              "name": "beneficiary",
              "type": "address"
            },
            {
              "internalType": "bool",
              "name": "preferClaimedTokens",
              "type": "bool"
            },
            {
              "internalType": "string",
              "name": "memo",
              "type": "string"
            },
            {
              "internalType": "bytes",
              "name": "dataSourceMetadata",
              "type": "bytes"
            },
            {
              "internalType": "bytes",
              "name": "payerMetadata",
              "type": "bytes"
            }
          ],
          "internalType": "struct JBDidPayData3_1_1",
          "name": "_data",
          "type": "tuple"
        }
      ],
      "name": "didPay",
      "outputs": [],
      "stateMutability": "payable",
      "type": "function"
    },
    {
      "inputs": [
        {
          "components": [
            {
              "internalType": "address",
              "name": "holder",
              "type": "address"
            },
            {
              "internalType": "uint256",
              "name": "projectId",
              "type": "uint256"
            },
            {
              "internalType": "uint256",
              "name": "currentFundingCycleConfiguration",
              "type": "uint256"
            },
            {
              "internalType": "uint256",
              "name": "projectTokenCount",
              "type": "uint256"
            },
            {
              "components": [
                {
                  "internalType": "address",
                  "name": "token",
                  "type": "address"
                },
                {
                  "internalType": "uint256",
                  "name": "value",
                  "type": "uint256"
                },
                {
                  "internalType": "uint256",
                  "name": "decimals",
                  "type": "uint256"
                },
                {
                  "internalType": "uint256",
                  "name": "currency",
                  "type": "uint256"
                }
              ],
              "internalType": "struct JBTokenAmount",
              "name": "reclaimedAmount",
              "type": "tuple"
            },
            {
              "components": [
                {
                  "internalType": "address",
                  "name": "token",
                  "type": "address"
                },
                {
                  "internalType": "uint256",
                  "name": "value",
                  "type": "uint256"
                },
                {
                  "internalType": "uint256",
                  "name": "decimals",
                  "type": "uint256"
                },
                {
                  "internalType": "uint256",
                  "name": "currency",
                  "type": "uint256"
                }
              ],
              "internalType": "struct JBTokenAmount",
              "name": "forwardedAmount",
              "type": "tuple"
            },
            {
              "internalType": "address payable",
              "name": "beneficiary",
              "type": "address"
            },
            {
              "internalType": "string",
              "name": "memo",
              "type": "string"
            },
            {
              "internalType": "bytes",
              "name": "dataSourceMetadata",
              "type": "bytes"
            },
            {
              "internalType": "bytes",
              "name": "redeemerMetadata",
              "type": "bytes"
            }
          ],
          "internalType": "struct JBDidRedeemData3_1_1",
          "name": "_data",
          "type": "tuple"
        }
      ],
      "name": "didRedeem",
      "outputs": [],
      "stateMutability": "payable",
      "type": "function"
    },
    {
      "inputs": [],
      "name": "directory",
      "outputs": [
        {
          "internalType": "contract IJBDirectory",
          "name": "",
          "type": "address"
        }
      ],
      "stateMutability": "view",
      "type": "function"
    },
    {
      "inputs": [],
      "name": "earlyPledgerRefundBonus",
      "outputs": [
        {
          "internalType": "uint256",
          "name": "",
          "type": "uint256"
        }
      ],
      "stateMutability": "view",
      "type": "function"
    },
    {
      "inputs": [],
      "name": "earlyRefundBonusCalc",
      "outputs": [
        {
          "internalType": "uint256",
          "name": "",
          "type": "uint256"
        }
      ],
      "stateMutability": "view",
      "type": "function"
    },
    {
      "inputs": [],
      "name": "fundAccessConstraintsStore",
      "outputs": [
        {
          "internalType": "contract IJBFundAccessConstraintsStore",
          "name": "",
          "type": "address"
        }
      ],
      "stateMutability": "view",
      "type": "function"
    },
    {
      "inputs": [],
      "name": "getBalance",
      "outputs": [
        {
          "internalType": "uint256",
          "name": "",
          "type": "uint256"
        }
      ],
      "stateMutability": "view",
      "type": "function"
    },
    {
      "inputs": [],
      "name": "getCycleFundingStatus",
      "outputs": [
        {
          "internalType": "uint256",
          "name": "",
          "type": "uint256"
        },
        {
          "internalType": "uint256",
          "name": "",
          "type": "uint256"
        },
        {
          "internalType": "bool",
          "name": "",
          "type": "bool"
        },
        {
          "internalType": "bool",
          "name": "",
          "type": "bool"
        }
      ],
      "stateMutability": "view",
      "type": "function"
    },
    {
      "inputs": [
        {
          "internalType": "address",
          "name": "addy",
          "type": "address"
        }
      ],
      "name": "getEarlyPledgerStatus",
      "outputs": [
        {
          "internalType": "bool",
          "name": "",
          "type": "bool"
        }
      ],
      "stateMutability": "view",
      "type": "function"
    },
    {
      "inputs": [
        {
          "internalType": "address",
          "name": "_address",
          "type": "address"
        }
      ],
      "name": "getPledgerAmount",
      "outputs": [
        {
          "internalType": "uint256",
          "name": "",
          "type": "uint256"
        }
      ],
      "stateMutability": "view",
      "type": "function"
    },
    {
      "inputs": [],
      "name": "hasCreatorWithdrawnAllFunds",
      "outputs": [
        {
          "internalType": "bool",
          "name": "",
          "type": "bool"
        }
      ],
      "stateMutability": "view",
      "type": "function"
    },
    {
      "inputs": [
        {
          "internalType": "uint256",
          "name": "_projectId",
          "type": "uint256"
        },
        {
          "internalType": "uint256",
          "name": "_cycleTarget",
          "type": "uint256"
        },
        {
          "internalType": "uint256",
          "name": "_minimumPledgeAmount",
          "type": "uint256"
        },
        {
          "internalType": "uint32",
          "name": "_maxEarlyPledgers",
          "type": "uint32"
        }
      ],
      "name": "initialize",
      "outputs": [],
      "stateMutability": "nonpayable",
      "type": "function"
    },
    {
      "inputs": [],
      "name": "isCycleExpired",
      "outputs": [
        {
          "internalType": "bool",
          "name": "",
          "type": "bool"
        }
      ],
      "stateMutability": "view",
      "type": "function"
    },
    {
      "inputs": [],
      "name": "isTargetMet",
      "outputs": [
        {
          "internalType": "bool",
          "name": "",
          "type": "bool"
        }
      ],
      "stateMutability": "view",
      "type": "function"
    },
    {
      "inputs": [],
      "name": "maxEarlyPledgers",
      "outputs": [
        {
          "internalType": "uint32",
          "name": "",
          "type": "uint32"
        }
      ],
      "stateMutability": "view",
      "type": "function"
    },
    {
      "inputs": [],
      "name": "minimumPledgeAmount",
      "outputs": [
        {
          "internalType": "uint256",
          "name": "",
          "type": "uint256"
        }
      ],
      "stateMutability": "view",
      "type": "function"
    },
    {
      "inputs": [],
      "name": "numEarlyPledgers",
      "outputs": [
        {
          "internalType": "uint32",
          "name": "",
          "type": "uint32"
        }
      ],
      "stateMutability": "view",
      "type": "function"
    },
    {
      "inputs": [],
      "name": "owner",
      "outputs": [
        {
          "internalType": "address",
          "name": "",
          "type": "address"
        }
      ],
      "stateMutability": "view",
      "type": "function"
    },
    {
      "inputs": [
        {
          "components": [
            {
              "internalType": "contract IJBPaymentTerminal",
              "name": "terminal",
              "type": "address"
            },
            {
              "internalType": "address",
              "name": "payer",
              "type": "address"
            },
            {
              "components": [
                {
                  "internalType": "address",
                  "name": "token",
                  "type": "address"
                },
                {
                  "internalType": "uint256",
                  "name": "value",
                  "type": "uint256"
                },
                {
                  "internalType": "uint256",
                  "name": "decimals",
                  "type": "uint256"
                },
                {
                  "internalType": "uint256",
                  "name": "currency",
                  "type": "uint256"
                }
              ],
              "internalType": "struct JBTokenAmount",
              "name": "amount",
              "type": "tuple"
            },
            {
              "internalType": "uint256",
              "name": "projectId",
              "type": "uint256"
            },
            {
              "internalType": "uint256",
              "name": "currentFundingCycleConfiguration",
              "type": "uint256"
            },
            {
              "internalType": "address",
              "name": "beneficiary",
              "type": "address"
            },
            {
              "internalType": "uint256",
              "name": "weight",
              "type": "uint256"
            },
            {
              "internalType": "uint256",
              "name": "reservedRate",
              "type": "uint256"
            },
            {
              "internalType": "string",
              "name": "memo",
              "type": "string"
            },
            {
              "internalType": "bytes",
              "name": "metadata",
              "type": "bytes"
            }
          ],
          "internalType": "struct JBPayParamsData",
          "name": "_data",
          "type": "tuple"
        }
      ],
      "name": "payParams",
      "outputs": [
        {
          "internalType": "uint256",
          "name": "weight",
          "type": "uint256"
        },
        {
          "internalType": "string",
          "name": "memo",
          "type": "string"
        },
        {
          "components": [
            {
              "internalType": "contract IJBPayDelegate3_1_1",
              "name": "delegate",
              "type": "address"
            },
            {
              "internalType": "uint256",
              "name": "amount",
              "type": "uint256"
            },
            {
              "internalType": "bytes",
              "name": "metadata",
              "type": "bytes"
            }
          ],
          "internalType": "struct JBPayDelegateAllocation3_1_1[]",
          "name": "delegateAllocations",
          "type": "tuple[]"
        }
      ],
      "stateMutability": "nonpayable",
      "type": "function"
    },
    {
      "inputs": [],
      "name": "paymentTerminal",
      "outputs": [
        {
          "internalType": "contract IJBSingleTokenPaymentTerminal",
          "name": "",
          "type": "address"
        }
      ],
      "stateMutability": "view",
      "type": "function"
    },
    {
      "inputs": [],
      "name": "paymentTerminalStore",
      "outputs": [
        {
          "internalType": "contract IJBSingleTokenPaymentTerminalStore3_1_1",
          "name": "",
          "type": "address"
        }
      ],
      "stateMutability": "view",
      "type": "function"
    },
    {
      "inputs": [],
      "name": "paymentToken",
      "outputs": [
        {
          "internalType": "address",
          "name": "",
          "type": "address"
        }
      ],
      "stateMutability": "view",
      "type": "function"
    },
    {
      "inputs": [],
      "name": "projectConfiguration",
      "outputs": [
        {
          "internalType": "uint256",
          "name": "",
          "type": "uint256"
        }
      ],
      "stateMutability": "view",
      "type": "function"
    },
    {
      "inputs": [],
      "name": "projectId",
      "outputs": [
        {
          "internalType": "uint256",
          "name": "",
          "type": "uint256"
        }
      ],
      "stateMutability": "view",
      "type": "function"
    },
    {
      "inputs": [
        {
          "components": [
            {
              "internalType": "contract IJBPaymentTerminal",
              "name": "terminal",
              "type": "address"
            },
            {
              "internalType": "address",
              "name": "holder",
              "type": "address"
            },
            {
              "internalType": "uint256",
              "name": "projectId",
              "type": "uint256"
            },
            {
              "internalType": "uint256",
              "name": "currentFundingCycleConfiguration",
              "type": "uint256"
            },
            {
              "internalType": "uint256",
              "name": "tokenCount",
              "type": "uint256"
            },
            {
              "internalType": "uint256",
              "name": "totalSupply",
              "type": "uint256"
            },
            {
              "internalType": "uint256",
              "name": "overflow",
              "type": "uint256"
            },
            {
              "components": [
                {
                  "internalType": "address",
                  "name": "token",
                  "type": "address"
                },
                {
                  "internalType": "uint256",
                  "name": "value",
                  "type": "uint256"
                },
                {
                  "internalType": "uint256",
                  "name": "decimals",
                  "type": "uint256"
                },
                {
                  "internalType": "uint256",
                  "name": "currency",
                  "type": "uint256"
                }
              ],
              "internalType": "struct JBTokenAmount",
              "name": "reclaimAmount",
              "type": "tuple"
            },
            {
              "internalType": "bool",
              "name": "useTotalOverflow",
              "type": "bool"
            },
            {
              "internalType": "uint256",
              "name": "redemptionRate",
              "type": "uint256"
            },
            {
              "internalType": "string",
              "name": "memo",
              "type": "string"
            },
            {
              "internalType": "bytes",
              "name": "metadata",
              "type": "bytes"
            }
          ],
          "internalType": "struct JBRedeemParamsData",
          "name": "_data",
          "type": "tuple"
        }
      ],
      "name": "redeemParams",
      "outputs": [
        {
          "internalType": "uint256",
          "name": "reclaimAmount",
          "type": "uint256"
        },
        {
          "internalType": "string",
          "name": "memo",
          "type": "string"
        },
        {
          "components": [
            {
              "internalType": "contract IJBRedemptionDelegate3_1_1",
              "name": "delegate",
              "type": "address"
            },
            {
              "internalType": "uint256",
              "name": "amount",
              "type": "uint256"
            },
            {
              "internalType": "bytes",
              "name": "metadata",
              "type": "bytes"
            }
          ],
          "internalType": "struct JBRedemptionDelegateAllocation3_1_1[]",
          "name": "delegateAllocations",
          "type": "tuple[]"
        }
      ],
      "stateMutability": "view",
      "type": "function"
    },
    {
      "inputs": [],
      "name": "relayCycleResults",
      "outputs": [],
      "stateMutability": "nonpayable",
      "type": "function"
    },
    {
      "inputs": [],
      "name": "renounceOwnership",
      "outputs": [],
      "stateMutability": "nonpayable",
      "type": "function"
    },
    {
      "inputs": [
        {
          "internalType": "bytes4",
          "name": "_interfaceId",
          "type": "bytes4"
        }
      ],
      "name": "supportsInterface",
      "outputs": [
        {
          "internalType": "bool",
          "name": "",
          "type": "bool"
        }
      ],
      "stateMutability": "view",
      "type": "function"
    },
    {
      "inputs": [],
      "name": "totalAmountPledged",
      "outputs": [
        {
          "internalType": "uint256",
          "name": "",
          "type": "uint256"
        }
      ],
      "stateMutability": "view",
      "type": "function"
    },
    {
      "inputs": [],
      "name": "totalRefundBonus",
      "outputs": [
        {
          "internalType": "uint256",
          "name": "",
          "type": "uint256"
        }
      ],
      "stateMutability": "view",
      "type": "function"
    },
    {
      "inputs": [
        {
          "internalType": "address",
          "name": "newOwner",
          "type": "address"
        }
      ],
      "name": "transferOwnership",
      "outputs": [],
      "stateMutability": "nonpayable",
      "type": "function"
    },
    {
      "stateMutability": "payable",
      "type": "receive"
    }
  ],
  "bytecode": {
    "object": "0x6080604052600f805466ffffffffffffff60201b191690553480156200002457600080fd5b506040516200205a3803806200205a8339810160408190526200004791620000ed565b620000523362000084565b600180546001600160a01b039384166001600160a01b031991821617909155600580549290931691161790556200012c565b600080546001600160a01b038381166001600160a01b0319831681178455604051919092169283917f8be0079c531659141344cd1fd0a4f28419497f9722a3daafe3b4186f6b6457e09190a35050565b6001600160a01b0381168114620000ea57600080fd5b50565b600080604083850312156200010157600080fd5b82516200010e81620000d4565b60208401519092506200012181620000d4565b809150509250929050565b611f1e806200013c6000396000f3fe6080604052600436106101fb5760003560e01c806378352ac51161010c578063d06bfb9d1161009a578063ddceec401161006c578063ddceec40146105de578063decf1e6414610603578063f2fde38b14610619578063f77c479114610639578063f93148491461065957005b8063d06bfb9d14610546578063d46cf1711461055c578063dacfd7161461058b578063dd63a549146105a157005b8063a29a6814116100de578063a29a6814146104ac578063a51cfd18146104cc578063acda2a06146104fb578063b12d0e7a14610510578063c41c2f241461052657005b806378352ac5146104025780638da5cb5b14610423578063959328ba14610441578063959d1cab1461047357005b80635665c723116101895780636ee4c5e81161015b5780636ee4c5e81461038e5780636f10492f146103a4578063715018a6146103c457806372dcc67d146103d957806373d91df8146103ef57005b80635665c723146103275780635e6dafba146103485780636b204943146103685780636b53f8ab1461037b57005b80631452438e116101cd5780631452438e146102835780633013ce29146102bb57806332b235d0146102db5780633fafa127146102f057806352e44fa01461030657005b806301ffc9a71461020457806306c3f8ab146102395780630bf46e591461025d57806312065fe01461027057005b3661020257005b005b34801561021057600080fd5b5061022461021f36600461163d565b61068f565b60405190151581526020015b60405180910390f35b34801561024557600080fd5b5061024f600b5481565b604051908152602001610230565b61020261026b36600461166e565b6106e1565b34801561027c57600080fd5b504761024f565b34801561028f57600080fd5b506004546102a3906001600160a01b031681565b6040516001600160a01b039091168152602001610230565b3480156102c757600080fd5b506008546102a3906001600160a01b031681565b3480156102e757600080fd5b506102026108e7565b3480156102fc57600080fd5b5061024f60065481565b34801561031257600080fd5b50600f5461022490600160481b900460ff1681565b34801561033357600080fd5b50600f5461022490600160501b900460ff1681565b34801561035457600080fd5b506102026103633660046116aa565b6109c3565b6102026103763660046116f4565b610cd5565b610202610389366004611745565b610f02565b34801561039a57600080fd5b5061024f600d5481565b3480156103b057600080fd5b506005546102a3906001600160a01b031681565b3480156103d057600080fd5b506102026110cf565b3480156103e557600080fd5b5061024f60095481565b6102026103fd366004611771565b6110e3565b34801561040e57600080fd5b50600f5461022490600160401b900460ff1681565b34801561042f57600080fd5b506000546001600160a01b03166102a3565b34801561044d57600080fd5b50600f5461045e9063ffffffff1681565b60405163ffffffff9091168152602001610230565b34801561047f57600080fd5b5061022461048e36600461178a565b6001600160a01b031660009081526010602052604090205460ff1690565b3480156104b857600080fd5b506003546102a3906001600160a01b031681565b3480156104d857600080fd5b506104ec6104e73660046117a7565b61116e565b60405161023093929190611829565b34801561050757600080fd5b5061024f611329565b34801561051c57600080fd5b5061024f600a5481565b34801561053257600080fd5b506002546102a3906001600160a01b031681565b34801561055257600080fd5b5061024f60075481565b34801561056857600080fd5b5061057c6105773660046118c7565b61137c565b60405161023093929190611903565b34801561059757600080fd5b5061024f600e5481565b3480156105ad57600080fd5b506105b66114ce565b6040805194855260208501939093529015159183019190915215156060820152608001610230565b3480156105ea57600080fd5b50600f5461045e90640100000000900463ffffffff1681565b34801561060f57600080fd5b5061024f600c5481565b34801561062557600080fd5b5061020261063436600461178a565b61151a565b34801561064557600080fd5b506001546102a3906001600160a01b031681565b34801561066557600080fd5b5061024f61067436600461178a565b6001600160a01b031660009081526011602052604090205490565b60006001600160e01b031982166371700c6960e01b14806106c057506001600160e01b03198216636b20494360e01b145b806106db57506001600160e01b03198216630bf46e5960e01b145b92915050565b60006106f0602083018361178a565b600f54909150600160401b900460ff1615156001146107315760095460405163191bf19b60e31b815260040161072891815260200190565b60405180910390fd5b600f54600160481b900460ff16151560010361076057604051637be055d560e11b815260040160405180910390fd5b6001600160a01b03811660009081526012602052604090205460ff16151560010361079e57604051631a387d0f60e11b815260040160405180910390fd5b6001600160a01b03811660009081526010602052604090205460ff1615156001036108e3576107cb611329565b600b8190554710156107f05760405163356680b760e01b815260040160405180910390fd5b6001600160a01b038116600081815260126020526040808220805460ff19166001179055600b5490519192918381818185875af1925050503d8060008114610854576040519150601f19603f3d011682016040523d82523d6000602084013e610859565b606091505b50509050806108aa5760405162461bcd60e51b815260206004820152601c60248201527f4661696c656420746f2073656e6420726566756e6420626f6e75732e000000006044820152606401610728565b600b546040516001600160a01b038416907f14397048c67a716290cdab60d1e0da191355e7efd4cfde59953d466d6214682290600090a3505b5050565b600f54600160401b900460ff16151560010361091657604051637c3555fb60e01b815260040160405180910390fd5b60095442101561093f5760095460405163191bf19b60e31b815260040161072891815260200190565b600f805468ff00000000000000001916600160401b179055600a54600e541061097c57600f805469ff0000000000000000001916600160481b1790555b600f5460405160ff600160481b83048116151592600160401b9004161515907f851b4e23988109dccdf7cdcc642bbbaf41b8191fa20f5bc0c0a641052f1bd65a90600090a3565b6109cb611593565b600654156109ec57604051631ee1e30360e21b815260040160405180910390fd5b6006849055600154604080516331070bc960e21b815290516001600160a01b039092169163c41c2f24916004808201926020929091908290030181865afa158015610a3b573d6000803e3d6000fd5b505050506040513d601f19601f82011682018060405250810190610a5f919061198f565b600280546001600160a01b0319166001600160a01b03928316179055600154604080516328a69a0560e21b81529051919092169163a29a68149160048083019260209291908290030181865afa158015610abd573d6000803e3d6000fd5b505050506040513d601f19601f82011682018060405250810190610ae1919061198f565b600380546001600160a01b0319166001600160a01b0392831617905560025460065460405163d175415360e01b81526004810191909152600092919091169063d175415390602401600060405180830381865afa158015610b46573d6000803e3d6000fd5b505050506040513d6000823e601f3d908101601f19168201604052610b6e9190810190611a41565b600081518110610b8057610b80611af3565b602090810291909101810151600480546001600160a01b0319166001600160a01b038316908117825560408051637e062a3560e11b81529051939550909363fc0c546a938284019391929091908290030181865afa158015610be6573d6000803e3d6000fd5b505050506040513d601f19601f82011682018060405250810190610c0a919061198f565b600880546001600160a01b0319166001600160a01b03928316179055600154600654604051638776c49960e01b815260048101919091526000929190911690638776c499906024016103a060405180830381865afa158015610c70573d6000803e3d6000fd5b505050506040513d601f19601f82011682018060405250810190610c949190611ce5565b50905080608001518160600151610cab9190611da1565b6009555050600a92909255600c55600f805463ffffffff191663ffffffff90921691909117905550565b34151580610d575750600254600654604051636e49181f60e01b815260048101919091523360248201526001600160a01b0390911690636e49181f90604401602060405180830381865afa158015610d31573d6000803e3d6000fd5b505050506040513d601f19601f82011682018060405250810190610d559190611db4565b155b80610d685750600654816020013514155b15610d9857604051631705154f60e31b815233600482015260208201356024820152346044820152606401610728565b6009544210610dba57604051631436910f60e31b815260040160405180910390fd5b6000610dc9602083018361178a565b90506000610ddf36849003840160608501611dcf565b6020808201516001600160a01b038516600090815260109092526040909120549192509060ff16158015610e255750600f5463ffffffff80821664010000000090920416105b15610ee4576001600160a01b0383166000908152601060205260409020805460ff19166001179055600f805463ffffffff64010000000090910416906004610e6c83611e3e565b91906101000a81548163ffffffff021916908363ffffffff160217905550508060116000856001600160a01b03166001600160a01b031681526020019081526020016000206000828254610ec09190611da1565b9250508190555080600e6000828254610ed99190611da1565b90915550610efc9050565b80600e6000828254610ef69190611da1565b90915550505b50505050565b610f0a611593565b600f54600160401b900460ff1615156001148015610f365750600f54600160481b900460ff1615156001145b610fa85760405162461bcd60e51b815260206004820152603b60248201527f4379636c65206d757374206265206578706972656420616e642073756363657360448201527f7366756c20746f2063616c6c20746869732066756e6374696f6e2e00000000006064820152608401610728565b47811115610fc95760405163356680b760e01b815260040160405180910390fd5b6000826001600160a01b03168260405160006040518083038185875af1925050503d8060008114611016576040519150601f19603f3d011682016040523d82523d6000602084013e61101b565b606091505b505090508061106c5760405162461bcd60e51b815260206004820152601f60248201527f4661696c656420746f207769746864726177206379636c652066756e64732e006044820152606401610728565b604080516001600160a01b0385168152602081018490527fa919fadcfa556a012bab31b15f596ea7ccd397adbf10e15f176db9055ab361c4910160405180910390a1476000036110ca57600f805460ff60501b1916600160501b1790555b505050565b6110d7611593565b6110e160006115ed565b565b6110eb611593565b60065460000361110e57604051630d6ad97f60e41b815260040160405180910390fd5b803414611131576040516336d921ad60e21b815260048101829052602401610728565b600d81905560405133815281907f2a160df64fcb5d6c3f8843bb5c61c9ec3d5784979466a25cdc2d38a009a0fc399060200160405180910390a250565b600060608082611184604086016020870161178a565b600f54909150600160401b900460ff1615156001146111bc5760095460405163191bf19b60e31b815260040161072891815260200190565b600f54600160481b900460ff1615156001036111eb57604051637be055d560e11b815260040160405180910390fd5b6001600160a01b03811660009081526012602052604090205460ff16151560010361122957604051631a387d0f60e11b815260040160405180910390fd5b610100850135935061123f6101a0860186611e61565b8080601f0160208091040260200160405190810160405280939291908181526020018383808284376000920191909152509295506001925061127f915050565b6040519080825280602002602001820160405280156112cc57816020015b6040805160608082018352600080835260208301529181019190915281526020019060019003908161129d5790505b5091506040518060600160405280306001600160a01b0316815260200160008152602001604051806020016040528060008152508152508260008151811061131657611316611af3565b6020026020010181905250509193909250565b600f54600090819063ffffffff80821664010000000090920416101561135f57600f54640100000000900463ffffffff16611369565b600f5463ffffffff165b63ffffffff16600d546106db9190611eaf565b6000606080476000036113a257604051630d6ad97f60e41b815260040160405180910390fd5b600c54606085013510156113cf57600c546040516337e6f47560e01b815260040161072891815260200190565b61012084013592506113e5610160850185611e61565b8080601f01602080910402602001604051908101604052809392919081815260200183838082843760009201919091525092945060019250611425915050565b60405190808252806020026020018201604052801561147257816020015b604080516060808201835260008083526020830152918101919091528152602001906001900390816114435790505b5090506040518060600160405280306001600160a01b031681526020016000815260200160405180602001604052806000815250815250816000815181106114bc576114bc611af3565b60200260200101819052509193909250565b6000806000806000600a54600e5460646114e89190611ed1565b6114f29190611eaf565b600e54600f54909791965060ff600160481b820481169650600160501b909104169350915050565b611522611593565b6001600160a01b0381166115875760405162461bcd60e51b815260206004820152602660248201527f4f776e61626c653a206e6577206f776e657220697320746865207a65726f206160448201526564647265737360d01b6064820152608401610728565b611590816115ed565b50565b6000546001600160a01b031633146110e15760405162461bcd60e51b815260206004820181905260248201527f4f776e61626c653a2063616c6c6572206973206e6f7420746865206f776e65726044820152606401610728565b600080546001600160a01b038381166001600160a01b0319831681178455604051919092169283917f8be0079c531659141344cd1fd0a4f28419497f9722a3daafe3b4186f6b6457e09190a35050565b60006020828403121561164f57600080fd5b81356001600160e01b03198116811461166757600080fd5b9392505050565b60006020828403121561168057600080fd5b813567ffffffffffffffff81111561169757600080fd5b8201610200818503121561166757600080fd5b600080600080608085870312156116c057600080fd5b843593506020850135925060408501359150606085013563ffffffff811681146116e957600080fd5b939692955090935050565b60006020828403121561170657600080fd5b813567ffffffffffffffff81111561171d57600080fd5b8201610220818503121561166757600080fd5b6001600160a01b038116811461159057600080fd5b6000806040838503121561175857600080fd5b823561176381611730565b946020939093013593505050565b60006020828403121561178357600080fd5b5035919050565b60006020828403121561179c57600080fd5b813561166781611730565b6000602082840312156117b957600080fd5b813567ffffffffffffffff8111156117d057600080fd5b82016101e0818503121561166757600080fd5b6000815180845260005b81811015611809576020818501810151868301820152016117ed565b506000602082860101526020601f19601f83011685010191505092915050565b6000606085835260208181850152611843828501876117e3565b6040858203818701528187518084528484019150848160051b850101858a0160005b838110156118b557868303601f19018552815180516001600160a01b0316845288810151898501528601518684018a90526118a28a8501826117e3565b9589019593505090870190600101611865565b50909c9b505050505050505050505050565b6000602082840312156118d957600080fd5b813567ffffffffffffffff8111156118f057600080fd5b82016101a0818503121561166757600080fd5b600060608583526020818185015261191d828501876117e3565b6040858203818701528187518084528484019150848160051b850101858a0160005b838110156118b557868303601f19018552815180516001600160a01b0316845288810151898501528601518684018a905261197c8a8501826117e3565b958901959350509087019060010161193f565b6000602082840312156119a157600080fd5b815161166781611730565b634e487b7160e01b600052604160045260246000fd5b604051610240810167ffffffffffffffff811182821017156119e6576119e66119ac565b60405290565b604051610120810167ffffffffffffffff811182821017156119e6576119e66119ac565b604051601f8201601f1916810167ffffffffffffffff81118282101715611a3957611a396119ac565b604052919050565b60006020808385031215611a5457600080fd5b825167ffffffffffffffff80821115611a6c57600080fd5b818501915085601f830112611a8057600080fd5b815181811115611a9257611a926119ac565b8060051b9150611aa3848301611a10565b8181529183018401918481019088841115611abd57600080fd5b938501935b83851015611ae75784519250611ad783611730565b8282529385019390850190611ac2565b98975050505050505050565b634e487b7160e01b600052603260045260246000fd5b8051611b1481611730565b919050565b80518015158114611b1457600080fd5b600060608284031215611b3b57600080fd5b6040516060810181811067ffffffffffffffff82111715611b5e57611b5e6119ac565b604052905080611b6d83611b19565b8152611b7b60208401611b19565b6020820152611b8c60408401611b19565b60408201525092915050565b60006102808284031215611bab57600080fd5b611bb36119c2565b9050611bbf8383611b29565b8152606082015160208201526080820151604082015260a08201516060820152611beb60c08301611b19565b6080820152611bfc60e08301611b19565b60a0820152610100611c0f818401611b19565b60c0830152610120611c22818501611b19565b60e0840152610140611c35818601611b19565b838501526101609250611c49838601611b19565b828501526101809150611c5d828601611b19565b908401526101a0611c6f858201611b19565b838501526101c09250611c83838601611b19565b828501526101e09150611c97828601611b19565b90840152610200611ca9858201611b19565b838501526102209250611cbd838601611b19565b82850152611cce6102408601611b09565b818501525050610260830151818301525092915050565b6000808284036103a0811215611cfa57600080fd5b61012080821215611d0a57600080fd5b611d126119ec565b9150845182526020850151602083015260408501516040830152606085015160608301526080850151608083015260a085015160a083015260c085015160c0830152611d6060e08601611b09565b60e0830152610100808601518184015250819350611d8086828701611b98565b925050509250929050565b634e487b7160e01b600052601160045260246000fd5b808201808211156106db576106db611d8b565b600060208284031215611dc657600080fd5b61166782611b19565b600060808284031215611de157600080fd5b6040516080810181811067ffffffffffffffff82111715611e0457611e046119ac565b6040528235611e1281611730565b808252506020830135602082015260408301356040820152606083013560608201528091505092915050565b600063ffffffff808316818103611e5757611e57611d8b565b6001019392505050565b6000808335601e19843603018112611e7857600080fd5b83018035915067ffffffffffffffff821115611e9357600080fd5b602001915036819003821315611ea857600080fd5b9250929050565b600082611ecc57634e487b7160e01b600052601260045260246000fd5b500490565b80820281158282048414176106db576106db611d8b56fea2646970667358221220ecc0e1d1531b8df059c681e1a54f12cf428333dc49ceb5dd1c20ecf718c2b41a64736f6c63430008120033",
    "linkReferences": {}
  },
  "methodIdentifiers": {
    "controller()": "f77c4791",
    "creatorWithdraw(address,uint256)": "6b53f8ab",
    "cycleExpiryDate()": "72dcc67d",
    "cycleTarget()": "b12d0e7a",
    "depositRefundBonus(uint256)": "73d91df8",
    "didPay((address,uint256,uint256,(address,uint256,uint256,uint256),(address,uint256,uint256,uint256),uint256,address,bool,string,bytes,bytes))": "6b204943",
    "didRedeem((address,uint256,uint256,uint256,(address,uint256,uint256,uint256),(address,uint256,uint256,uint256),address,string,bytes,bytes))": "0bf46e59",
    "directory()": "c41c2f24",
    "earlyPledgerRefundBonus()": "06c3f8ab",
    "earlyRefundBonusCalc()": "acda2a06",
    "fundAccessConstraintsStore()": "a29a6814",
    "getBalance()": "12065fe0",
    "getCycleFundingStatus()": "dd63a549",
    "getEarlyPledgerStatus(address)": "959d1cab",
    "getPledgerAmount(address)": "f9314849",
    "hasCreatorWithdrawnAllFunds()": "5665c723",
    "initialize(uint256,uint256,uint256,uint32)": "5e6dafba",
    "isCycleExpired()": "78352ac5",
    "isTargetMet()": "52e44fa0",
    "maxEarlyPledgers()": "959328ba",
    "minimumPledgeAmount()": "decf1e64",
    "numEarlyPledgers()": "ddceec40",
    "owner()": "8da5cb5b",
    "payParams((address,address,(address,uint256,uint256,uint256),uint256,uint256,address,uint256,uint256,string,bytes))": "d46cf171",
    "paymentTerminal()": "1452438e",
    "paymentTerminalStore()": "6f10492f",
    "paymentToken()": "3013ce29",
    "projectConfiguration()": "d06bfb9d",
    "projectId()": "3fafa127",
    "redeemParams((address,address,uint256,uint256,uint256,uint256,uint256,(address,uint256,uint256,uint256),bool,uint256,string,bytes))": "a51cfd18",
    "relayCycleResults()": "32b235d0",
    "renounceOwnership()": "715018a6",
    "supportsInterface(bytes4)": "01ffc9a7",
    "totalAmountPledged()": "dacfd716",
    "totalRefundBonus()": "6ee4c5e8",
    "transferOwnership(address)": "f2fde38b"
  },
  "id": 107
}