{
  "abi": [
    {
      "inputs": [
        {
          "internalType": "contract IJBController3_1",
          "name": "_controller",
          "type": "address"
        },
        {
          "internalType": "contract IJBSingleTokenPaymentTerminalStore3_1_1",
          "name": "_paymentTerminalStore",
          "type": "address"
        }
      ],
      "stateMutability": "nonpayable",
      "type": "constructor"
    },
    {
      "inputs": [],
      "name": "AlreadyWithdrawnRefund",
      "type": "error"
    },
    {
      "inputs": [
        {
          "internalType": "uint256",
          "name": "minAmount",
          "type": "uint256"
        }
      ],
      "name": "AmountIsBelowMinimumPledge",
      "type": "error"
    },
    {
      "inputs": [],
      "name": "ContractAlreadyInitialized",
      "type": "error"
    },
    {
      "inputs": [],
      "name": "CycleHasExpired",
      "type": "error"
    },
    {
      "inputs": [
        {
          "internalType": "uint256",
          "name": "endTimestamp",
          "type": "uint256"
        }
      ],
      "name": "CycleHasNotEndedYet",
      "type": "error"
    },
    {
      "inputs": [],
      "name": "DataSourceNotInitialized",
      "type": "error"
    },
    {
      "inputs": [],
      "name": "FunctionCanOnlyBeCalledOnce",
      "type": "error"
    },
    {
      "inputs": [
        {
          "internalType": "uint256",
          "name": "input",
          "type": "uint256"
        }
      ],
      "name": "FundsMustMatchInputAmount",
      "type": "error"
    },
    {
      "inputs": [],
      "name": "InsufficientFunds",
      "type": "error"
    },
    {
      "inputs": [
        {
          "internalType": "address",
          "name": "caller",
          "type": "address"
        },
        {
          "internalType": "uint256",
          "name": "projectId",
          "type": "uint256"
        },
        {
          "internalType": "uint256",
          "name": "value",
          "type": "uint256"
        }
      ],
      "name": "InvalidPaymentEvent",
      "type": "error"
    },
    {
      "inputs": [
        {
          "internalType": "address",
          "name": "caller",
          "type": "address"
        },
        {
          "internalType": "uint256",
          "name": "projectId",
          "type": "uint256"
        },
        {
          "internalType": "uint256",
          "name": "value",
          "type": "uint256"
        }
      ],
      "name": "InvalidRedemptionEvent",
      "type": "error"
    },
    {
      "inputs": [
        {
          "internalType": "address",
          "name": "payer",
          "type": "address"
        }
      ],
      "name": "PAYER_NOT_ON_ALLOWLIST",
      "type": "error"
    },
    {
      "anonymous": false,
      "inputs": [
        {
          "indexed": true,
          "internalType": "bool",
          "name": "",
          "type": "bool"
        },
        {
          "indexed": true,
          "internalType": "bool",
          "name": "",
          "type": "bool"
        }
      ],
      "name": "CycleHasClosed",
      "type": "event"
    },
    {
      "anonymous": false,
      "inputs": [
        {
          "indexed": true,
          "internalType": "address",
          "name": "",
          "type": "address"
        },
        {
          "indexed": true,
          "internalType": "uint256",
          "name": "",
          "type": "uint256"
        }
      ],
      "name": "CycleRefundBonusWithdrawal",
      "type": "event"
    },
    {
      "anonymous": false,
      "inputs": [
        {
          "indexed": false,
          "internalType": "address",
          "name": "",
          "type": "address"
        },
        {
          "indexed": false,
          "internalType": "uint256",
          "name": "",
          "type": "uint256"
        }
      ],
      "name": "OwnerWithdrawal",
      "type": "event"
    },
    {
      "anonymous": false,
      "inputs": [
        {
          "indexed": true,
          "internalType": "address",
          "name": "previousOwner",
          "type": "address"
        },
        {
          "indexed": true,
          "internalType": "address",
          "name": "newOwner",
          "type": "address"
        }
      ],
      "name": "OwnershipTransferred",
      "type": "event"
    },
    {
      "anonymous": false,
      "inputs": [
        {
          "indexed": false,
          "internalType": "address",
          "name": "",
          "type": "address"
        },
        {
          "indexed": true,
          "internalType": "uint256",
          "name": "",
          "type": "uint256"
        }
      ],
      "name": "RefundBonusDeposited",
      "type": "event"
    },
    {
      "stateMutability": "payable",
      "type": "fallback"
    },
    {
      "inputs": [],
      "name": "controller",
      "outputs": [
        {
          "internalType": "contract IJBController3_1",
          "name": "",
          "type": "address"
        }
      ],
      "stateMutability": "view",
      "type": "function"
    },
    {
      "inputs": [
        {
          "internalType": "address payable",
          "name": "receivingAddress",
          "type": "address"
        },
        {
          "internalType": "uint256",
          "name": "amount",
          "type": "uint256"
        }
      ],
      "name": "creatorWithdraw",
      "outputs": [],
      "stateMutability": "payable",
      "type": "function"
    },
    {
      "inputs": [],
      "name": "cycleExpiryDate",
      "outputs": [
        {
          "internalType": "uint256",
          "name": "",
          "type": "uint256"
        }
      ],
      "stateMutability": "view",
      "type": "function"
    },
    {
      "inputs": [],
      "name": "cycleTarget",
      "outputs": [
        {
          "internalType": "uint256",
          "name": "",
          "type": "uint256"
        }
      ],
      "stateMutability": "view",
      "type": "function"
    },
    {
      "inputs": [
        {
          "internalType": "uint256",
          "name": "refundBonusAmount",
          "type": "uint256"
        }
      ],
      "name": "depositRefundBonus",
      "outputs": [],
      "stateMutability": "payable",
      "type": "function"
    },
    {
      "inputs": [
        {
          "components": [
            {
              "internalType": "address",
              "name": "payer",
              "type": "address"
            },
            {
              "internalType": "uint256",
              "name": "projectId",
              "type": "uint256"
            },
            {
              "internalType": "uint256",
              "name": "currentFundingCycleConfiguration",
              "type": "uint256"
            },
            {
              "components": [
                {
                  "internalType": "address",
                  "name": "token",
                  "type": "address"
                },
                {
                  "internalType": "uint256",
                  "name": "value",
                  "type": "uint256"
                },
                {
                  "internalType": "uint256",
                  "name": "decimals",
                  "type": "uint256"
                },
                {
                  "internalType": "uint256",
                  "name": "currency",
                  "type": "uint256"
                }
              ],
              "internalType": "struct JBTokenAmount",
              "name": "amount",
              "type": "tuple"
            },
            {
              "components": [
                {
                  "internalType": "address",
                  "name": "token",
                  "type": "address"
                },
                {
                  "internalType": "uint256",
                  "name": "value",
                  "type": "uint256"
                },
                {
                  "internalType": "uint256",
                  "name": "decimals",
                  "type": "uint256"
                },
                {
                  "internalType": "uint256",
                  "name": "currency",
                  "type": "uint256"
                }
              ],
              "internalType": "struct JBTokenAmount",
              "name": "forwardedAmount",
              "type": "tuple"
            },
            {
              "internalType": "uint256",
              "name": "projectTokenCount",
              "type": "uint256"
            },
            {
              "internalType": "address",
              "name": "beneficiary",
              "type": "address"
            },
            {
              "internalType": "bool",
              "name": "preferClaimedTokens",
              "type": "bool"
            },
            {
              "internalType": "string",
              "name": "memo",
              "type": "string"
            },
            {
              "internalType": "bytes",
              "name": "dataSourceMetadata",
              "type": "bytes"
            },
            {
              "internalType": "bytes",
              "name": "payerMetadata",
              "type": "bytes"
            }
          ],
          "internalType": "struct JBDidPayData3_1_1",
          "name": "_data",
          "type": "tuple"
        }
      ],
      "name": "didPay",
      "outputs": [],
      "stateMutability": "payable",
      "type": "function"
    },
    {
      "inputs": [
        {
          "components": [
            {
              "internalType": "address",
              "name": "holder",
              "type": "address"
            },
            {
              "internalType": "uint256",
              "name": "projectId",
              "type": "uint256"
            },
            {
              "internalType": "uint256",
              "name": "currentFundingCycleConfiguration",
              "type": "uint256"
            },
            {
              "internalType": "uint256",
              "name": "projectTokenCount",
              "type": "uint256"
            },
            {
              "components": [
                {
                  "internalType": "address",
                  "name": "token",
                  "type": "address"
                },
                {
                  "internalType": "uint256",
                  "name": "value",
                  "type": "uint256"
                },
                {
                  "internalType": "uint256",
                  "name": "decimals",
                  "type": "uint256"
                },
                {
                  "internalType": "uint256",
                  "name": "currency",
                  "type": "uint256"
                }
              ],
              "internalType": "struct JBTokenAmount",
              "name": "reclaimedAmount",
              "type": "tuple"
            },
            {
              "components": [
                {
                  "internalType": "address",
                  "name": "token",
                  "type": "address"
                },
                {
                  "internalType": "uint256",
                  "name": "value",
                  "type": "uint256"
                },
                {
                  "internalType": "uint256",
                  "name": "decimals",
                  "type": "uint256"
                },
                {
                  "internalType": "uint256",
                  "name": "currency",
                  "type": "uint256"
                }
              ],
              "internalType": "struct JBTokenAmount",
              "name": "forwardedAmount",
              "type": "tuple"
            },
            {
              "internalType": "address payable",
              "name": "beneficiary",
              "type": "address"
            },
            {
              "internalType": "string",
              "name": "memo",
              "type": "string"
            },
            {
              "internalType": "bytes",
              "name": "dataSourceMetadata",
              "type": "bytes"
            },
            {
              "internalType": "bytes",
              "name": "redeemerMetadata",
              "type": "bytes"
            }
          ],
          "internalType": "struct JBDidRedeemData3_1_1",
          "name": "_data",
          "type": "tuple"
        }
      ],
      "name": "didRedeem",
      "outputs": [],
      "stateMutability": "payable",
      "type": "function"
    },
    {
      "inputs": [],
      "name": "directory",
      "outputs": [
        {
          "internalType": "contract IJBDirectory",
          "name": "",
          "type": "address"
        }
      ],
      "stateMutability": "view",
      "type": "function"
    },
    {
      "inputs": [],
      "name": "earlyPledgerRefundBonus",
      "outputs": [
        {
          "internalType": "uint256",
          "name": "",
          "type": "uint256"
        }
      ],
      "stateMutability": "view",
      "type": "function"
    },
    {
      "inputs": [],
      "name": "earlyRefundBonusCalc",
      "outputs": [
        {
          "internalType": "uint256",
          "name": "",
          "type": "uint256"
        }
      ],
      "stateMutability": "view",
      "type": "function"
    },
    {
      "inputs": [],
      "name": "fundAccessConstraintsStore",
      "outputs": [
        {
          "internalType": "contract IJBFundAccessConstraintsStore",
          "name": "",
          "type": "address"
        }
      ],
      "stateMutability": "view",
      "type": "function"
    },
    {
      "inputs": [],
      "name": "fundingCycleStore",
      "outputs": [
        {
          "internalType": "contract IJBFundingCycleStore",
          "name": "",
          "type": "address"
        }
      ],
      "stateMutability": "view",
      "type": "function"
    },
    {
      "inputs": [],
      "name": "getBalance",
      "outputs": [
        {
          "internalType": "uint256",
          "name": "",
          "type": "uint256"
        }
      ],
      "stateMutability": "view",
      "type": "function"
    },
    {
      "inputs": [],
      "name": "getCycleFundingStatus",
      "outputs": [
        {
          "internalType": "uint256",
          "name": "",
          "type": "uint256"
        },
        {
          "internalType": "uint256",
          "name": "",
          "type": "uint256"
        },
        {
          "internalType": "bool",
          "name": "",
          "type": "bool"
        },
        {
          "internalType": "bool",
          "name": "",
          "type": "bool"
        }
      ],
      "stateMutability": "view",
      "type": "function"
    },
    {
      "inputs": [
        {
          "internalType": "address",
          "name": "addy",
          "type": "address"
        }
      ],
      "name": "getEarlyPledgerStatus",
      "outputs": [
        {
          "internalType": "bool",
          "name": "",
          "type": "bool"
        }
      ],
      "stateMutability": "view",
      "type": "function"
    },
    {
      "inputs": [
        {
          "internalType": "address",
          "name": "_address",
          "type": "address"
        }
      ],
      "name": "getPledgerAmount",
      "outputs": [
        {
          "internalType": "uint256",
          "name": "",
          "type": "uint256"
        }
      ],
      "stateMutability": "view",
      "type": "function"
    },
    {
      "inputs": [],
      "name": "hasCreatorWithdrawnAllFunds",
      "outputs": [
        {
          "internalType": "bool",
          "name": "",
          "type": "bool"
        }
      ],
      "stateMutability": "view",
      "type": "function"
    },
    {
      "inputs": [
        {
          "internalType": "uint256",
          "name": "_projectId",
          "type": "uint256"
        },
        {
          "internalType": "uint256",
          "name": "_cycleTarget",
          "type": "uint256"
        },
        {
          "internalType": "uint256",
          "name": "_minimumPledgeAmount",
          "type": "uint256"
        },
        {
          "internalType": "uint32",
          "name": "_maxEarlyPledgers",
          "type": "uint32"
        }
      ],
      "name": "initialize",
      "outputs": [],
      "stateMutability": "nonpayable",
      "type": "function"
    },
    {
      "inputs": [],
      "name": "isCycleExpired",
      "outputs": [
        {
          "internalType": "bool",
          "name": "",
          "type": "bool"
        }
      ],
      "stateMutability": "view",
      "type": "function"
    },
    {
      "inputs": [],
      "name": "isTargetMet",
      "outputs": [
        {
          "internalType": "bool",
          "name": "",
          "type": "bool"
        }
      ],
      "stateMutability": "view",
      "type": "function"
    },
    {
      "inputs": [],
      "name": "maxEarlyPledgers",
      "outputs": [
        {
          "internalType": "uint32",
          "name": "",
          "type": "uint32"
        }
      ],
      "stateMutability": "view",
      "type": "function"
    },
    {
      "inputs": [],
      "name": "minimumPledgeAmount",
      "outputs": [
        {
          "internalType": "uint256",
          "name": "",
          "type": "uint256"
        }
      ],
      "stateMutability": "view",
      "type": "function"
    },
    {
      "inputs": [],
      "name": "numEarlyPledgers",
      "outputs": [
        {
          "internalType": "uint32",
          "name": "",
          "type": "uint32"
        }
      ],
      "stateMutability": "view",
      "type": "function"
    },
    {
      "inputs": [],
      "name": "owner",
      "outputs": [
        {
          "internalType": "address",
          "name": "",
          "type": "address"
        }
      ],
      "stateMutability": "view",
      "type": "function"
    },
    {
      "inputs": [
        {
          "components": [
            {
              "internalType": "contract IJBPaymentTerminal",
              "name": "terminal",
              "type": "address"
            },
            {
              "internalType": "address",
              "name": "payer",
              "type": "address"
            },
            {
              "components": [
                {
                  "internalType": "address",
                  "name": "token",
                  "type": "address"
                },
                {
                  "internalType": "uint256",
                  "name": "value",
                  "type": "uint256"
                },
                {
                  "internalType": "uint256",
                  "name": "decimals",
                  "type": "uint256"
                },
                {
                  "internalType": "uint256",
                  "name": "currency",
                  "type": "uint256"
                }
              ],
              "internalType": "struct JBTokenAmount",
              "name": "amount",
              "type": "tuple"
            },
            {
              "internalType": "uint256",
              "name": "projectId",
              "type": "uint256"
            },
            {
              "internalType": "uint256",
              "name": "currentFundingCycleConfiguration",
              "type": "uint256"
            },
            {
              "internalType": "address",
              "name": "beneficiary",
              "type": "address"
            },
            {
              "internalType": "uint256",
              "name": "weight",
              "type": "uint256"
            },
            {
              "internalType": "uint256",
              "name": "reservedRate",
              "type": "uint256"
            },
            {
              "internalType": "string",
              "name": "memo",
              "type": "string"
            },
            {
              "internalType": "bytes",
              "name": "metadata",
              "type": "bytes"
            }
          ],
          "internalType": "struct JBPayParamsData",
          "name": "_data",
          "type": "tuple"
        }
      ],
      "name": "payParams",
      "outputs": [
        {
          "internalType": "uint256",
          "name": "weight",
          "type": "uint256"
        },
        {
          "internalType": "string",
          "name": "memo",
          "type": "string"
        },
        {
          "components": [
            {
              "internalType": "contract IJBPayDelegate3_1_1",
              "name": "delegate",
              "type": "address"
            },
            {
              "internalType": "uint256",
              "name": "amount",
              "type": "uint256"
            },
            {
              "internalType": "bytes",
              "name": "metadata",
              "type": "bytes"
            }
          ],
          "internalType": "struct JBPayDelegateAllocation3_1_1[]",
          "name": "delegateAllocations",
          "type": "tuple[]"
        }
      ],
      "stateMutability": "nonpayable",
      "type": "function"
    },
    {
      "inputs": [],
      "name": "paymentTerminal",
      "outputs": [
        {
          "internalType": "contract IJBSingleTokenPaymentTerminal",
          "name": "",
          "type": "address"
        }
      ],
      "stateMutability": "view",
      "type": "function"
    },
    {
      "inputs": [],
      "name": "paymentTerminalStore",
      "outputs": [
        {
          "internalType": "contract IJBSingleTokenPaymentTerminalStore3_1_1",
          "name": "",
          "type": "address"
        }
      ],
      "stateMutability": "view",
      "type": "function"
    },
    {
      "inputs": [],
      "name": "paymentToken",
      "outputs": [
        {
          "internalType": "address",
          "name": "",
          "type": "address"
        }
      ],
      "stateMutability": "view",
      "type": "function"
    },
    {
      "inputs": [],
      "name": "projectConfiguration",
      "outputs": [
        {
          "internalType": "uint256",
          "name": "",
          "type": "uint256"
        }
      ],
      "stateMutability": "view",
      "type": "function"
    },
    {
      "inputs": [],
      "name": "projectId",
      "outputs": [
        {
          "internalType": "uint256",
          "name": "",
          "type": "uint256"
        }
      ],
      "stateMutability": "view",
      "type": "function"
    },
    {
      "inputs": [
        {
          "components": [
            {
              "internalType": "contract IJBPaymentTerminal",
              "name": "terminal",
              "type": "address"
            },
            {
              "internalType": "address",
              "name": "holder",
              "type": "address"
            },
            {
              "internalType": "uint256",
              "name": "projectId",
              "type": "uint256"
            },
            {
              "internalType": "uint256",
              "name": "currentFundingCycleConfiguration",
              "type": "uint256"
            },
            {
              "internalType": "uint256",
              "name": "tokenCount",
              "type": "uint256"
            },
            {
              "internalType": "uint256",
              "name": "totalSupply",
              "type": "uint256"
            },
            {
              "internalType": "uint256",
              "name": "overflow",
              "type": "uint256"
            },
            {
              "components": [
                {
                  "internalType": "address",
                  "name": "token",
                  "type": "address"
                },
                {
                  "internalType": "uint256",
                  "name": "value",
                  "type": "uint256"
                },
                {
                  "internalType": "uint256",
                  "name": "decimals",
                  "type": "uint256"
                },
                {
                  "internalType": "uint256",
                  "name": "currency",
                  "type": "uint256"
                }
              ],
              "internalType": "struct JBTokenAmount",
              "name": "reclaimAmount",
              "type": "tuple"
            },
            {
              "internalType": "bool",
              "name": "useTotalOverflow",
              "type": "bool"
            },
            {
              "internalType": "uint256",
              "name": "redemptionRate",
              "type": "uint256"
            },
            {
              "internalType": "string",
              "name": "memo",
              "type": "string"
            },
            {
              "internalType": "bytes",
              "name": "metadata",
              "type": "bytes"
            }
          ],
          "internalType": "struct JBRedeemParamsData",
          "name": "_data",
          "type": "tuple"
        }
      ],
      "name": "redeemParams",
      "outputs": [
        {
          "internalType": "uint256",
          "name": "reclaimAmount",
          "type": "uint256"
        },
        {
          "internalType": "string",
          "name": "memo",
          "type": "string"
        },
        {
          "components": [
            {
              "internalType": "contract IJBRedemptionDelegate3_1_1",
              "name": "delegate",
              "type": "address"
            },
            {
              "internalType": "uint256",
              "name": "amount",
              "type": "uint256"
            },
            {
              "internalType": "bytes",
              "name": "metadata",
              "type": "bytes"
            }
          ],
          "internalType": "struct JBRedemptionDelegateAllocation3_1_1[]",
          "name": "delegateAllocations",
          "type": "tuple[]"
        }
      ],
      "stateMutability": "view",
      "type": "function"
    },
    {
      "inputs": [],
      "name": "relayCycleResults",
      "outputs": [],
      "stateMutability": "nonpayable",
      "type": "function"
    },
    {
      "inputs": [],
      "name": "renounceOwnership",
      "outputs": [],
      "stateMutability": "nonpayable",
      "type": "function"
    },
    {
      "inputs": [
        {
          "internalType": "bytes4",
          "name": "_interfaceId",
          "type": "bytes4"
        }
      ],
      "name": "supportsInterface",
      "outputs": [
        {
          "internalType": "bool",
          "name": "",
          "type": "bool"
        }
      ],
      "stateMutability": "view",
      "type": "function"
    },
    {
      "inputs": [],
      "name": "totalAmountPledged",
      "outputs": [
        {
          "internalType": "uint256",
          "name": "",
          "type": "uint256"
        }
      ],
      "stateMutability": "view",
      "type": "function"
    },
    {
      "inputs": [],
      "name": "totalRefundBonus",
      "outputs": [
        {
          "internalType": "uint256",
          "name": "",
          "type": "uint256"
        }
      ],
      "stateMutability": "view",
      "type": "function"
    },
    {
      "inputs": [
        {
          "internalType": "address",
          "name": "newOwner",
          "type": "address"
        }
      ],
      "name": "transferOwnership",
      "outputs": [],
      "stateMutability": "nonpayable",
      "type": "function"
    },
    {
      "stateMutability": "payable",
      "type": "receive"
    }
  ],
  "bytecode": {
    "object": "0x60806040526010805466ffffffffffffff60201b191690553480156200002457600080fd5b5060405162002025380380620020258339810160408190526200004791620000ed565b620000523362000084565b600180546001600160a01b039384166001600160a01b031991821617909155600680549290931691161790556200012c565b600080546001600160a01b038381166001600160a01b0319831681178455604051919092169283917f8be0079c531659141344cd1fd0a4f28419497f9722a3daafe3b4186f6b6457e09190a35050565b6001600160a01b0381168114620000ea57600080fd5b50565b600080604083850312156200010157600080fd5b82516200010e81620000d4565b60208401519092506200012181620000d4565b809150509250929050565b611ee9806200013c6000396000f3fe6080604052600436106102065760003560e01c806373d91df811610117578063c41c2f24116100a5578063ddceec401161006c578063ddceec4014610609578063decf1e641461062e578063f2fde38b14610644578063f77c479114610664578063f93148491461068457005b8063c41c2f2414610551578063d06bfb9d14610571578063d46cf17114610587578063dacfd716146105b6578063dd63a549146105cc57005b8063959d1cab116100e9578063959d1cab1461049e578063a29a6814146104d7578063a51cfd18146104f7578063acda2a0614610526578063b12d0e7a1461053b57005b806373d91df81461041a57806378352ac51461042d5780638da5cb5b1461044e578063959328ba1461046c57005b8063557e7155116101945780636b53f8ab116101665780636b53f8ab146103a65780636ee4c5e8146103b95780636f10492f146103cf578063715018a6146103ef57806372dcc67d1461040457005b8063557e7155146103325780635665c723146103525780635e6dafba146103735780636b2049431461039357005b80631452438e116101d85780631452438e1461028e5780633013ce29146102c657806332b235d0146102e65780633fafa127146102fb57806352e44fa01461031157005b806301ffc9a71461020f57806306c3f8ab146102445780630bf46e591461026857806312065fe01461027b57005b3661020d57005b005b34801561021b57600080fd5b5061022f61022a366004611608565b6106ba565b60405190151581526020015b60405180910390f35b34801561025057600080fd5b5061025a600c5481565b60405190815260200161023b565b61020d610276366004611639565b61070c565b34801561028757600080fd5b504761025a565b34801561029a57600080fd5b506005546102ae906001600160a01b031681565b6040516001600160a01b03909116815260200161023b565b3480156102d257600080fd5b506009546102ae906001600160a01b031681565b3480156102f257600080fd5b5061020d6108e3565b34801561030757600080fd5b5061025a60075481565b34801561031d57600080fd5b5060105461022f90600160481b900460ff1681565b34801561033e57600080fd5b506004546102ae906001600160a01b031681565b34801561035e57600080fd5b5060105461022f90600160501b900460ff1681565b34801561037f57600080fd5b5061020d61038e366004611675565b6109bf565b61020d6103a13660046116bf565b610ccf565b61020d6103b4366004611710565b610efc565b3480156103c557600080fd5b5061025a600e5481565b3480156103db57600080fd5b506006546102ae906001600160a01b031681565b3480156103fb57600080fd5b5061020d6110c9565b34801561041057600080fd5b5061025a600a5481565b61020d61042836600461173c565b6110dd565b34801561043957600080fd5b5060105461022f90600160401b900460ff1681565b34801561045a57600080fd5b506000546001600160a01b03166102ae565b34801561047857600080fd5b506010546104899063ffffffff1681565b60405163ffffffff909116815260200161023b565b3480156104aa57600080fd5b5061022f6104b9366004611755565b6001600160a01b031660009081526011602052604090205460ff1690565b3480156104e357600080fd5b506003546102ae906001600160a01b031681565b34801561050357600080fd5b50610517610512366004611772565b611168565b60405161023b939291906117f4565b34801561053257600080fd5b5061025a6112f4565b34801561054757600080fd5b5061025a600b5481565b34801561055d57600080fd5b506002546102ae906001600160a01b031681565b34801561057d57600080fd5b5061025a60085481565b34801561059357600080fd5b506105a76105a2366004611892565b611347565b60405161023b939291906118ce565b3480156105c257600080fd5b5061025a600f5481565b3480156105d857600080fd5b506105e1611499565b604080519485526020850193909352901515918301919091521515606082015260800161023b565b34801561061557600080fd5b5060105461048990640100000000900463ffffffff1681565b34801561063a57600080fd5b5061025a600d5481565b34801561065057600080fd5b5061020d61065f366004611755565b6114e5565b34801561067057600080fd5b506001546102ae906001600160a01b031681565b34801561069057600080fd5b5061025a61069f366004611755565b6001600160a01b031660009081526012602052604090205490565b60006001600160e01b031982166371700c6960e01b14806106eb57506001600160e01b03198216636b20494360e01b145b8061070657506001600160e01b03198216630bf46e5960e01b145b92915050565b600061071b6020830183611755565b601054909150600160401b900460ff16151560011461075c57600a5460405163191bf19b60e31b815260040161075391815260200190565b60405180910390fd5b6001600160a01b03811660009081526013602052604090205460ff16151560010361079a57604051631a387d0f60e11b815260040160405180910390fd5b6001600160a01b03811660009081526011602052604090205460ff1615156001036108df576107c76112f4565b600c8190554710156107ec5760405163356680b760e01b815260040160405180910390fd5b6001600160a01b038116600081815260136020526040808220805460ff19166001179055600c5490519192918381818185875af1925050503d8060008114610850576040519150601f19603f3d011682016040523d82523d6000602084013e610855565b606091505b50509050806108a65760405162461bcd60e51b815260206004820152601c60248201527f4661696c656420746f2073656e6420726566756e6420626f6e75732e000000006044820152606401610753565b600c546040516001600160a01b038416907f14397048c67a716290cdab60d1e0da191355e7efd4cfde59953d466d6214682290600090a3505b5050565b601054600160401b900460ff16151560010361091257604051637c3555fb60e01b815260040160405180910390fd5b600a5442101561093b57600a5460405163191bf19b60e31b815260040161075391815260200190565b6010805468ff00000000000000001916600160401b179055600b54600f5410610978576010805469ff0000000000000000001916600160481b1790555b60105460405160ff600160481b83048116151592600160401b9004161515907f851b4e23988109dccdf7cdcc642bbbaf41b8191fa20f5bc0c0a641052f1bd65a90600090a3565b6109c761155e565b600754156109e857604051631ee1e30360e21b815260040160405180910390fd5b6007849055600154604080516331070bc960e21b815290516001600160a01b039092169163c41c2f24916004808201926020929091908290030181865afa158015610a37573d6000803e3d6000fd5b505050506040513d601f19601f82011682018060405250810190610a5b919061195a565b600280546001600160a01b0319166001600160a01b03928316179055600154604080516328a69a0560e21b81529051919092169163a29a68149160048083019260209291908290030181865afa158015610ab9573d6000803e3d6000fd5b505050506040513d601f19601f82011682018060405250810190610add919061195a565b600380546001600160a01b0319166001600160a01b0392831617905560025460075460405163d175415360e01b81526004810191909152600092919091169063d175415390602401600060405180830381865afa158015610b42573d6000803e3d6000fd5b505050506040513d6000823e601f3d908101601f19168201604052610b6a9190810190611a0c565b600081518110610b7c57610b7c611abe565b602090810291909101810151600580546001600160a01b0319166001600160a01b03831690811790915560408051637e062a3560e11b81529051929450909263fc0c546a926004808401938290030181865afa158015610be0573d6000803e3d6000fd5b505050506040513d601f19601f82011682018060405250810190610c04919061195a565b600980546001600160a01b0319166001600160a01b03928316179055600154600754604051638776c49960e01b815260048101919091526000929190911690638776c499906024016103a060405180830381865afa158015610c6a573d6000803e3d6000fd5b505050506040513d601f19601f82011682018060405250810190610c8e9190611cb0565b50905080608001518160600151610ca59190611d6c565b600a555050600b92909255600d556010805463ffffffff191663ffffffff90921691909117905550565b34151580610d515750600254600754604051636e49181f60e01b815260048101919091523360248201526001600160a01b0390911690636e49181f90604401602060405180830381865afa158015610d2b573d6000803e3d6000fd5b505050506040513d601f19601f82011682018060405250810190610d4f9190611d7f565b155b80610d625750600754816020013514155b15610d9257604051631705154f60e31b815233600482015260208201356024820152346044820152606401610753565b600a544210610db457604051631436910f60e31b815260040160405180910390fd5b6000610dc36020830183611755565b90506000610dd936849003840160608501611d9a565b6020808201516001600160a01b038516600090815260119092526040909120549192509060ff16158015610e1f575060105463ffffffff80821664010000000090920416105b15610ede576001600160a01b0383166000908152601160205260409020805460ff191660011790556010805463ffffffff64010000000090910416906004610e6683611e09565b91906101000a81548163ffffffff021916908363ffffffff160217905550508060126000856001600160a01b03166001600160a01b031681526020019081526020016000206000828254610eba9190611d6c565b9250508190555080600f6000828254610ed39190611d6c565b90915550610ef69050565b80600f6000828254610ef09190611d6c565b90915550505b50505050565b610f0461155e565b601054600160401b900460ff1615156001148015610f305750601054600160481b900460ff1615156001145b610fa25760405162461bcd60e51b815260206004820152603b60248201527f4379636c65206d757374206265206578706972656420616e642073756363657360448201527f7366756c20746f2063616c6c20746869732066756e6374696f6e2e00000000006064820152608401610753565b47811115610fc35760405163356680b760e01b815260040160405180910390fd5b6000826001600160a01b03168260405160006040518083038185875af1925050503d8060008114611010576040519150601f19603f3d011682016040523d82523d6000602084013e611015565b606091505b50509050806110665760405162461bcd60e51b815260206004820152601f60248201527f4661696c656420746f207769746864726177206379636c652066756e64732e006044820152606401610753565b604080516001600160a01b0385168152602081018490527fa919fadcfa556a012bab31b15f596ea7ccd397adbf10e15f176db9055ab361c4910160405180910390a1476000036110c4576010805460ff60501b1916600160501b1790555b505050565b6110d161155e565b6110db60006115b8565b565b6110e561155e565b60075460000361110857604051630d6ad97f60e41b815260040160405180910390fd5b80341461112b576040516336d921ad60e21b815260048101829052602401610753565b600e81905560405133815281907f2a160df64fcb5d6c3f8843bb5c61c9ec3d5784979466a25cdc2d38a009a0fc399060200160405180910390a250565b60006060808261117e6040860160208701611755565b601054909150600160401b900460ff1615156001146111b657600a5460405163191bf19b60e31b815260040161075391815260200190565b6001600160a01b03811660009081526013602052604090205460ff1615156001036111f457604051631a387d0f60e11b815260040160405180910390fd5b610100850135935061120a6101a0860186611e2c565b8080601f0160208091040260200160405190810160405280939291908181526020018383808284376000920191909152509295506001925061124a915050565b60405190808252806020026020018201604052801561129757816020015b604080516060808201835260008083526020830152918101919091528152602001906001900390816112685790505b5091506040518060600160405280306001600160a01b031681526020016000815260200160405180602001604052806000815250815250826000815181106112e1576112e1611abe565b6020026020010181905250509193909250565b601054600090819063ffffffff80821664010000000090920416101561132a57601054640100000000900463ffffffff16611334565b60105463ffffffff165b63ffffffff16600e546107069190611e7a565b60006060804760000361136d57604051630d6ad97f60e41b815260040160405180910390fd5b600d546060850135101561139a57600d546040516337e6f47560e01b815260040161075391815260200190565b61012084013592506113b0610160850185611e2c565b8080601f016020809104026020016040519081016040528093929190818152602001838380828437600092019190915250929450600192506113f0915050565b60405190808252806020026020018201604052801561143d57816020015b6040805160608082018352600080835260208301529181019190915281526020019060019003908161140e5790505b5090506040518060600160405280306001600160a01b0316815260200160008152602001604051806020016040528060008152508152508160008151811061148757611487611abe565b60200260200101819052509193909250565b6000806000806000600b54600f5460646114b39190611e9c565b6114bd9190611e7a565b600f54601054909791965060ff600160481b820481169650600160501b909104169350915050565b6114ed61155e565b6001600160a01b0381166115525760405162461bcd60e51b815260206004820152602660248201527f4f776e61626c653a206e6577206f776e657220697320746865207a65726f206160448201526564647265737360d01b6064820152608401610753565b61155b816115b8565b50565b6000546001600160a01b031633146110db5760405162461bcd60e51b815260206004820181905260248201527f4f776e61626c653a2063616c6c6572206973206e6f7420746865206f776e65726044820152606401610753565b600080546001600160a01b038381166001600160a01b0319831681178455604051919092169283917f8be0079c531659141344cd1fd0a4f28419497f9722a3daafe3b4186f6b6457e09190a35050565b60006020828403121561161a57600080fd5b81356001600160e01b03198116811461163257600080fd5b9392505050565b60006020828403121561164b57600080fd5b813567ffffffffffffffff81111561166257600080fd5b8201610200818503121561163257600080fd5b6000806000806080858703121561168b57600080fd5b843593506020850135925060408501359150606085013563ffffffff811681146116b457600080fd5b939692955090935050565b6000602082840312156116d157600080fd5b813567ffffffffffffffff8111156116e857600080fd5b8201610220818503121561163257600080fd5b6001600160a01b038116811461155b57600080fd5b6000806040838503121561172357600080fd5b823561172e816116fb565b946020939093013593505050565b60006020828403121561174e57600080fd5b5035919050565b60006020828403121561176757600080fd5b8135611632816116fb565b60006020828403121561178457600080fd5b813567ffffffffffffffff81111561179b57600080fd5b82016101e0818503121561163257600080fd5b6000815180845260005b818110156117d4576020818501810151868301820152016117b8565b506000602082860101526020601f19601f83011685010191505092915050565b600060608583526020818185015261180e828501876117ae565b6040858203818701528187518084528484019150848160051b850101858a0160005b8381101561188057868303601f19018552815180516001600160a01b0316845288810151898501528601518684018a905261186d8a8501826117ae565b9589019593505090870190600101611830565b50909c9b505050505050505050505050565b6000602082840312156118a457600080fd5b813567ffffffffffffffff8111156118bb57600080fd5b82016101a0818503121561163257600080fd5b60006060858352602081818501526118e8828501876117ae565b6040858203818701528187518084528484019150848160051b850101858a0160005b8381101561188057868303601f19018552815180516001600160a01b0316845288810151898501528601518684018a90526119478a8501826117ae565b958901959350509087019060010161190a565b60006020828403121561196c57600080fd5b8151611632816116fb565b634e487b7160e01b600052604160045260246000fd5b604051610240810167ffffffffffffffff811182821017156119b1576119b1611977565b60405290565b604051610120810167ffffffffffffffff811182821017156119b1576119b1611977565b604051601f8201601f1916810167ffffffffffffffff81118282101715611a0457611a04611977565b604052919050565b60006020808385031215611a1f57600080fd5b825167ffffffffffffffff80821115611a3757600080fd5b818501915085601f830112611a4b57600080fd5b815181811115611a5d57611a5d611977565b8060051b9150611a6e8483016119db565b8181529183018401918481019088841115611a8857600080fd5b938501935b83851015611ab25784519250611aa2836116fb565b8282529385019390850190611a8d565b98975050505050505050565b634e487b7160e01b600052603260045260246000fd5b8051611adf816116fb565b919050565b80518015158114611adf57600080fd5b600060608284031215611b0657600080fd5b6040516060810181811067ffffffffffffffff82111715611b2957611b29611977565b604052905080611b3883611ae4565b8152611b4660208401611ae4565b6020820152611b5760408401611ae4565b60408201525092915050565b60006102808284031215611b7657600080fd5b611b7e61198d565b9050611b8a8383611af4565b8152606082015160208201526080820151604082015260a08201516060820152611bb660c08301611ae4565b6080820152611bc760e08301611ae4565b60a0820152610100611bda818401611ae4565b60c0830152610120611bed818501611ae4565b60e0840152610140611c00818601611ae4565b838501526101609250611c14838601611ae4565b828501526101809150611c28828601611ae4565b908401526101a0611c3a858201611ae4565b838501526101c09250611c4e838601611ae4565b828501526101e09150611c62828601611ae4565b90840152610200611c74858201611ae4565b838501526102209250611c88838601611ae4565b82850152611c996102408601611ad4565b818501525050610260830151818301525092915050565b6000808284036103a0811215611cc557600080fd5b61012080821215611cd557600080fd5b611cdd6119b7565b9150845182526020850151602083015260408501516040830152606085015160608301526080850151608083015260a085015160a083015260c085015160c0830152611d2b60e08601611ad4565b60e0830152610100808601518184015250819350611d4b86828701611b63565b925050509250929050565b634e487b7160e01b600052601160045260246000fd5b8082018082111561070657610706611d56565b600060208284031215611d9157600080fd5b61163282611ae4565b600060808284031215611dac57600080fd5b6040516080810181811067ffffffffffffffff82111715611dcf57611dcf611977565b6040528235611ddd816116fb565b808252506020830135602082015260408301356040820152606083013560608201528091505092915050565b600063ffffffff808316818103611e2257611e22611d56565b6001019392505050565b6000808335601e19843603018112611e4357600080fd5b83018035915067ffffffffffffffff821115611e5e57600080fd5b602001915036819003821315611e7357600080fd5b9250929050565b600082611e9757634e487b7160e01b600052601260045260246000fd5b500490565b808202811582820484141761070657610706611d5656fea26469706673582212203d9b5c144f7abf5da5f30f5e2cfd1cf16b486625d2dcbb8fc71cdcf8170ca65d64736f6c63430008120033",
    "linkReferences": {}
  },
  "methodIdentifiers": {
    "controller()": "f77c4791",
    "creatorWithdraw(address,uint256)": "6b53f8ab",
    "cycleExpiryDate()": "72dcc67d",
    "cycleTarget()": "b12d0e7a",
    "depositRefundBonus(uint256)": "73d91df8",
    "didPay((address,uint256,uint256,(address,uint256,uint256,uint256),(address,uint256,uint256,uint256),uint256,address,bool,string,bytes,bytes))": "6b204943",
    "didRedeem((address,uint256,uint256,uint256,(address,uint256,uint256,uint256),(address,uint256,uint256,uint256),address,string,bytes,bytes))": "0bf46e59",
    "directory()": "c41c2f24",
    "earlyPledgerRefundBonus()": "06c3f8ab",
    "earlyRefundBonusCalc()": "acda2a06",
    "fundAccessConstraintsStore()": "a29a6814",
    "fundingCycleStore()": "557e7155",
    "getBalance()": "12065fe0",
    "getCycleFundingStatus()": "dd63a549",
    "getEarlyPledgerStatus(address)": "959d1cab",
    "getPledgerAmount(address)": "f9314849",
    "hasCreatorWithdrawnAllFunds()": "5665c723",
    "initialize(uint256,uint256,uint256,uint32)": "5e6dafba",
    "isCycleExpired()": "78352ac5",
    "isTargetMet()": "52e44fa0",
    "maxEarlyPledgers()": "959328ba",
    "minimumPledgeAmount()": "decf1e64",
    "numEarlyPledgers()": "ddceec40",
    "owner()": "8da5cb5b",
    "payParams((address,address,(address,uint256,uint256,uint256),uint256,uint256,address,uint256,uint256,string,bytes))": "d46cf171",
    "paymentTerminal()": "1452438e",
    "paymentTerminalStore()": "6f10492f",
    "paymentToken()": "3013ce29",
    "projectConfiguration()": "d06bfb9d",
    "projectId()": "3fafa127",
    "redeemParams((address,address,uint256,uint256,uint256,uint256,uint256,(address,uint256,uint256,uint256),bool,uint256,string,bytes))": "a51cfd18",
    "relayCycleResults()": "32b235d0",
    "renounceOwnership()": "715018a6",
    "supportsInterface(bytes4)": "01ffc9a7",
    "totalAmountPledged()": "dacfd716",
    "totalRefundBonus()": "6ee4c5e8",
    "transferOwnership(address)": "f2fde38b"
  },
  "id": 100
}