{
  "abi": [
    {
      "inputs": [
        {
          "internalType": "contract MyDelegateDeployer",
          "name": "_delegateDeployer",
          "type": "address"
        },
        {
          "internalType": "contract IJBController3_1",
          "name": "_controller",
          "type": "address"
        },
        {
          "internalType": "contract IJBOperatorStore",
          "name": "_operatorStore",
          "type": "address"
        },
        {
          "internalType": "contract IJBSingleTokenPaymentTerminalStore3_1_1",
          "name": "_paymentTerminalStore",
          "type": "address"
        },
        {
          "internalType": "contract JBETHPaymentTerminal3_1_1",
          "name": "_paymentTerminal",
          "type": "address"
        }
      ],
      "stateMutability": "nonpayable",
      "type": "constructor"
    },
    {
      "inputs": [],
      "name": "UNAUTHORIZED",
      "type": "error"
    },
    {
      "inputs": [],
      "name": "_delegate",
      "outputs": [
        {
          "internalType": "contract DominantJuice",
          "name": "",
          "type": "address"
        }
      ],
      "stateMutability": "view",
      "type": "function"
    },
    {
      "inputs": [],
      "name": "controller",
      "outputs": [
        {
          "internalType": "contract IJBController3_1",
          "name": "",
          "type": "address"
        }
      ],
      "stateMutability": "view",
      "type": "function"
    },
    {
      "inputs": [],
      "name": "delegateDeployer",
      "outputs": [
        {
          "internalType": "contract MyDelegateDeployer",
          "name": "",
          "type": "address"
        }
      ],
      "stateMutability": "view",
      "type": "function"
    },
    {
      "inputs": [
        {
          "internalType": "address",
          "name": "_owner",
          "type": "address"
        },
        {
          "internalType": "string",
          "name": "_ipfsCID",
          "type": "string"
        },
        {
          "internalType": "uint256",
          "name": "_cycleTarget",
          "type": "uint256"
        },
        {
          "internalType": "uint256",
          "name": "_startTime",
          "type": "uint256"
        },
        {
          "internalType": "uint256",
          "name": "_duration",
          "type": "uint256"
        },
        {
          "internalType": "uint256",
          "name": "_minimumPledgeAmount",
          "type": "uint256"
        },
        {
          "internalType": "uint32",
          "name": "_maxEarlyPledgers",
          "type": "uint32"
        }
      ],
      "name": "launchProjectFor",
      "outputs": [
        {
          "internalType": "uint256",
          "name": "_projectID",
          "type": "uint256"
        }
      ],
      "stateMutability": "nonpayable",
      "type": "function"
    },
    {
      "inputs": [],
      "name": "operatorStore",
      "outputs": [
        {
          "internalType": "contract IJBOperatorStore",
          "name": "",
          "type": "address"
        }
      ],
      "stateMutability": "view",
      "type": "function"
    },
    {
      "inputs": [],
      "name": "paymentTerminal",
      "outputs": [
        {
          "internalType": "contract JBETHPaymentTerminal3_1_1",
          "name": "",
          "type": "address"
        }
      ],
      "stateMutability": "view",
      "type": "function"
    },
    {
      "inputs": [],
      "name": "paymentTerminalStore",
      "outputs": [
        {
          "internalType": "contract IJBSingleTokenPaymentTerminalStore3_1_1",
          "name": "",
          "type": "address"
        }
      ],
      "stateMutability": "view",
      "type": "function"
    },
    {
      "inputs": [],
      "name": "projectID",
      "outputs": [
        {
          "internalType": "uint256",
          "name": "",
          "type": "uint256"
        }
      ],
      "stateMutability": "view",
      "type": "function"
    },
    {
      "inputs": [
        {
          "internalType": "uint256",
          "name": "_projectId",
          "type": "uint256"
        },
        {
          "internalType": "uint8",
          "name": "result",
          "type": "uint8"
        }
      ],
      "name": "reconfigureFundingCyclesOf",
      "outputs": [
        {
          "internalType": "uint256",
          "name": "configuration",
          "type": "uint256"
        }
      ],
      "stateMutability": "nonpayable",
      "type": "function"
    }
  ],
  "bytecode": {
    "object": "0x60c06040523480156200001157600080fd5b50604051620014353803806200143583398101604081905262000034916200009e565b6001600160a01b0392831660805293821660a052600580546001600160a01b03199081169484169490941790556006805484169183169190911790556004805490921692169190911790556200011e565b6001600160a01b03811681146200009b57600080fd5b50565b600080600080600060a08688031215620000b757600080fd5b8551620000c48162000085565b6020870151909550620000d78162000085565b6040870151909450620000ea8162000085565b6060870151909350620000fd8162000085565b6080870151909250620001108162000085565b809150509295509295909350565b60805160a0516112d562000160600039600081816101010152610286015260008181610144015281816105890152818161090d01526109b401526112d56000f3fe608060405234801561001057600080fd5b50600436106100935760003560e01c80639c30ea51116100665780639c30ea5114610123578063acd963ba1461012c578063ad007d631461013f578063e62e12db14610166578063f77c47911461017957600080fd5b80631452438e14610098578063280ee88b146100c85780636f10492f146100e95780638f3d964b146100fc575b600080fd5b6004546100ab906001600160a01b031681565b6040516001600160a01b0390911681526020015b60405180910390f35b6100db6100d6366004610bb0565b61018c565b6040519081526020016100bf565b6006546100ab906001600160a01b031681565b6100ab7f000000000000000000000000000000000000000000000000000000000000000081565b6100db60075481565b6000546100ab906001600160a01b031681565b6100ab7f000000000000000000000000000000000000000000000000000000000000000081565b6100db610174366004610c6c565b610616565b6005546100ab906001600160a01b031681565b600554604080516322de550f60e21b815290516000926001600160a01b031691638b79543c9160048083019260209291908290030181865afa1580156101d6573d6000803e3d6000fd5b505050506040513d601f19601f820116820180604052508101906101fa9190610ca2565b6001600160a01b03166306661abd6040518163ffffffff1660e01b8152600401602060405180830381865afa158015610237573d6000803e3d6000fd5b505050506040513d601f19601f8201168201806040525081019061025b9190610cc6565b610266906001610cdf565b600554604080516331070bc960e21b815290519293506001600160a01b037f0000000000000000000000000000000000000000000000000000000000000000811693634e5ab7ad938e9387938d938b938b93921691829163c41c2f24916004808201926020929091908290030181865afa1580156102e8573d6000803e3d6000fd5b505050506040513d601f19601f8201168201806040525081019061030c9190610ca2565b60065460405160e08a901b6001600160e01b03191681526001600160a01b03988916600482015260248101979097526044870195909552606486019390935263ffffffff9091166084850152841660a4840152831660c48301529190911660e4820152610104016020604051808303816000875af1158015610392573d6000803e3d6000fd5b505050506040513d601f19601f820116820180604052508101906103b69190610ca2565b600080546001600160a01b0319166001600160a01b03929092169190911781556040805160a081018252602e9181018281529091829190611272606084013981526000602091820181905260408051608080820183528a825269d3c21bcecceda100000082860152818301849052606080830185905283516102a081018552610240810186815261026082018790526001610280830181905290825281880187905281860187905291810186905291820185905260a0820181905260c0820181905260e08201819052610100820185905261012082018590526101408201859052610160820185905261018082018590526101a082018590526101c082018190526101e0820185905284546001600160a01b039081166102008401526102208301869052600454825480840184558388527fb10e2d527612073b26eecdfd717e6a320cf44b4afac2b0732d9fcbe2b7fa0cf60180546001600160a01b03191691909216179055835181815280850190945295965090949093828101908036833701905050905060018160008151811061055157610551610d06565b602090810291909101810191909152604080516060810182523081526000928101929092528181018390525163294e6e9760e11b81527f00000000000000000000000000000000000000000000000000000000000000006001600160a01b03169063529cdd2e906105c6908490600401610d1c565b600060405180830381600087803b1580156105e057600080fd5b505af11580156105f4573d6000803e3d6000fd5b505050506106058e8b87878761083a565b505050505098975050505050505050565b600554604080516322de550f60e21b815290516000926001600160a01b031691638b79543c9160048083019260209291908290030181865afa158015610660573d6000803e3d6000fd5b505050506040513d601f19601f820116820180604052508101906106849190610ca2565b6001600160a01b0316636352211e846040518263ffffffff1660e01b81526004016106b191815260200190565b602060405180830381865afa1580156106ce573d6000803e3d6000fd5b505050506040513d601f19601f820116820180604052508101906106f29190610ca2565b8360016107008383836108c6565b60028560ff1611156107735760405162461bcd60e51b815260206004820152603260248201527f496e707574206d75737420626520302028667265657a65292c2031202873756360448201527163657373292c206f72203220286661696c2960701b606482015260840160405180910390fd5b6007869055600080808080808060ff8c1681036107a857506202a30095506001945060009350849250829150819050836107ec565b8b60ff166001036107d157506202a30095506000945084935083925060019150829050806107ec565b506202a3009550600094506064935060019250849150819050825b6040805160808101825288815269d3c21bcecceda100000060208201526000918101829052606081019190915261082881888888888888610a44565b9e9d5050505050505050505050505050565b60055460405163b3c5267360e01b81526001600160a01b039091169063b3c526739061087b9088908790879087908b9060029060039060019060040161109d565b6020604051808303816000875af115801561089a573d6000803e3d6000fd5b505050506040513d601f19601f820116820180604052508101906108be9190610cc6565b505050505050565b336001600160a01b0384161480159061097a575060405163c161c93f60e01b81523360048201526001600160a01b03848116602483015260448201849052606482018390527f0000000000000000000000000000000000000000000000000000000000000000169063c161c93f90608401602060405180830381865afa158015610954573d6000803e3d6000fd5b505050506040513d601f19601f8201168201806040525081019061097891906111b7565b155b8015610a21575060405163c161c93f60e01b81523360048201526001600160a01b03848116602483015260006044830152606482018390527f0000000000000000000000000000000000000000000000000000000000000000169063c161c93f90608401602060405180830381865afa1580156109fb573d6000803e3d6000fd5b505050506040513d601f19601f82011682018060405250810190610a1f91906111b7565b155b15610a3f5760405163075fd2b160e01b815260040160405180910390fd5b505050565b600554600754604080516102a0810182526000610240820181815261026083018290528b15156102808401528252602082018190528183018a9052606082018190526001608083015288151560a083015287151560c083015286151560e0830152610100820181905261012082018190526101408201819052610160820181905261018082018190526101a082018190526101c082018190528515156101e083015280546001600160a01b039081166102008401526102208301829052925163175b7be560e31b81529094929092169263badbdf2892610b30928d9142906002906003906004016111d9565b6020604051808303816000875af1158015610b4f573d6000803e3d6000fd5b505050506040513d601f19601f82011682018060405250810190610b739190610cc6565b98975050505050505050565b6001600160a01b0381168114610b9457600080fd5b50565b803563ffffffff81168114610bab57600080fd5b919050565b60008060008060008060008060e0898b031215610bcc57600080fd5b8835610bd781610b7f565b9750602089013567ffffffffffffffff80821115610bf457600080fd5b818b0191508b601f830112610c0857600080fd5b813581811115610c1757600080fd5b8c6020828501011115610c2957600080fd5b60208301995080985050505060408901359450606089013593506080890135925060a08901359150610c5d60c08a01610b97565b90509295985092959890939650565b60008060408385031215610c7f57600080fd5b82359150602083013560ff81168114610c9757600080fd5b809150509250929050565b600060208284031215610cb457600080fd5b8151610cbf81610b7f565b9392505050565b600060208284031215610cd857600080fd5b5051919050565b80820180821115610d0057634e487b7160e01b600052601160045260246000fd5b92915050565b634e487b7160e01b600052603260045260246000fd5b602080825282516001600160a01b0316828201528281015160408084019190915283015160608084015280516080840181905260009291820190839060a08601905b80831015610d7e5783518252928401926001929092019190840190610d5e565b509695505050505050565b610dae8282518051151582526020808201511515908301526040908101511515910152565b6020810151606083015260408101516080830152606081015160a08301526080810151610ddf60c084018215159052565b5060a081015180151560e08401525060c0810151610100610e038185018315159052565b60e08301519150610120610e1a8186018415159052565b90830151915061014090610e318583018415159052565b8301519150610160610e468582018415159052565b90830151915061018090610e5d8583018415159052565b83015191506101a0610e728582018415159052565b9083015191506101c090610e898583018415159052565b83015191506101e0610e9e8582018415159052565b90830151915061020090610eb58583018415159052565b8301519150610220610eca8582018415159052565b908301516001600160a01b0316610240850152909101516102609092019190915250565b600081548084526020808501808196508360051b810191506000868152838120815b86811015610fcf578385038a528154855260408686018190526001808401805483890181905290865288862060609291838a0190885b81811015610fb457835460ff8082161515855260089190911c1615158d840152848401548784015260028401548684015260038401546001600160a01b039081166080850152600485015460a085015260058501541660c084015260069093019260e0909201918401610f46565b50509d8a019d98505050600293909301925050600101610f10565b509298975050505050505050565b6000815480845260208085019450836000528060002060005b838110156110545781546001600160a01b03908116885260018381015490911684890152600283015460408901526003830154606089015260048301546080890152600583015460a089015260c09097019660069092019101610ff6565b509495945050505050565b6000815480845260208085019450836000528060002060005b838110156110545781546001600160a01b031687529582019560019182019101611078565b60006103e060018060a01b038b168352602081818501528a51604083860152805192508261042086015260005b838110156110e757818101830151868201610440015282016110ca565b50506104406000818487010152601f19601f84011685019250818c015161040086015261113e604086018c8051825260208082015190830152604080820151908301526060908101516001600160a01b0316910152565b61114b60c086018b610d89565b88610340860152808584030161036086015261116981840189610eee565b925050508281036103808401526111808186610fdd565b90508281036103a0840152611195818561105f565b8381036103c0850152600081529050602081019b9a5050505050505050505050565b6000602082840312156111c957600080fd5b81518015158114610cbf57600080fd5b60006103a088835261121560208401898051825260208082015190830152604080820151908301526060908101516001600160a01b0316910152565b61122260a0840188610d89565b856103208401528061034084015261123c81840186610eee565b90508281036103608401526112518185610fdd565b83810361038090940193909352505060008152602001969550505050505056fe516d5a707a484b3574754e77566b6d3245794a703274567261443678534a7164463254453339687a696e72394273a2646970667358221220cb9594053e21ba4872b4f66488d497c4ff232d8d33a61f88419cec46f742f72064736f6c63430008140033",
    "linkReferences": {}
  },
  "methodIdentifiers": {
    "_delegate()": "acd963ba",
    "controller()": "f77c4791",
    "delegateDeployer()": "8f3d964b",
    "launchProjectFor(address,string,uint256,uint256,uint256,uint256,uint32)": "280ee88b",
    "operatorStore()": "ad007d63",
    "paymentTerminal()": "1452438e",
    "paymentTerminalStore()": "6f10492f",
    "projectID()": "9c30ea51",
    "reconfigureFundingCyclesOf(uint256,uint8)": "e62e12db"
  },
  "id": 108
}