{
  "abi": [
    {
      "inputs": [
        {
          "internalType": "contract MyDelegateDeployer",
          "name": "_delegateDeployer",
          "type": "address"
        },
        {
          "internalType": "contract IJBController3_1",
          "name": "_controller",
          "type": "address"
        },
        {
          "internalType": "contract IJBOperatorStore",
          "name": "_operatorStore",
          "type": "address"
        },
        {
          "internalType": "contract IJBSingleTokenPaymentTerminalStore3_1_1",
          "name": "_paymentTerminalStore",
          "type": "address"
        },
        {
          "internalType": "contract JBETHPaymentTerminal3_1_1",
          "name": "_paymentTerminal",
          "type": "address"
        }
      ],
      "stateMutability": "nonpayable",
      "type": "constructor"
    },
    {
      "inputs": [],
      "name": "UNAUTHORIZED",
      "type": "error"
    },
    {
      "inputs": [],
      "name": "_delegate",
      "outputs": [
        {
          "internalType": "contract DominantJuice",
          "name": "",
          "type": "address"
        }
      ],
      "stateMutability": "view",
      "type": "function"
    },
    {
      "inputs": [],
      "name": "controller",
      "outputs": [
        {
          "internalType": "contract IJBController3_1",
          "name": "",
          "type": "address"
        }
      ],
      "stateMutability": "view",
      "type": "function"
    },
    {
      "inputs": [],
      "name": "delegateDeployer",
      "outputs": [
        {
          "internalType": "contract MyDelegateDeployer",
          "name": "",
          "type": "address"
        }
      ],
      "stateMutability": "view",
      "type": "function"
    },
    {
      "inputs": [
        {
          "internalType": "address",
          "name": "_owner",
          "type": "address"
        },
        {
          "internalType": "string",
          "name": "_ipfsCID",
          "type": "string"
        },
        {
          "internalType": "uint256",
          "name": "_cycleTarget",
          "type": "uint256"
        },
        {
          "internalType": "uint256",
          "name": "_startTime",
          "type": "uint256"
        },
        {
          "internalType": "uint256",
          "name": "_duration",
          "type": "uint256"
        },
        {
          "internalType": "uint256",
          "name": "_minimumPledgeAmount",
          "type": "uint256"
        },
        {
          "internalType": "uint32",
          "name": "_maxEarlyPledgers",
          "type": "uint32"
        }
      ],
      "name": "launchProjectFor",
      "outputs": [
        {
          "internalType": "uint256",
          "name": "_projectID",
          "type": "uint256"
        }
      ],
      "stateMutability": "nonpayable",
      "type": "function"
    },
    {
      "inputs": [],
      "name": "operatorStore",
      "outputs": [
        {
          "internalType": "contract IJBOperatorStore",
          "name": "",
          "type": "address"
        }
      ],
      "stateMutability": "view",
      "type": "function"
    },
    {
      "inputs": [],
      "name": "paymentTerminal",
      "outputs": [
        {
          "internalType": "contract JBETHPaymentTerminal3_1_1",
          "name": "",
          "type": "address"
        }
      ],
      "stateMutability": "view",
      "type": "function"
    },
    {
      "inputs": [],
      "name": "paymentTerminalStore",
      "outputs": [
        {
          "internalType": "contract IJBSingleTokenPaymentTerminalStore3_1_1",
          "name": "",
          "type": "address"
        }
      ],
      "stateMutability": "view",
      "type": "function"
    },
    {
      "inputs": [],
      "name": "projectID",
      "outputs": [
        {
          "internalType": "uint256",
          "name": "",
          "type": "uint256"
        }
      ],
      "stateMutability": "view",
      "type": "function"
    },
    {
      "inputs": [
        {
          "internalType": "uint256",
          "name": "_projectId",
          "type": "uint256"
        },
        {
          "internalType": "uint8",
          "name": "result",
          "type": "uint8"
        }
      ],
      "name": "reconfigureFundingCyclesOf",
      "outputs": [
        {
          "internalType": "uint256",
          "name": "configuration",
          "type": "uint256"
        }
      ],
      "stateMutability": "nonpayable",
      "type": "function"
    }
  ],
  "bytecode": {
    "object": "0x60c06040523480156200001157600080fd5b5060405162001327380380620013278339810160408190526200003491620000d7565b6001600160a01b0392831660805293821660a052600580549383166001600160a01b0319948516179055600680549183169184169190911790556004805493909116928216831790556001805480820182556000919091527fb10e2d527612073b26eecdfd717e6a320cf44b4afac2b0732d9fcbe2b7fa0cf6018054909116909117905562000157565b6001600160a01b0381168114620000d457600080fd5b50565b600080600080600060a08688031215620000f057600080fd5b8551620000fd81620000be565b60208701519095506200011081620000be565b60408701519094506200012381620000be565b60608701519093506200013681620000be565b60808701519092506200014981620000be565b809150509295509295909350565b60805160a0516111956200019260003960008181610101015261026a0152600081816101440152818161085001526108f701526111956000f3fe608060405234801561001057600080fd5b50600436106100935760003560e01c80639c30ea51116100665780639c30ea5114610123578063acd963ba1461012c578063ad007d631461013f578063e62e12db14610166578063f77c47911461017957600080fd5b80631452438e14610098578063280ee88b146100c85780636f10492f146100e95780638f3d964b146100fc575b600080fd5b6004546100ab906001600160a01b031681565b6040516001600160a01b0390911681526020015b60405180910390f35b6100db6100d6366004610af3565b61018c565b6040519081526020016100bf565b6006546100ab906001600160a01b031681565b6100ab7f000000000000000000000000000000000000000000000000000000000000000081565b6100db60075481565b6000546100ab906001600160a01b031681565b6100ab7f000000000000000000000000000000000000000000000000000000000000000081565b6100db610174366004610baf565b610559565b6005546100ab906001600160a01b031681565b600554604080516322de550f60e21b815290516000926001600160a01b031691638b79543c9160048083019260209291908290030181865afa1580156101d6573d6000803e3d6000fd5b505050506040513d601f19601f820116820180604052508101906101fa9190610be5565b6001600160a01b03166306661abd6040518163ffffffff1660e01b8152600401602060405180830381865afa158015610237573d6000803e3d6000fd5b505050506040513d601f19601f8201168201806040525081019061025b9190610c09565b610266906001610c22565b90507f00000000000000000000000000000000000000000000000000000000000000006001600160a01b0316634532cd518a83600560009054906101000a90046001600160a01b03166001600160a01b031663c41c2f246040518163ffffffff1660e01b8152600401602060405180830381865afa1580156102ec573d6000803e3d6000fd5b505050506040513d601f19601f820116820180604052508101906103109190610be5565b60405160e085901b6001600160e01b03191681526001600160a01b039384166004820152602481019290925290911660448201526064016020604051808303816000875af1158015610366573d6000803e3d6000fd5b505050506040513d601f19601f8201168201806040525081019061038a9190610be5565b600080546001600160a01b0319166001600160a01b03929092169190911781556040805160a081018252602e9181018281529091829190611132606084013981526000602091820181905260408051608080820183528a825269d3c21bcecceda100000082860152818301849052606080830185905283516102a08101855261024081018681526102608201879052600161028083018190529082529681018690529384018590528301849052820183905260a0820184905260c0820184905260e08201849052610100820183905261012082018390526101408201839052610160820183905261018082018390526101a082018390526101c08201939093526101e0810182905281546001600160a01b0316610200820152610220810191909152919250906104bd8c8985858561077d565b60005460055460065460405163570e12d160e11b815260048101889052602481018d9052604481018a905263ffffffff891660648201526001600160a01b03928316608482015290821660a482015291169063ae1c25a29060c401600060405180830381600087803b15801561053257600080fd5b505af1158015610546573d6000803e3d6000fd5b5050505050505098975050505050505050565b600554604080516322de550f60e21b815290516000926001600160a01b031691638b79543c9160048083019260209291908290030181865afa1580156105a3573d6000803e3d6000fd5b505050506040513d601f19601f820116820180604052508101906105c79190610be5565b6001600160a01b0316636352211e846040518263ffffffff1660e01b81526004016105f491815260200190565b602060405180830381865afa158015610611573d6000803e3d6000fd5b505050506040513d601f19601f820116820180604052508101906106359190610be5565b836001610643838383610809565b60028560ff1611156106b65760405162461bcd60e51b815260206004820152603260248201527f496e707574206d75737420626520302028667265657a65292c2031202873756360448201527163657373292c206f72203220286661696c2960701b606482015260840160405180910390fd5b6007869055600080808080808060ff8c1681036106eb57506202a300955060019450600093508492508291508190508361072f565b8b60ff1660010361071457506202a300955060009450849350839250600191508290508061072f565b506202a3009550600094506064935060019250849150819050825b6040805160808101825288815269d3c21bcecceda100000060208201526000918101829052606081019190915261076b81888888888888610987565b9e9d5050505050505050505050505050565b60055460405163b3c5267360e01b81526001600160a01b039091169063b3c52673906107be9088908790879087908b90600290600390600190600401610f5d565b6020604051808303816000875af11580156107dd573d6000803e3d6000fd5b505050506040513d601f19601f820116820180604052508101906108019190610c09565b505050505050565b336001600160a01b038416148015906108bd575060405163c161c93f60e01b81523360048201526001600160a01b03848116602483015260448201849052606482018390527f0000000000000000000000000000000000000000000000000000000000000000169063c161c93f90608401602060405180830381865afa158015610897573d6000803e3d6000fd5b505050506040513d601f19601f820116820180604052508101906108bb9190611077565b155b8015610964575060405163c161c93f60e01b81523360048201526001600160a01b03848116602483015260006044830152606482018390527f0000000000000000000000000000000000000000000000000000000000000000169063c161c93f90608401602060405180830381865afa15801561093e573d6000803e3d6000fd5b505050506040513d601f19601f820116820180604052508101906109629190611077565b155b156109825760405163075fd2b160e01b815260040160405180910390fd5b505050565b600554600754604080516102a0810182526000610240820181815261026083018290528b15156102808401528252602082018190528183018a9052606082018190526001608083015288151560a083015287151560c083015286151560e0830152610100820181905261012082018190526101408201819052610160820181905261018082018190526101a082018190526101c082018190528515156101e083015280546001600160a01b039081166102008401526102208301829052925163175b7be560e31b81529094929092169263badbdf2892610a73928d914290600290600390600401611099565b6020604051808303816000875af1158015610a92573d6000803e3d6000fd5b505050506040513d601f19601f82011682018060405250810190610ab69190610c09565b98975050505050505050565b6001600160a01b0381168114610ad757600080fd5b50565b803563ffffffff81168114610aee57600080fd5b919050565b60008060008060008060008060e0898b031215610b0f57600080fd5b8835610b1a81610ac2565b9750602089013567ffffffffffffffff80821115610b3757600080fd5b818b0191508b601f830112610b4b57600080fd5b813581811115610b5a57600080fd5b8c6020828501011115610b6c57600080fd5b60208301995080985050505060408901359450606089013593506080890135925060a08901359150610ba060c08a01610ada565b90509295985092959890939650565b60008060408385031215610bc257600080fd5b82359150602083013560ff81168114610bda57600080fd5b809150509250929050565b600060208284031215610bf757600080fd5b8151610c0281610ac2565b9392505050565b600060208284031215610c1b57600080fd5b5051919050565b80820180821115610c4357634e487b7160e01b600052601160045260246000fd5b92915050565b610c6e8282518051151582526020808201511515908301526040908101511515910152565b6020810151606083015260408101516080830152606081015160a08301526080810151610c9f60c084018215159052565b5060a081015180151560e08401525060c0810151610100610cc38185018315159052565b60e08301519150610120610cda8186018415159052565b90830151915061014090610cf18583018415159052565b8301519150610160610d068582018415159052565b90830151915061018090610d1d8583018415159052565b83015191506101a0610d328582018415159052565b9083015191506101c090610d498583018415159052565b83015191506101e0610d5e8582018415159052565b90830151915061020090610d758583018415159052565b8301519150610220610d8a8582018415159052565b908301516001600160a01b0316610240850152909101516102609092019190915250565b600081548084526020808501808196508360051b810191506000868152838120815b86811015610e8f578385038a528154855260408686018190526001808401805483890181905290865288862060609291838a0190885b81811015610e7457835460ff8082161515855260089190911c1615158d840152848401548784015260028401548684015260038401546001600160a01b039081166080850152600485015460a085015260058501541660c084015260069093019260e0909201918401610e06565b50509d8a019d98505050600293909301925050600101610dd0565b509298975050505050505050565b6000815480845260208085019450836000528060002060005b83811015610f145781546001600160a01b03908116885260018381015490911684890152600283015460408901526003830154606089015260048301546080890152600583015460a089015260c09097019660069092019101610eb6565b509495945050505050565b6000815480845260208085019450836000528060002060005b83811015610f145781546001600160a01b031687529582019560019182019101610f38565b60006103e060018060a01b038b168352602081818501528a51604083860152805192508261042086015260005b83811015610fa75781810183015186820161044001528201610f8a565b50506104406000818487010152601f19601f84011685019250818c0151610400860152610ffe604086018c8051825260208082015190830152604080820151908301526060908101516001600160a01b0316910152565b61100b60c086018b610c49565b88610340860152808584030161036086015261102981840189610dae565b925050508281036103808401526110408186610e9d565b90508281036103a08401526110558185610f1f565b8381036103c0850152600081529050602081019b9a5050505050505050505050565b60006020828403121561108957600080fd5b81518015158114610c0257600080fd5b60006103a08883526110d560208401898051825260208082015190830152604080820151908301526060908101516001600160a01b0316910152565b6110e260a0840188610c49565b85610320840152806103408401526110fc81840186610dae565b90508281036103608401526111118185610e9d565b83810361038090940193909352505060008152602001969550505050505056fe516d5a707a484b3574754e77566b6d3245794a703274567261443678534a7164463254453339687a696e72394273a2646970667358221220a6069d0e98337b9ebb76d195b54dbf9e7f71c271103ec7ba933e74f508e9ca1a64736f6c63430008140033",
    "linkReferences": {}
  },
  "methodIdentifiers": {
    "_delegate()": "acd963ba",
    "controller()": "f77c4791",
    "delegateDeployer()": "8f3d964b",
    "launchProjectFor(address,string,uint256,uint256,uint256,uint256,uint32)": "280ee88b",
    "operatorStore()": "ad007d63",
    "paymentTerminal()": "1452438e",
    "paymentTerminalStore()": "6f10492f",
    "projectID()": "9c30ea51",
    "reconfigureFundingCyclesOf(uint256,uint8)": "e62e12db"
  },
  "id": 108
}