{
  "abi": [
    {
      "inputs": [
        {
          "internalType": "uint256",
          "name": "_baseWeightCurrency",
          "type": "uint256"
        },
        {
          "internalType": "contract IJBOperatorStore",
          "name": "_operatorStore",
          "type": "address"
        },
        {
          "internalType": "contract IJBProjects",
          "name": "_projects",
          "type": "address"
        },
        {
          "internalType": "contract IJBDirectory",
          "name": "_directory",
          "type": "address"
        },
        {
          "internalType": "contract IJBSplitsStore",
          "name": "_splitsStore",
          "type": "address"
        },
        {
          "internalType": "contract IJBPrices",
          "name": "_prices",
          "type": "address"
        },
        {
          "internalType": "address",
          "name": "_store",
          "type": "address"
        },
        {
          "internalType": "address",
          "name": "_owner",
          "type": "address"
        }
      ],
      "stateMutability": "nonpayable",
      "type": "constructor"
    },
    {
      "inputs": [],
      "name": "FEE_TOO_HIGH",
      "type": "error"
    },
    {
      "inputs": [],
      "name": "INADEQUATE_DISTRIBUTION_AMOUNT",
      "type": "error"
    },
    {
      "inputs": [],
      "name": "INADEQUATE_RECLAIM_AMOUNT",
      "type": "error"
    },
    {
      "inputs": [],
      "name": "INADEQUATE_TOKEN_COUNT",
      "type": "error"
    },
    {
      "inputs": [],
      "name": "NO_MSG_VALUE_ALLOWED",
      "type": "error"
    },
    {
      "inputs": [],
      "name": "PAY_TO_ZERO_ADDRESS",
      "type": "error"
    },
    {
      "inputs": [
        {
          "internalType": "uint256",
          "name": "prod1",
          "type": "uint256"
        },
        {
          "internalType": "uint256",
          "name": "denominator",
          "type": "uint256"
        }
      ],
      "name": "PRBMath__MulDivOverflow",
      "type": "error"
    },
    {
      "inputs": [],
      "name": "PROJECT_TERMINAL_MISMATCH",
      "type": "error"
    },
    {
      "inputs": [],
      "name": "REDEEM_TO_ZERO_ADDRESS",
      "type": "error"
    },
    {
      "inputs": [],
      "name": "TERMINAL_IN_SPLIT_ZERO_ADDRESS",
      "type": "error"
    },
    {
      "inputs": [],
      "name": "TERMINAL_TOKENS_INCOMPATIBLE",
      "type": "error"
    },
    {
      "inputs": [],
      "name": "UNAUTHORIZED",
      "type": "error"
    },
    {
      "anonymous": false,
      "inputs": [
        {
          "indexed": true,
          "internalType": "uint256",
          "name": "projectId",
          "type": "uint256"
        },
        {
          "indexed": false,
          "internalType": "uint256",
          "name": "amount",
          "type": "uint256"
        },
        {
          "indexed": false,
          "internalType": "uint256",
          "name": "refundedFees",
          "type": "uint256"
        },
        {
          "indexed": false,
          "internalType": "string",
          "name": "memo",
          "type": "string"
        },
        {
          "indexed": false,
          "internalType": "bytes",
          "name": "metadata",
          "type": "bytes"
        },
        {
          "indexed": false,
          "internalType": "address",
          "name": "caller",
          "type": "address"
        }
      ],
      "name": "AddToBalance",
      "type": "event"
    },
    {
      "anonymous": false,
      "inputs": [
        {
          "indexed": true,
          "internalType": "contract IJBPayDelegate",
          "name": "delegate",
          "type": "address"
        },
        {
          "components": [
            {
              "internalType": "address",
              "name": "payer",
              "type": "address"
            },
            {
              "internalType": "uint256",
              "name": "projectId",
              "type": "uint256"
            },
            {
              "internalType": "uint256",
              "name": "currentFundingCycleConfiguration",
              "type": "uint256"
            },
            {
              "components": [
                {
                  "internalType": "address",
                  "name": "token",
                  "type": "address"
                },
                {
                  "internalType": "uint256",
                  "name": "value",
                  "type": "uint256"
                },
                {
                  "internalType": "uint256",
                  "name": "decimals",
                  "type": "uint256"
                },
                {
                  "internalType": "uint256",
                  "name": "currency",
                  "type": "uint256"
                }
              ],
              "internalType": "struct JBTokenAmount",
              "name": "amount",
              "type": "tuple"
            },
            {
              "components": [
                {
                  "internalType": "address",
                  "name": "token",
                  "type": "address"
                },
                {
                  "internalType": "uint256",
                  "name": "value",
                  "type": "uint256"
                },
                {
                  "internalType": "uint256",
                  "name": "decimals",
                  "type": "uint256"
                },
                {
                  "internalType": "uint256",
                  "name": "currency",
                  "type": "uint256"
                }
              ],
              "internalType": "struct JBTokenAmount",
              "name": "forwardedAmount",
              "type": "tuple"
            },
            {
              "internalType": "uint256",
              "name": "projectTokenCount",
              "type": "uint256"
            },
            {
              "internalType": "address",
              "name": "beneficiary",
              "type": "address"
            },
            {
              "internalType": "bool",
              "name": "preferClaimedTokens",
              "type": "bool"
            },
            {
              "internalType": "string",
              "name": "memo",
              "type": "string"
            },
            {
              "internalType": "bytes",
              "name": "metadata",
              "type": "bytes"
            }
          ],
          "indexed": false,
          "internalType": "struct JBDidPayData",
          "name": "data",
          "type": "tuple"
        },
        {
          "indexed": false,
          "internalType": "uint256",
          "name": "delegatedAmount",
          "type": "uint256"
        },
        {
          "indexed": false,
          "internalType": "address",
          "name": "caller",
          "type": "address"
        }
      ],
      "name": "DelegateDidPay",
      "type": "event"
    },
    {
      "anonymous": false,
      "inputs": [
        {
          "indexed": true,
          "internalType": "contract IJBRedemptionDelegate",
          "name": "delegate",
          "type": "address"
        },
        {
          "components": [
            {
              "internalType": "address",
              "name": "holder",
              "type": "address"
            },
            {
              "internalType": "uint256",
              "name": "projectId",
              "type": "uint256"
            },
            {
              "internalType": "uint256",
              "name": "currentFundingCycleConfiguration",
              "type": "uint256"
            },
            {
              "internalType": "uint256",
              "name": "projectTokenCount",
              "type": "uint256"
            },
            {
              "components": [
                {
                  "internalType": "address",
                  "name": "token",
                  "type": "address"
                },
                {
                  "internalType": "uint256",
                  "name": "value",
                  "type": "uint256"
                },
                {
                  "internalType": "uint256",
                  "name": "decimals",
                  "type": "uint256"
                },
                {
                  "internalType": "uint256",
                  "name": "currency",
                  "type": "uint256"
                }
              ],
              "internalType": "struct JBTokenAmount",
              "name": "reclaimedAmount",
              "type": "tuple"
            },
            {
              "components": [
                {
                  "internalType": "address",
                  "name": "token",
                  "type": "address"
                },
                {
                  "internalType": "uint256",
                  "name": "value",
                  "type": "uint256"
                },
                {
                  "internalType": "uint256",
                  "name": "decimals",
                  "type": "uint256"
                },
                {
                  "internalType": "uint256",
                  "name": "currency",
                  "type": "uint256"
                }
              ],
              "internalType": "struct JBTokenAmount",
              "name": "forwardedAmount",
              "type": "tuple"
            },
            {
              "internalType": "address payable",
              "name": "beneficiary",
              "type": "address"
            },
            {
              "internalType": "string",
              "name": "memo",
              "type": "string"
            },
            {
              "internalType": "bytes",
              "name": "metadata",
              "type": "bytes"
            }
          ],
          "indexed": false,
          "internalType": "struct JBDidRedeemData",
          "name": "data",
          "type": "tuple"
        },
        {
          "indexed": false,
          "internalType": "uint256",
          "name": "delegatedAmount",
          "type": "uint256"
        },
        {
          "indexed": false,
          "internalType": "address",
          "name": "caller",
          "type": "address"
        }
      ],
      "name": "DelegateDidRedeem",
      "type": "event"
    },
    {
      "anonymous": false,
      "inputs": [
        {
          "indexed": true,
          "internalType": "uint256",
          "name": "fundingCycleConfiguration",
          "type": "uint256"
        },
        {
          "indexed": true,
          "internalType": "uint256",
          "name": "fundingCycleNumber",
          "type": "uint256"
        },
        {
          "indexed": true,
          "internalType": "uint256",
          "name": "projectId",
          "type": "uint256"
        },
        {
          "indexed": false,
          "internalType": "address",
          "name": "beneficiary",
          "type": "address"
        },
        {
          "indexed": false,
          "internalType": "uint256",
          "name": "amount",
          "type": "uint256"
        },
        {
          "indexed": false,
          "internalType": "uint256",
          "name": "distributedAmount",
          "type": "uint256"
        },
        {
          "indexed": false,
          "internalType": "uint256",
          "name": "fee",
          "type": "uint256"
        },
        {
          "indexed": false,
          "internalType": "uint256",
          "name": "beneficiaryDistributionAmount",
          "type": "uint256"
        },
        {
          "indexed": false,
          "internalType": "bytes",
          "name": "metadata",
          "type": "bytes"
        },
        {
          "indexed": false,
          "internalType": "address",
          "name": "caller",
          "type": "address"
        }
      ],
      "name": "DistributePayouts",
      "type": "event"
    },
    {
      "anonymous": false,
      "inputs": [
        {
          "indexed": true,
          "internalType": "uint256",
          "name": "projectId",
          "type": "uint256"
        },
        {
          "indexed": true,
          "internalType": "uint256",
          "name": "domain",
          "type": "uint256"
        },
        {
          "indexed": true,
          "internalType": "uint256",
          "name": "group",
          "type": "uint256"
        },
        {
          "components": [
            {
              "internalType": "bool",
              "name": "preferClaimed",
              "type": "bool"
            },
            {
              "internalType": "bool",
              "name": "preferAddToBalance",
              "type": "bool"
            },
            {
              "internalType": "uint256",
              "name": "percent",
              "type": "uint256"
            },
            {
              "internalType": "uint256",
              "name": "projectId",
              "type": "uint256"
            },
            {
              "internalType": "address payable",
              "name": "beneficiary",
              "type": "address"
            },
            {
              "internalType": "uint256",
              "name": "lockedUntil",
              "type": "uint256"
            },
            {
              "internalType": "contract IJBSplitAllocator",
              "name": "allocator",
              "type": "address"
            }
          ],
          "indexed": false,
          "internalType": "struct JBSplit",
          "name": "split",
          "type": "tuple"
        },
        {
          "indexed": false,
          "internalType": "uint256",
          "name": "amount",
          "type": "uint256"
        },
        {
          "indexed": false,
          "internalType": "uint256",
          "name": "netAmount",
          "type": "uint256"
        },
        {
          "indexed": false,
          "internalType": "address",
          "name": "caller",
          "type": "address"
        }
      ],
      "name": "DistributeToPayoutSplit",
      "type": "event"
    },
    {
      "anonymous": false,
      "inputs": [
        {
          "indexed": true,
          "internalType": "uint256",
          "name": "projectId",
          "type": "uint256"
        },
        {
          "indexed": true,
          "internalType": "uint256",
          "name": "feeProjectId",
          "type": "uint256"
        },
        {
          "indexed": false,
          "internalType": "uint256",
          "name": "amount",
          "type": "uint256"
        },
        {
          "indexed": false,
          "internalType": "bytes",
          "name": "reason",
          "type": "bytes"
        },
        {
          "indexed": false,
          "internalType": "address",
          "name": "caller",
          "type": "address"
        }
      ],
      "name": "FeeReverted",
      "type": "event"
    },
    {
      "anonymous": false,
      "inputs": [
        {
          "indexed": true,
          "internalType": "uint256",
          "name": "projectId",
          "type": "uint256"
        },
        {
          "indexed": true,
          "internalType": "uint256",
          "name": "amount",
          "type": "uint256"
        },
        {
          "indexed": true,
          "internalType": "uint256",
          "name": "fee",
          "type": "uint256"
        },
        {
          "indexed": false,
          "internalType": "uint256",
          "name": "feeDiscount",
          "type": "uint256"
        },
        {
          "indexed": false,
          "internalType": "address",
          "name": "beneficiary",
          "type": "address"
        },
        {
          "indexed": false,
          "internalType": "address",
          "name": "caller",
          "type": "address"
        }
      ],
      "name": "HoldFee",
      "type": "event"
    },
    {
      "anonymous": false,
      "inputs": [
        {
          "indexed": true,
          "internalType": "uint256",
          "name": "projectId",
          "type": "uint256"
        },
        {
          "indexed": true,
          "internalType": "contract IJBPaymentTerminal",
          "name": "to",
          "type": "address"
        },
        {
          "indexed": false,
          "internalType": "uint256",
          "name": "amount",
          "type": "uint256"
        },
        {
          "indexed": false,
          "internalType": "address",
          "name": "caller",
          "type": "address"
        }
      ],
      "name": "Migrate",
      "type": "event"
    },
    {
      "anonymous": false,
      "inputs": [
        {
          "indexed": true,
          "internalType": "address",
          "name": "previousOwner",
          "type": "address"
        },
        {
          "indexed": true,
          "internalType": "address",
          "name": "newOwner",
          "type": "address"
        }
      ],
      "name": "OwnershipTransferred",
      "type": "event"
    },
    {
      "anonymous": false,
      "inputs": [
        {
          "indexed": true,
          "internalType": "uint256",
          "name": "fundingCycleConfiguration",
          "type": "uint256"
        },
        {
          "indexed": true,
          "internalType": "uint256",
          "name": "fundingCycleNumber",
          "type": "uint256"
        },
        {
          "indexed": true,
          "internalType": "uint256",
          "name": "projectId",
          "type": "uint256"
        },
        {
          "indexed": false,
          "internalType": "address",
          "name": "payer",
          "type": "address"
        },
        {
          "indexed": false,
          "internalType": "address",
          "name": "beneficiary",
          "type": "address"
        },
        {
          "indexed": false,
          "internalType": "uint256",
          "name": "amount",
          "type": "uint256"
        },
        {
          "indexed": false,
          "internalType": "uint256",
          "name": "beneficiaryTokenCount",
          "type": "uint256"
        },
        {
          "indexed": false,
          "internalType": "string",
          "name": "memo",
          "type": "string"
        },
        {
          "indexed": false,
          "internalType": "bytes",
          "name": "metadata",
          "type": "bytes"
        },
        {
          "indexed": false,
          "internalType": "address",
          "name": "caller",
          "type": "address"
        }
      ],
      "name": "Pay",
      "type": "event"
    },
    {
      "anonymous": false,
      "inputs": [
        {
          "indexed": true,
          "internalType": "uint256",
          "name": "projectId",
          "type": "uint256"
        },
        {
          "components": [
            {
              "internalType": "bool",
              "name": "preferClaimed",
              "type": "bool"
            },
            {
              "internalType": "bool",
              "name": "preferAddToBalance",
              "type": "bool"
            },
            {
              "internalType": "uint256",
              "name": "percent",
              "type": "uint256"
            },
            {
              "internalType": "uint256",
              "name": "projectId",
              "type": "uint256"
            },
            {
              "internalType": "address payable",
              "name": "beneficiary",
              "type": "address"
            },
            {
              "internalType": "uint256",
              "name": "lockedUntil",
              "type": "uint256"
            },
            {
              "internalType": "contract IJBSplitAllocator",
              "name": "allocator",
              "type": "address"
            }
          ],
          "indexed": false,
          "internalType": "struct JBSplit",
          "name": "split",
          "type": "tuple"
        },
        {
          "indexed": false,
          "internalType": "uint256",
          "name": "amount",
          "type": "uint256"
        },
        {
          "indexed": false,
          "internalType": "bytes",
          "name": "reason",
          "type": "bytes"
        },
        {
          "indexed": false,
          "internalType": "address",
          "name": "caller",
          "type": "address"
        }
      ],
      "name": "PayoutReverted",
      "type": "event"
    },
    {
      "anonymous": false,
      "inputs": [
        {
          "indexed": true,
          "internalType": "uint256",
          "name": "projectId",
          "type": "uint256"
        },
        {
          "indexed": true,
          "internalType": "uint256",
          "name": "amount",
          "type": "uint256"
        },
        {
          "indexed": true,
          "internalType": "bool",
          "name": "wasHeld",
          "type": "bool"
        },
        {
          "indexed": false,
          "internalType": "address",
          "name": "beneficiary",
          "type": "address"
        },
        {
          "indexed": false,
          "internalType": "address",
          "name": "caller",
          "type": "address"
        }
      ],
      "name": "ProcessFee",
      "type": "event"
    },
    {
      "anonymous": false,
      "inputs": [
        {
          "indexed": true,
          "internalType": "uint256",
          "name": "fundingCycleConfiguration",
          "type": "uint256"
        },
        {
          "indexed": true,
          "internalType": "uint256",
          "name": "fundingCycleNumber",
          "type": "uint256"
        },
        {
          "indexed": true,
          "internalType": "uint256",
          "name": "projectId",
          "type": "uint256"
        },
        {
          "indexed": false,
          "internalType": "address",
          "name": "holder",
          "type": "address"
        },
        {
          "indexed": false,
          "internalType": "address",
          "name": "beneficiary",
          "type": "address"
        },
        {
          "indexed": false,
          "internalType": "uint256",
          "name": "tokenCount",
          "type": "uint256"
        },
        {
          "indexed": false,
          "internalType": "uint256",
          "name": "reclaimedAmount",
          "type": "uint256"
        },
        {
          "indexed": false,
          "internalType": "string",
          "name": "memo",
          "type": "string"
        },
        {
          "indexed": false,
          "internalType": "bytes",
          "name": "metadata",
          "type": "bytes"
        },
        {
          "indexed": false,
          "internalType": "address",
          "name": "caller",
          "type": "address"
        }
      ],
      "name": "RedeemTokens",
      "type": "event"
    },
    {
      "anonymous": false,
      "inputs": [
        {
          "indexed": true,
          "internalType": "uint256",
          "name": "projectId",
          "type": "uint256"
        },
        {
          "indexed": true,
          "internalType": "uint256",
          "name": "amount",
          "type": "uint256"
        },
        {
          "indexed": true,
          "internalType": "uint256",
          "name": "refundedFees",
          "type": "uint256"
        },
        {
          "indexed": false,
          "internalType": "uint256",
          "name": "leftoverAmount",
          "type": "uint256"
        },
        {
          "indexed": false,
          "internalType": "address",
          "name": "caller",
          "type": "address"
        }
      ],
      "name": "RefundHeldFees",
      "type": "event"
    },
    {
      "anonymous": false,
      "inputs": [
        {
          "indexed": false,
          "internalType": "uint256",
          "name": "fee",
          "type": "uint256"
        },
        {
          "indexed": false,
          "internalType": "address",
          "name": "caller",
          "type": "address"
        }
      ],
      "name": "SetFee",
      "type": "event"
    },
    {
      "anonymous": false,
      "inputs": [
        {
          "indexed": true,
          "internalType": "address",
          "name": "feeGauge",
          "type": "address"
        },
        {
          "indexed": false,
          "internalType": "address",
          "name": "caller",
          "type": "address"
        }
      ],
      "name": "SetFeeGauge",
      "type": "event"
    },
    {
      "anonymous": false,
      "inputs": [
        {
          "indexed": true,
          "internalType": "address",
          "name": "addrs",
          "type": "address"
        },
        {
          "indexed": true,
          "internalType": "bool",
          "name": "flag",
          "type": "bool"
        },
        {
          "indexed": false,
          "internalType": "address",
          "name": "caller",
          "type": "address"
        }
      ],
      "name": "SetFeelessAddress",
      "type": "event"
    },
    {
      "anonymous": false,
      "inputs": [
        {
          "indexed": true,
          "internalType": "uint256",
          "name": "fundingCycleConfiguration",
          "type": "uint256"
        },
        {
          "indexed": true,
          "internalType": "uint256",
          "name": "fundingCycleNumber",
          "type": "uint256"
        },
        {
          "indexed": true,
          "internalType": "uint256",
          "name": "projectId",
          "type": "uint256"
        },
        {
          "indexed": false,
          "internalType": "address",
          "name": "beneficiary",
          "type": "address"
        },
        {
          "indexed": false,
          "internalType": "uint256",
          "name": "amount",
          "type": "uint256"
        },
        {
          "indexed": false,
          "internalType": "uint256",
          "name": "distributedAmount",
          "type": "uint256"
        },
        {
          "indexed": false,
          "internalType": "uint256",
          "name": "netDistributedamount",
          "type": "uint256"
        },
        {
          "indexed": false,
          "internalType": "string",
          "name": "memo",
          "type": "string"
        },
        {
          "indexed": false,
          "internalType": "bytes",
          "name": "metadata",
          "type": "bytes"
        },
        {
          "indexed": false,
          "internalType": "address",
          "name": "caller",
          "type": "address"
        }
      ],
      "name": "UseAllowance",
      "type": "event"
    },
    {
      "inputs": [
        {
          "internalType": "address",
          "name": "_token",
          "type": "address"
        },
        {
          "internalType": "uint256",
          "name": "_projectId",
          "type": "uint256"
        }
      ],
      "name": "acceptsToken",
      "outputs": [
        {
          "internalType": "bool",
          "name": "",
          "type": "bool"
        }
      ],
      "stateMutability": "view",
      "type": "function"
    },
    {
      "inputs": [
        {
          "internalType": "uint256",
          "name": "_projectId",
          "type": "uint256"
        },
        {
          "internalType": "uint256",
          "name": "_amount",
          "type": "uint256"
        },
        {
          "internalType": "address",
          "name": "_token",
          "type": "address"
        },
        {
          "internalType": "string",
          "name": "_memo",
          "type": "string"
        },
        {
          "internalType": "bytes",
          "name": "_metadata",
          "type": "bytes"
        }
      ],
      "name": "addToBalanceOf",
      "outputs": [],
      "stateMutability": "payable",
      "type": "function"
    },
    {
      "inputs": [
        {
          "internalType": "uint256",
          "name": "_projectId",
          "type": "uint256"
        },
        {
          "internalType": "uint256",
          "name": "_amount",
          "type": "uint256"
        },
        {
          "internalType": "address",
          "name": "_token",
          "type": "address"
        },
        {
          "internalType": "bool",
          "name": "_shouldRefundHeldFees",
          "type": "bool"
        },
        {
          "internalType": "string",
          "name": "_memo",
          "type": "string"
        },
        {
          "internalType": "bytes",
          "name": "_metadata",
          "type": "bytes"
        }
      ],
      "name": "addToBalanceOf",
      "outputs": [],
      "stateMutability": "payable",
      "type": "function"
    },
    {
      "inputs": [],
      "name": "baseWeightCurrency",
      "outputs": [
        {
          "internalType": "uint256",
          "name": "",
          "type": "uint256"
        }
      ],
      "stateMutability": "view",
      "type": "function"
    },
    {
      "inputs": [],
      "name": "currency",
      "outputs": [
        {
          "internalType": "uint256",
          "name": "",
          "type": "uint256"
        }
      ],
      "stateMutability": "view",
      "type": "function"
    },
    {
      "inputs": [
        {
          "internalType": "address",
          "name": "_token",
          "type": "address"
        }
      ],
      "name": "currencyForToken",
      "outputs": [
        {
          "internalType": "uint256",
          "name": "",
          "type": "uint256"
        }
      ],
      "stateMutability": "view",
      "type": "function"
    },
    {
      "inputs": [
        {
          "internalType": "uint256",
          "name": "_projectId",
          "type": "uint256"
        }
      ],
      "name": "currentEthOverflowOf",
      "outputs": [
        {
          "internalType": "uint256",
          "name": "",
          "type": "uint256"
        }
      ],
      "stateMutability": "view",
      "type": "function"
    },
    {
      "inputs": [],
      "name": "decimals",
      "outputs": [
        {
          "internalType": "uint256",
          "name": "",
          "type": "uint256"
        }
      ],
      "stateMutability": "view",
      "type": "function"
    },
    {
      "inputs": [
        {
          "internalType": "address",
          "name": "_token",
          "type": "address"
        }
      ],
      "name": "decimalsForToken",
      "outputs": [
        {
          "internalType": "uint256",
          "name": "",
          "type": "uint256"
        }
      ],
      "stateMutability": "view",
      "type": "function"
    },
    {
      "inputs": [],
      "name": "directory",
      "outputs": [
        {
          "internalType": "contract IJBDirectory",
          "name": "",
          "type": "address"
        }
      ],
      "stateMutability": "view",
      "type": "function"
    },
    {
      "inputs": [
        {
          "internalType": "uint256",
          "name": "_projectId",
          "type": "uint256"
        },
        {
          "internalType": "uint256",
          "name": "_amount",
          "type": "uint256"
        },
        {
          "internalType": "uint256",
          "name": "_currency",
          "type": "uint256"
        },
        {
          "internalType": "address",
          "name": "_token",
          "type": "address"
        },
        {
          "internalType": "uint256",
          "name": "_minReturnedTokens",
          "type": "uint256"
        },
        {
          "internalType": "bytes",
          "name": "_metadata",
          "type": "bytes"
        }
      ],
      "name": "distributePayoutsOf",
      "outputs": [
        {
          "internalType": "uint256",
          "name": "netLeftoverDistributionAmount",
          "type": "uint256"
        }
      ],
      "stateMutability": "nonpayable",
      "type": "function"
    },
    {
      "inputs": [],
      "name": "fee",
      "outputs": [
        {
          "internalType": "uint256",
          "name": "",
          "type": "uint256"
        }
      ],
      "stateMutability": "view",
      "type": "function"
    },
    {
      "inputs": [],
      "name": "feeGauge",
      "outputs": [
        {
          "internalType": "address",
          "name": "",
          "type": "address"
        }
      ],
      "stateMutability": "view",
      "type": "function"
    },
    {
      "inputs": [
        {
          "internalType": "uint256",
          "name": "_projectId",
          "type": "uint256"
        }
      ],
      "name": "heldFeesOf",
      "outputs": [
        {
          "components": [
            {
              "internalType": "uint256",
              "name": "amount",
              "type": "uint256"
            },
            {
              "internalType": "uint32",
              "name": "fee",
              "type": "uint32"
            },
            {
              "internalType": "uint32",
              "name": "feeDiscount",
              "type": "uint32"
            },
            {
              "internalType": "address",
              "name": "beneficiary",
              "type": "address"
            }
          ],
          "internalType": "struct JBFee[]",
          "name": "",
          "type": "tuple[]"
        }
      ],
      "stateMutability": "view",
      "type": "function"
    },
    {
      "inputs": [
        {
          "internalType": "address",
          "name": "",
          "type": "address"
        }
      ],
      "name": "isFeelessAddress",
      "outputs": [
        {
          "internalType": "bool",
          "name": "",
          "type": "bool"
        }
      ],
      "stateMutability": "view",
      "type": "function"
    },
    {
      "inputs": [
        {
          "internalType": "uint256",
          "name": "_projectId",
          "type": "uint256"
        },
        {
          "internalType": "contract IJBPaymentTerminal",
          "name": "_to",
          "type": "address"
        }
      ],
      "name": "migrate",
      "outputs": [
        {
          "internalType": "uint256",
          "name": "balance",
          "type": "uint256"
        }
      ],
      "stateMutability": "nonpayable",
      "type": "function"
    },
    {
      "inputs": [],
      "name": "operatorStore",
      "outputs": [
        {
          "internalType": "contract IJBOperatorStore",
          "name": "",
          "type": "address"
        }
      ],
      "stateMutability": "view",
      "type": "function"
    },
    {
      "inputs": [],
      "name": "owner",
      "outputs": [
        {
          "internalType": "address",
          "name": "",
          "type": "address"
        }
      ],
      "stateMutability": "view",
      "type": "function"
    },
    {
      "inputs": [
        {
          "internalType": "uint256",
          "name": "_projectId",
          "type": "uint256"
        },
        {
          "internalType": "uint256",
          "name": "_amount",
          "type": "uint256"
        },
        {
          "internalType": "address",
          "name": "_token",
          "type": "address"
        },
        {
          "internalType": "address",
          "name": "_beneficiary",
          "type": "address"
        },
        {
          "internalType": "uint256",
          "name": "_minReturnedTokens",
          "type": "uint256"
        },
        {
          "internalType": "bool",
          "name": "_preferClaimedTokens",
          "type": "bool"
        },
        {
          "internalType": "string",
          "name": "_memo",
          "type": "string"
        },
        {
          "internalType": "bytes",
          "name": "_metadata",
          "type": "bytes"
        }
      ],
      "name": "pay",
      "outputs": [
        {
          "internalType": "uint256",
          "name": "",
          "type": "uint256"
        }
      ],
      "stateMutability": "payable",
      "type": "function"
    },
    {
      "inputs": [],
      "name": "payoutSplitsGroup",
      "outputs": [
        {
          "internalType": "uint256",
          "name": "",
          "type": "uint256"
        }
      ],
      "stateMutability": "view",
      "type": "function"
    },
    {
      "inputs": [],
      "name": "prices",
      "outputs": [
        {
          "internalType": "contract IJBPrices",
          "name": "",
          "type": "address"
        }
      ],
      "stateMutability": "view",
      "type": "function"
    },
    {
      "inputs": [
        {
          "internalType": "uint256",
          "name": "_projectId",
          "type": "uint256"
        }
      ],
      "name": "processFees",
      "outputs": [],
      "stateMutability": "nonpayable",
      "type": "function"
    },
    {
      "inputs": [],
      "name": "projects",
      "outputs": [
        {
          "internalType": "contract IJBProjects",
          "name": "",
          "type": "address"
        }
      ],
      "stateMutability": "view",
      "type": "function"
    },
    {
      "inputs": [
        {
          "internalType": "address",
          "name": "_holder",
          "type": "address"
        },
        {
          "internalType": "uint256",
          "name": "_projectId",
          "type": "uint256"
        },
        {
          "internalType": "uint256",
          "name": "_tokenCount",
          "type": "uint256"
        },
        {
          "internalType": "address",
          "name": "_token",
          "type": "address"
        },
        {
          "internalType": "uint256",
          "name": "_minReturnedTokens",
          "type": "uint256"
        },
        {
          "internalType": "address payable",
          "name": "_beneficiary",
          "type": "address"
        },
        {
          "internalType": "string",
          "name": "_memo",
          "type": "string"
        },
        {
          "internalType": "bytes",
          "name": "_metadata",
          "type": "bytes"
        }
      ],
      "name": "redeemTokensOf",
      "outputs": [
        {
          "internalType": "uint256",
          "name": "reclaimAmount",
          "type": "uint256"
        }
      ],
      "stateMutability": "nonpayable",
      "type": "function"
    },
    {
      "inputs": [],
      "name": "renounceOwnership",
      "outputs": [],
      "stateMutability": "nonpayable",
      "type": "function"
    },
    {
      "inputs": [
        {
          "internalType": "uint256",
          "name": "_fee",
          "type": "uint256"
        }
      ],
      "name": "setFee",
      "outputs": [],
      "stateMutability": "nonpayable",
      "type": "function"
    },
    {
      "inputs": [
        {
          "internalType": "address",
          "name": "_feeGauge",
          "type": "address"
        }
      ],
      "name": "setFeeGauge",
      "outputs": [],
      "stateMutability": "nonpayable",
      "type": "function"
    },
    {
      "inputs": [
        {
          "internalType": "address",
          "name": "_address",
          "type": "address"
        },
        {
          "internalType": "bool",
          "name": "_flag",
          "type": "bool"
        }
      ],
      "name": "setFeelessAddress",
      "outputs": [],
      "stateMutability": "nonpayable",
      "type": "function"
    },
    {
      "inputs": [],
      "name": "splitsStore",
      "outputs": [
        {
          "internalType": "contract IJBSplitsStore",
          "name": "",
          "type": "address"
        }
      ],
      "stateMutability": "view",
      "type": "function"
    },
    {
      "inputs": [],
      "name": "store",
      "outputs": [
        {
          "internalType": "address",
          "name": "",
          "type": "address"
        }
      ],
      "stateMutability": "view",
      "type": "function"
    },
    {
      "inputs": [
        {
          "internalType": "bytes4",
          "name": "_interfaceId",
          "type": "bytes4"
        }
      ],
      "name": "supportsInterface",
      "outputs": [
        {
          "internalType": "bool",
          "name": "",
          "type": "bool"
        }
      ],
      "stateMutability": "view",
      "type": "function"
    },
    {
      "inputs": [],
      "name": "token",
      "outputs": [
        {
          "internalType": "address",
          "name": "",
          "type": "address"
        }
      ],
      "stateMutability": "view",
      "type": "function"
    },
    {
      "inputs": [
        {
          "internalType": "address",
          "name": "newOwner",
          "type": "address"
        }
      ],
      "name": "transferOwnership",
      "outputs": [],
      "stateMutability": "nonpayable",
      "type": "function"
    },
    {
      "inputs": [
        {
          "internalType": "uint256",
          "name": "_projectId",
          "type": "uint256"
        },
        {
          "internalType": "uint256",
          "name": "_amount",
          "type": "uint256"
        },
        {
          "internalType": "uint256",
          "name": "_currency",
          "type": "uint256"
        },
        {
          "internalType": "address",
          "name": "_token",
          "type": "address"
        },
        {
          "internalType": "uint256",
          "name": "_minReturnedTokens",
          "type": "uint256"
        },
        {
          "internalType": "address payable",
          "name": "_beneficiary",
          "type": "address"
        },
        {
          "internalType": "string",
          "name": "_memo",
          "type": "string"
        },
        {
          "internalType": "bytes",
          "name": "_metadata",
          "type": "bytes"
        }
      ],
      "name": "useAllowanceOf",
      "outputs": [
        {
          "internalType": "uint256",
          "name": "netDistributedAmount",
          "type": "uint256"
        }
      ],
      "stateMutability": "nonpayable",
      "type": "function"
    }
  ],
  "bytecode": {
    "object": "0x6101e060405263017d78406002553480156200001a57600080fd5b5060405162005b9e38038062005b9e8339810160408190526200003d9162000216565b61eeee6080819052601260a0819052600160c08190526001600160a01b038a1660e0528a818b8b8b8b8b8b8b6200007433620000cf565b6101a08990526101c08890526001600160a01b0380871661010052858116610120528481166101405283811661016052821661018052620000b5816200011f565b5050505050505050505050505050505050505050620002cb565b600080546001600160a01b038381166001600160a01b0319831681178455604051919092169283917f8be0079c531659141344cd1fd0a4f28419497f9722a3daafe3b4186f6b6457e09190a35050565b62000129620001a2565b6001600160a01b038116620001945760405162461bcd60e51b815260206004820152602660248201527f4f776e61626c653a206e6577206f776e657220697320746865207a65726f206160448201526564647265737360d01b60648201526084015b60405180910390fd5b6200019f81620000cf565b50565b6000546001600160a01b03163314620001fe5760405162461bcd60e51b815260206004820181905260248201527f4f776e61626c653a2063616c6c6572206973206e6f7420746865206f776e657260448201526064016200018b565b565b6001600160a01b03811681146200019f57600080fd5b600080600080600080600080610100898b0312156200023457600080fd5b885197506020890151620002488162000200565b60408a01519097506200025b8162000200565b60608a01519096506200026e8162000200565b60808a0151909550620002818162000200565b60a08a0151909450620002948162000200565b60c08a0151909350620002a78162000200565b60e08a0151909250620002ba8162000200565b809150509295985092959890939650565b60805160a05160c05160e05161010051610120516101405161016051610180516101a0516101c05161565b62000543600039600081816103cf015261204501526000818161030701526118ea0152600081816104f701528181610c2001528181611349015281816118b801528181611ef3015281816125b101528181612696015281816129dd01528181612af601528181613b6b0152613f2201526000818161065601526114ce0152600081816102bb015261328c01526000818161060f015281816108590152818161092d015281816115730152818161199b015281816123d501528181612bc10152818161313a0152613c8c0152600081816104a501528181610adb01528181610f370152818161127e01528181611f9f015261274c01526000818161056b01528181611d8701528181611e230152818161220701526122a30152600081816102660152818161070e015281816114190152818161147b0152818161189201528181611b3c01528181612d270152612de601526000818161033b015281816105db015281816113ba015281816113e601528181611446015281816114a80152818161186c01528181611b1601528181612d0101528181612dc00152613a080152600081816106cc01528181610762015281816109b701528181610b7301528181610ca101528181610d14015281816116050152818161183701528181611ae101528181611bfc015281816123aa01528181612448015281816124f401528181612ccb01528181612d8b01528181612e680152818161310d015281816139d301528181613a7d01528181613cb901528181613e2501528181613e6301528181613fec0152614030015261565b6000f3fe6080604052600436106101f95760003560e01c80638da5cb5b1161010d578063c715967a116100a0578063df21a7dd1161006f578063df21a7dd146106ae578063e5a6b10f146106fc578063f2fde38b14610730578063fc0c546a14610750578063fe663f0f1461078457600080fd5b8063c715967a14610631578063d3419bf314610644578063d6dacc5314610678578063ddca3f431461069857600080fd5b8063ad007d63116100dc578063ad007d6314610559578063b631b5001461058d578063b7bad1b1146105bd578063c41c2f24146105fd57600080fd5b80638da5cb5b146104c7578063975057e7146104e5578063a02f801c14610519578063a32e1e961461053957600080fd5b80634a4305c011610190578063715018a61161015f578063715018a6146104115780637258002c1461042657806389701db5146104465780638af56094146104665780638b79543c1461049357600080fd5b80634a4305c01461037d578063637913ac1461039d57806366248b86146103bd57806369fe0e2d146103f157600080fd5b80632bdfe004116101cc5780632bdfe004146102a95780632d1a5903146102f5578063313ce56714610329578063405b84fa1461035d57600080fd5b806301ffc9a7146101fe5780630cf8e858146102335780631982d679146102485780631ebc263f14610296575b600080fd5b34801561020a57600080fd5b5061021e6102193660046142da565b6107a4565b60405190151581526020015b60405180910390f35b610246610241366004614361565b61083b565b005b34801561025457600080fd5b506102886102633660046143f6565b507f000000000000000000000000000000000000000000000000000000000000000090565b60405190815260200161022a565b6102886102a4366004614421565b610904565b3480156102b557600080fd5b506102dd7f000000000000000000000000000000000000000000000000000000000000000081565b6040516001600160a01b03909116815260200161022a565b34801561030157600080fd5b506102887f000000000000000000000000000000000000000000000000000000000000000081565b34801561033557600080fd5b506102887f000000000000000000000000000000000000000000000000000000000000000081565b34801561036957600080fd5b506102886103783660046144e8565b610ac2565b34801561038957600080fd5b50610288610398366004614518565b610dbe565b3480156103a957600080fd5b506102466103b83660046143f6565b610dda565b3480156103c957600080fd5b506102887f000000000000000000000000000000000000000000000000000000000000000081565b3480156103fd57600080fd5b5061024661040c366004614581565b610e36565b34801561041d57600080fd5b50610246610ea3565b34801561043257600080fd5b5061024661044136600461459a565b610eb7565b34801561045257600080fd5b50610246610461366004614581565b610f21565b34801561047257600080fd5b50610486610481366004614581565b6111b8565b60405161022a91906145c8565b34801561049f57600080fd5b506102dd7f000000000000000000000000000000000000000000000000000000000000000081565b3480156104d357600080fd5b506000546001600160a01b03166102dd565b3480156104f157600080fd5b506102dd7f000000000000000000000000000000000000000000000000000000000000000081565b34801561052557600080fd5b5061028861053436600461476e565b611265565b34801561054557600080fd5b50610288610554366004614581565b611320565b34801561056557600080fd5b506102dd7f000000000000000000000000000000000000000000000000000000000000000081565b34801561059957600080fd5b5061021e6105a83660046143f6565b60046020526000908152604090205460ff1681565b3480156105c957600080fd5b506102886105d83660046143f6565b507f000000000000000000000000000000000000000000000000000000000000000090565b34801561060957600080fd5b506102dd7f000000000000000000000000000000000000000000000000000000000000000081565b61024661063f366004614826565b611555565b34801561065057600080fd5b506102dd7f000000000000000000000000000000000000000000000000000000000000000081565b34801561068457600080fd5b506003546102dd906001600160a01b031681565b3480156106a457600080fd5b5061028860025481565b3480156106ba57600080fd5b5061021e6106c93660046148cd565b507f00000000000000000000000000000000000000000000000000000000000000006001600160a01b0390811691161490565b34801561070857600080fd5b506102887f000000000000000000000000000000000000000000000000000000000000000081565b34801561073c57600080fd5b5061024661074b3660046143f6565b6116f7565b34801561075c57600080fd5b506102dd7f000000000000000000000000000000000000000000000000000000000000000081565b34801561079057600080fd5b5061028861079f3660046148f9565b611775565b60006001600160e01b0319821663edb527eb60e01b14806107d557506001600160e01b031982166301290c1760e61b145b806107f057506001600160e01b0319821663280be00760e21b145b8061080b57506001600160e01b0319821663fe663f0f60e01b145b8061082657506001600160e01b0319821663ad007d6360e01b145b80610835575061083582611795565b92915050565b604051636e49181f60e01b81526004810188905230602482015287907f00000000000000000000000000000000000000000000000000000000000000006001600160a01b031690636e49181f90604401602060405180830381865afa1580156108a8573d6000803e3d6000fd5b505050506040513d601f19601f820116820180604052508101906108cc91906149b1565b6108e957604051631b1d5a5960e31b815260040160405180910390fd5b6108fa888888600089898989611555565b5050505050505050565b604051636e49181f60e01b8152600481018b90523060248201526000908b906001600160a01b037f00000000000000000000000000000000000000000000000000000000000000001690636e49181f90604401602060405180830381865afa158015610974573d6000803e3d6000fd5b505050506040513d601f19601f8201168201806040525081019061099891906149b1565b6109b557604051631b1d5a5960e31b815260040160405180910390fd5b7f00000000000000000000000000000000000000000000000000000000000000006001600160a01b031661eeee14610a24573415610a0657604051635e7e9adf60e11b815260040160405180910390fd5b47610a1233308e6117e5565b610a1c81476149e4565b9b5050610a28565b349a505b610ab28b338e8c8c8c8c8c8080601f016020809104026020016040519081016040528093929190818152602001838380828437600081840152601f19601f820116905080830192505050505050508b8b8080601f0160208091040260200160405190810160405280939291908181526020018383808284376000920191909152506117f492505050565b9c9b505050505050505050505050565b6040516331a9108f60e11b8152600481018390526000907f00000000000000000000000000000000000000000000000000000000000000006001600160a01b031690636352211e90602401602060405180830381865afa158015610b2a573d6000803e3d6000fd5b505050506040513d601f19601f82011682018060405250810190610b4e91906149f7565b836004610b5c838383611d5c565b60405163df21a7dd60e01b81526001600160a01b037f0000000000000000000000000000000000000000000000000000000000000000811660048301526024820188905286169063df21a7dd90604401602060405180830381865afa158015610bc9573d6000803e3d6000fd5b505050506040513d601f19601f82011682018060405250810190610bed91906149b1565b610c0a5760405163581010ed60e01b815260040160405180910390fd5b604051636bb6a5ad60e01b8152600481018790527f00000000000000000000000000000000000000000000000000000000000000006001600160a01b031690636bb6a5ad906024016020604051808303816000875af1158015610c71573d6000803e3d6000fd5b505050506040513d601f19601f82011682018060405250810190610c959190614a14565b93508315610d705760007f00000000000000000000000000000000000000000000000000000000000000006001600160a01b031661eeee14610cd8576000610cda565b845b6040805160208101825260008152905163019f1d0b60e31b81529192506001600160a01b03881691630cf8e858918491610d3c918c918b917f000000000000000000000000000000000000000000000000000000000000000091600401614a7d565b6000604051808303818588803b158015610d5557600080fd5b505af1158015610d69573d6000803e3d6000fd5b5050505050505b604080518581523360208201526001600160a01b0387169188917fa7519e5f94697b7f53e97c5eb46a0c730a296ab686ab8fd333835c5f735784eb910160405180910390a350505092915050565b6000610dce888888878787611ec0565b98975050505050505050565b610de2612128565b600380546001600160a01b0319166001600160a01b0383169081179091556040513381527f0a9a80fe9716605b3e52abb3d792d6a4e7816d6afc02a5a4ef023081feaf9f609060200160405180910390a250565b610e3e612128565b6302faf080811115610e63576040516345fbd9c160e01b815260040160405180910390fd5b6002819055604080518281523360208201527fd7414e590e1cb532989ab2a34c8f4c2c17f7ab6f006efeeaef2e87cd5008c202910160405180910390a150565b610eab612128565b610eb56000612182565b565b610ebf612128565b6001600160a01b038216600081815260046020908152604091829020805460ff191685151590811790915591513381529192917fa2653e25a502c023a5830d0de847ef6f458387865b1f4f575d7594f9f2c0d71e910160405180910390a35050565b6040516331a9108f60e11b8152600481018290527f00000000000000000000000000000000000000000000000000000000000000006001600160a01b031690636352211e90602401602060405180830381865afa158015610f86573d6000803e3d6000fd5b505050506040513d601f19601f82011682018060405250810190610faa91906149f7565b816005610fbf6000546001600160a01b031690565b6001600160a01b0316336001600160a01b031614610fdf848484846121d2565b600085815260016020908152604080832080548251818502810185019093528083529192909190849084015b8282101561107857600084815260209081902060408051608081018252600286029092018054835260019081015463ffffffff8082168587015264010000000082041692840192909252600160401b9091046001600160a01b03166060830152908352909201910161100b565b5050506000888152600160205260408120929350611097929150614239565b805160005b818110156108fa5760006111148483815181106110bb576110bb614ac2565b6020026020010151600001518584815181106110d9576110d9614ac2565b60200260200101516020015163ffffffff168685815181106110fd576110fd614ac2565b60200260200101516040015163ffffffff16612346565b905061113e8185848151811061112c5761112c614ac2565b6020026020010151606001518b61238c565b60011515818a7fcf0c92a2c6d7c42f488326b0cb900104b99984b6b218db81cd29371364a3525187868151811061117757611177614ac2565b602002602001015160600151336040516111a79291906001600160a01b0392831681529116602082015260400190565b60405180910390a45060010161109c565b606060016000838152602001908152602001600020805480602002602001604051908101604052809291908181526020016000905b8282101561125a57600084815260209081902060408051608081018252600286029092018054835260019081015463ffffffff8082168587015264010000000082041692840192909252600160401b9091046001600160a01b0316606083015290835290920191016111ed565b505050509050919050565b6040516331a9108f60e11b8152600481018a90526000907f00000000000000000000000000000000000000000000000000000000000000006001600160a01b031690636352211e90602401602060405180830381865afa1580156112cd573d6000803e3d6000fd5b505050506040513d601f19601f820116820180604052508101906112f191906149f7565b8a60116112ff838383611d5c565b61130f8d8d8d8c8c8c8c8c612663565b9d9c50505050505050505050505050565b60405163035240c760e61b81523060048201526024810182905260009081906001600160a01b037f0000000000000000000000000000000000000000000000000000000000000000169063d49031c090604401602060405180830381865afa158015611390573d6000803e3d6000fd5b505050506040513d601f19601f820116820180604052508101906113b49190614a14565b905060007f00000000000000000000000000000000000000000000000000000000000000006012146114115761140c827f0000000000000000000000000000000000000000000000000000000000000000601261288f565b611413565b815b905060017f00000000000000000000000000000000000000000000000000000000000000001461154b576115468161146c7f0000000000000000000000000000000000000000000000000000000000000000600a614bbc565b604051635268657960e11b81527f00000000000000000000000000000000000000000000000000000000000000006004820152600160248201527f000000000000000000000000000000000000000000000000000000000000000060448201527f00000000000000000000000000000000000000000000000000000000000000006001600160a01b03169063a4d0caf290606401602060405180830381865afa15801561151d573d6000803e3d6000fd5b505050506040513d601f19601f820116820180604052508101906115419190614a14565b6128ec565b61154d565b805b949350505050565b604051636e49181f60e01b81526004810189905230602482015288907f00000000000000000000000000000000000000000000000000000000000000006001600160a01b031690636e49181f90604401602060405180830381865afa1580156115c2573d6000803e3d6000fd5b505050506040513d601f19601f820116820180604052508101906115e691906149b1565b61160357604051631b1d5a5960e31b815260040160405180910390fd5b7f00000000000000000000000000000000000000000000000000000000000000006001600160a01b031661eeee1461167257341561165457604051635e7e9adf60e11b815260040160405180910390fd5b4761166033308b6117e5565b61166a81476149e4565b985050611676565b3497505b6116ec89898888888080601f01602080910402602001604051908101604052809392919081815260200183838082843760009201919091525050604080516020601f8c018190048102820181019092528a815292508a91508990819084018382808284376000920191909152506129b992505050565b505050505050505050565b6116ff612128565b6001600160a01b0381166117695760405162461bcd60e51b815260206004820152602660248201527f4f776e61626c653a206e6577206f776e657220697320746865207a65726f206160448201526564647265737360d01b60648201526084015b60405180910390fd5b61177281612182565b50565b600088886002611786838383611d5c565b610ab28c8c8c8b8b8b8b612aab565b60006001600160e01b0319821663301cdc3960e21b14806117c657506001600160e01b0319821663144b000160e11b145b8061083557506301ffc9a760e01b6001600160e01b0319831614610835565b6117ef8282612fd6565b505050565b60006001600160a01b03861661181d5760405163a762251360e01b815260040160405180910390fd5b61182561425a565b606060008060405180608001604052807f00000000000000000000000000000000000000000000000000000000000000006001600160a01b031681526020018e81526020017f000000000000000000000000000000000000000000000000000000000000000081526020017f000000000000000000000000000000000000000000000000000000000000000081525090507f00000000000000000000000000000000000000000000000000000000000000006001600160a01b0316632fa1b3918d838e7f00000000000000000000000000000000000000000000000000000000000000008f8d8d6040518863ffffffff1660e01b815260040161192e9796959493929190614bf4565b6000604051808303816000875af115801561194d573d6000803e3d6000fd5b505050506040513d6000823e601f3d908101601f191682016040526119759190810190614d58565b995091955090935091508115611aaa57604051632eec7b5560e11b8152600481018c90527f00000000000000000000000000000000000000000000000000000000000000006001600160a01b031690635dd8f6aa90602401602060405180830381865afa1580156119ea573d6000803e3d6000fd5b505050506040513d601f19601f82011682018060405250810190611a0e91906149f7565b604051638ae9c07b60e01b8152600481018d9052602481018490526001600160a01b038c8116604483015260c06064830152600060c48301528a15156084830152600160a48301529190911690638ae9c07b9060e4016020604051808303816000875af1158015611a83573d6000803e3d6000fd5b505050506040513d601f19601f82011682018060405250810190611aa79190614a14565b94505b88851015611acb57604051633dca309360e11b815260040160405180910390fd5b825115611cfe57600060405180608001604052807f00000000000000000000000000000000000000000000000000000000000000006001600160a01b031681526020018f81526020017f000000000000000000000000000000000000000000000000000000000000000081526020017f0000000000000000000000000000000000000000000000000000000000000000815250905060006040518061014001604052808f6001600160a01b031681526020018e8152602001876020015181526020018481526020018381526020018881526020018d6001600160a01b031681526020018b151581526020018a815260200189815250905060008551905060005b81811015611cf9576000878281518110611be757611be7614ac2565b60209081029190910101519050600061eeed197f00000000000000000000000000000000000000000000000000000000000000006001600160a01b031601611c30575060208101515b602080830151608087015190910152815160405163da9ee8b760e01b81526001600160a01b039091169063da9ee8b7908390611c70908990600401614f0f565b6000604051808303818588803b158015611c8957600080fd5b505af1158015611c9d573d6000803e3d6000fd5b505050505081600001516001600160a01b03167f16112c26e14efc4be6c690149aa5a1ba75160de245f60d2273e28adb277b9e1286846020015133604051611ce793929190614f22565b60405180910390a25050600101611bcb565b505050505b50505087816000015182602001517f133161f1c9161488f777ab9a26aae91d47c0d9a3fafb398960f138db02c737978c8b8f888b8b33604051611d479796959493929190614f55565b60405180910390a45098975050505050505050565b336001600160a01b03841614801590611e05575060405163c161c93f60e01b81526001600160a01b037f0000000000000000000000000000000000000000000000000000000000000000169063c161c93f90611dc2903390879087908790600401614fb5565b602060405180830381865afa158015611ddf573d6000803e3d6000fd5b505050506040513d601f19601f82011682018060405250810190611e0391906149b1565b155b8015611ea2575060405163c161c93f60e01b81526001600160a01b037f0000000000000000000000000000000000000000000000000000000000000000169063c161c93f90611e5f90339087906000908790600401614fb5565b602060405180830381865afa158015611e7c573d6000803e3d6000fd5b505050506040513d601f19601f82011682018060405250810190611ea091906149b1565b155b156117ef5760405163075fd2b160e01b815260040160405180910390fd5b60405163c664459760e01b8152600481018790526024810186905260448101859052600090819081906001600160a01b037f0000000000000000000000000000000000000000000000000000000000000000169063c664459790606401610140604051808303816000875af1158015611f3d573d6000803e3d6000fd5b505050506040513d601f19601f82011682018060405250810190611f619190614fde565b9150915085811015611f865760405163b01493c160e01b815260040160405180910390fd5b6040516331a9108f60e11b8152600481018a90526000907f00000000000000000000000000000000000000000000000000000000000000006001600160a01b031690636352211e90602401602060405180830381865afa158015611fee573d6000803e3d6000fd5b505050506040513d601f19601f8201168201806040525081019061201291906149f7565b905060008060025460001461202f5761202a8c6130ef565b612035565b633b9aca005b905060008061206b8e88602001517f0000000000000000000000000000000000000000000000000000000000000000898761325b565b92509050633b9aca00831461207f57908101905b8160000361208e57600061209b565b61209b8e88848887613403565b935080156120c7576120b08160025485612346565b6120ba90826149e4565b97506120c730868a6117e5565b5050508a846000015185602001517fc41a8d26c70cfcf1b9ea10f82482ac947b8be5bea2750bc729af844bbfde1e28858e88878c8f8f33604051612112989796959493929190615036565b60405180910390a4505050509695505050505050565b6000546001600160a01b03163314610eb55760405162461bcd60e51b815260206004820181905260248201527f4f776e61626c653a2063616c6c6572206973206e6f7420746865206f776e65726044820152606401611760565b600080546001600160a01b038381166001600160a01b0319831681178455604051919092169283917f8be0079c531659141344cd1fd0a4f28419497f9722a3daafe3b4186f6b6457e09190a35050565b801580156121e95750336001600160a01b03851614155b8015612285575060405163c161c93f60e01b81526001600160a01b037f0000000000000000000000000000000000000000000000000000000000000000169063c161c93f90612242903390889088908890600401614fb5565b602060405180830381865afa15801561225f573d6000803e3d6000fd5b505050506040513d601f19601f8201168201806040525081019061228391906149b1565b155b8015612322575060405163c161c93f60e01b81526001600160a01b037f0000000000000000000000000000000000000000000000000000000000000000169063c161c93f906122df90339088906000908890600401614fb5565b602060405180830381865afa1580156122fc573d6000803e3d6000fd5b505050506040513d601f19601f8201168201806040525081019061232091906149b1565b155b156123405760405163075fd2b160e01b815260040160405180910390fd5b50505050565b6000806123588484633b9aca006128ec565b61236290856149e4565b905061237785633b9aca006115418185615089565b61238190866149e4565b9150505b9392505050565b604051630862026560e41b8152600160048201526001600160a01b037f0000000000000000000000000000000000000000000000000000000000000000811660248301526000917f000000000000000000000000000000000000000000000000000000000000000090911690638620265090604401602060405180830381865afa15801561241e573d6000803e3d6000fd5b505050506040513d601f19601f8201168201806040525081019061244291906149f7565b905060007f00000000000000000000000000000000000000000000000000000000000000006001600160a01b031661eeee1461247f576000612481565b845b60408051602080825281830190925291925060009190602082018180368337019050509050836040516020016124b991815260200190565b60408051808303601f1901815290829052631ebc263f60e01b825291506001600160a01b03841690631ebc263f908490612525906001908b907f0000000000000000000000000000000000000000000000000000000000000000908c9060009081908b9060040161509c565b60206040518083038185885af193505050508015612560575060408051601f3d908101601f1916820190925261255d91810190614a14565b60015b612659573d80801561258e576040519150601f19603f3d011682016040523d82523d6000602084013e612593565b606091505b5060405163e7c8e3e360e01b815260048101869052602481018890527f00000000000000000000000000000000000000000000000000000000000000006001600160a01b03169063e7c8e3e390604401600060405180830381600087803b1580156125fd57600080fd5b505af1158015612611573d6000803e3d6000fd5b505050506001857f80a889d08f0d59eb962335b57fb1d5b29e86e3d23f15087b5541fddf15422bbe89843360405161264b939291906150f4565b60405180910390a35061265b565b505b505050505050565b604051632538671560e01b8152600481018990526024810188905260448101879052600090819081906001600160a01b037f00000000000000000000000000000000000000000000000000000000000000001690632538671590606401610140604051808303816000875af11580156126e0573d6000803e3d6000fd5b505050506040513d601f19601f820116820180604052508101906127049190614fde565b91509150878110156127295760405163b01493c160e01b815260040160405180910390fd5b6040516331a9108f60e11b8152600481018c905260009081906001600160a01b037f00000000000000000000000000000000000000000000000000000000000000001690636352211e90602401602060405180830381865afa158015612793573d6000803e3d6000fd5b505050506040513d601f19601f820116820180604052508101906127b791906149f7565b90506000600254600014806127db57503360009081526004602052604090205460ff165b6127ed576127e88e6130ef565b6127f3565b633b9aca005b9050633b9aca0081146128125761280d8e86868585613403565b612815565b60005b8085039650925083831461282e5761282e308b886117e5565b5050508a826000015183602001517f2eeee47c6d8d31c3523c3aa07b4c3e3795db36be4c04546ef3e30a5102f568e18a8e86898d8d8d33604051612879989796959493929190615125565b60405180910390a4505098975050505050505050565b600082820361289f575082612385565b828211156128cd576128b183836149e4565b6128bc90600a614bbc565b6128c69085615185565b9050612385565b6128d782846149e4565b6128e290600a614bbc565b6128c690856151b2565b60008080600019858709858702925082811083820303915050806000036129265783828161291c5761291c61519c565b0492505050612385565b83811061295057604051631dcf306360e21b81526004810182905260248101859052604401611760565b60008486880960026001871981018816978890046003810283188082028403028082028403028082028403028082028403028082028403029081029092039091026000889003889004909101858311909403939093029303949094049190911702949350505050565b6000836129c75760006129d1565b6129d18686613592565b90506001600160a01b037f00000000000000000000000000000000000000000000000000000000000000001663e7c8e3e387612a0d8489615089565b6040516001600160e01b031960e085901b16815260048101929092526024820152604401600060405180830381600087803b158015612a4b57600080fd5b505af1158015612a5f573d6000803e3d6000fd5b50505050857f9ecaf7fc3dfffd6867c175d6e684b1f1e3aef019398ba8db2c1ffab4a09db2538683868633604051612a9b9594939291906151d4565b60405180910390a2505050505050565b60006001600160a01b038416612ad457604051637ba50db360e11b815260040160405180910390fd5b612adc61425a565b60405163a2df1f9560e01b81526060906001600160a01b037f0000000000000000000000000000000000000000000000000000000000000000169063a2df1f9590612b33908d908d908d908b908b90600401615220565b6000604051808303816000875af1158015612b52573d6000803e3d6000fd5b505050506040513d6000823e601f3d908101601f19168201604052612b7a919081019061525f565b9750909450909250905086831015612ba55760405163f896960b60e01b815260040160405180910390fd5b8715612cb557604051632eec7b5560e11b8152600481018a90527f00000000000000000000000000000000000000000000000000000000000000006001600160a01b031690635dd8f6aa90602401602060405180830381865afa158015612c10573d6000803e3d6000fd5b505050506040513d601f19601f82011682018060405250810190612c3491906149f7565b604051631665bc0f60e01b81526001600160a01b038c81166004830152602482018c9052604482018b905260a06064830152600060a4830181905260848301529190911690631665bc0f9060c401600060405180830381600087803b158015612c9c57600080fd5b505af1158015612cb0573d6000803e3d6000fd5b505050505b805115612f6a57600060405180608001604052807f00000000000000000000000000000000000000000000000000000000000000006001600160a01b03168152602001600081526020017f000000000000000000000000000000000000000000000000000000000000000081526020017f0000000000000000000000000000000000000000000000000000000000000000815250905060006040518061012001604052808d6001600160a01b031681526020018c8152602001856020015181526020018b815260200160405180608001604052807f00000000000000000000000000000000000000000000000000000000000000006001600160a01b031681526020018881526020017f000000000000000000000000000000000000000000000000000000000000000081526020017f00000000000000000000000000000000000000000000000000000000000000008152508152602001838152602001896001600160a01b0316815260200188815260200187815250905060008351905060005b81811015612f65576000858281518110612e5357612e53614ac2565b60209081029190910101519050600061eeed197f00000000000000000000000000000000000000000000000000000000000000006001600160a01b031601612e9c575060208101515b60208083015160a0870151909101528151604051632b13c58f60e01b81526001600160a01b0390911690632b13c58f908390612edc9089906004016153d6565b6000604051808303818588803b158015612ef557600080fd5b505af1158015612f09573d6000803e3d6000fd5b505050505081600001516001600160a01b03167f54b3744c489f40987dd2726ca12131243334e8292f567389f761c5a432d813e486846020015133604051612f53939291906153e9565b60405180910390a25050600101612e37565b505050505b508115612f7c57612f7c3086846117e5565b87816000015182602001517f2be10f2a0203c77d0fcaa9fd6484a8a1d6904de31cd820587f60c1c8c338c8148c898c888b8b33604051612fc29796959493929190614f55565b60405180910390a450979650505050505050565b804710156130265760405162461bcd60e51b815260206004820152601d60248201527f416464726573733a20696e73756666696369656e742062616c616e63650000006044820152606401611760565b6000826001600160a01b03168260405160006040518083038185875af1925050503d8060008114613073576040519150601f19603f3d011682016040523d82523d6000602084013e613078565b606091505b50509050806117ef5760405162461bcd60e51b815260206004820152603a60248201527f416464726573733a20756e61626c6520746f2073656e642076616c75652c207260448201527f6563697069656e74206d617920686176652072657665727465640000000000006064820152608401611760565b604051630862026560e41b8152600160048201526001600160a01b037f00000000000000000000000000000000000000000000000000000000000000008116602483015260009182917f00000000000000000000000000000000000000000000000000000000000000001690638620265090604401602060405180830381865afa158015613181573d6000803e3d6000fd5b505050506040513d601f19601f820116820180604052508101906131a591906149f7565b6001600160a01b0316036131be5750633b9aca00919050565b6003546001600160a01b03161561325357600354604051633bb4ac4b60e11b8152600481018490526001600160a01b0390911690637769589690602401602060405180830381865afa925050508015613234575060408051601f3d908101601f1916820190925261323191810190614a14565b60015b61324057506000919050565b633b9aca0081116132515792915050565b505b506000919050565b6040516369e11cc560e01b81526004810186905260248101859052604481018490528290600090633b9aca009082907f00000000000000000000000000000000000000000000000000000000000000006001600160a01b0316906369e11cc590606401600060405180830381865afa1580156132db573d6000803e3d6000fd5b505050506040513d6000823e601f3d908101601f1916820160405261330391908101906153fc565b905060005b81518110156133f657600082828151811061332557613325614ac2565b602002602001015190506000848260400151146133545761334f898360400151633b9aca006128ec565b613356565b865b905081604001518561336891906149e4565b94506000613379838e8d858d613962565b9050801580159061338a5750818114155b1561339c576133998288615089565b96505b81156133a85781880397505b8a8c8e7f0d31ab573f6daa4b1edba8d31973b4ba9f98fbfecc47010c1533eeefd2a1225a868686336040516133e09493929190615559565b60405180910390a4836001019350505050613308565b5050509550959350505050565b60006134128460025484612346565b610100860151909150604f1c60019081160361353557600086815260016020818152604080842081516080810183528981526002805463ffffffff9081168387019081528a82168487019081526001600160a01b03808e16606087019081528754808c018955978c5298909a2094519584029094019485555193909601805492519551909716600160401b02600160401b600160e01b03199587166401000000000267ffffffffffffffff19909316939096169290921717929092169290921790925590549051859088907f77813be0661650ddc1a5193ff2837df4162b251cb432651e2c060c3fc39756be90613528908790899033909283526001600160a01b03918216602084015216604082015260600190565b60405180910390a4613589565b61354081848861238c565b604080516001600160a01b0385168152336020820152600091839189917fcf0c92a2c6d7c42f488326b0cb900104b99984b6b218db81cd29371364a35251910160405180910390a45b95945050505050565b600082815260016020908152604080832080548251818502810185019093528083528493849084015b8282101561362857600084815260209081902060408051608081018252600286029092018054835260019081015463ffffffff8082168587015264010000000082041692840192909252600160401b9091046001600160a01b0316606083015290835290920191016135bb565b5050506000868152600160205260408120929350613647929150614239565b8051839060005b8181101561391a578260000361370d576000878152600160205260409020845185908390811061368057613680614ac2565b60209081029190910181015182546001818101855560009485529383902082516002909202019081559181015191909201805460408401516060909401516001600160a01b0316600160401b02600160401b600160e01b031963ffffffff9586166401000000000267ffffffffffffffff1990931695909416949094171791909116919091179055613912565b83818151811061371f5761371f614ac2565b60200260200101516000015183106137b35783818151811061374357613743614ac2565b602002602001015160000151830392506137aa84828151811061376857613768614ac2565b60200260200101516000015185838151811061378657613786614ac2565b60200260200101516020015163ffffffff168684815181106110fd576110fd614ac2565b85019450613912565b600160008881526020019081526020016000206040518060800160405280858785815181106137e4576137e4614ac2565b60200260200101516000015103815260200186848151811061380857613808614ac2565b60200260200101516020015163ffffffff16815260200186848151811061383157613831614ac2565b60200260200101516040015163ffffffff16815260200186848151811061385a5761385a614ac2565b6020908102919091018101516060908101516001600160a01b0390811690935284546001818101875560009687529583902085516002909202019081559184015191909401805460408501519490950151909216600160401b02600160401b600160e01b031963ffffffff9485166401000000000267ffffffffffffffff1990961694909216939093179390931792909216179055835161390990849086908490811061378657613786614ac2565b85019450600092505b60010161364e565b50604080518381523360208201528591879189917f59860d79d97c1fce2be7f987915c631471f4b08f671200463cc40a3380194ffb910160405180910390a450505092915050565b60c08501516000906001600160a01b031615613c6357633b9aca008214806139a6575060c08601516001600160a01b031660009081526004602052604090205460ff165b156139b25750816139c4565b6139bf8360025484612346565b830390505b60006040518060c001604052807f00000000000000000000000000000000000000000000000000000000000000006001600160a01b031681526020018381526020017f0000000000000000000000000000000000000000000000000000000000000000815260200187815260200186815260200188815250905060006060613a578960c00151634eba05fd60e11b614161565b15613b3f578860c001516001600160a01b0316639d740bfa61eeee6001600160a01b03167f00000000000000000000000000000000000000000000000000000000000000006001600160a01b031614613ab1576000613ab3565b855b856040518363ffffffff1660e01b8152600401613ad0919061558e565b6000604051808303818588803b158015613ae957600080fd5b505af193505050508015613afb575060015b613b3a573d808015613b29576040519150601f19603f3d011682016040523d82523d6000602084013e613b2e565b606091505b50600192509050613b44565b613b44565b600291505b8115613c5b5760405163e7c8e3e360e01b81526004810189905260248101879052600094507f00000000000000000000000000000000000000000000000000000000000000006001600160a01b03169063e7c8e3e390604401600060405180830381600087803b158015613bb757600080fd5b505af1158015613bcb573d6000803e3d6000fd5b50505050877f290b5df59e172593762964e4f8ed2b4a9192d3197bfd2be4bae123908f8007968a8885600114613c3f57604051602001613c2b906020808252600c908201526b12515490cc4d8d4819985a5b60a21b604082015260600190565b604051602081830303815290604052613c41565b845b33604051613c5294939291906155e2565b60405180910390a25b505050613589565b606086015115614104576060860151604051630862026560e41b81526000916001600160a01b037f00000000000000000000000000000000000000000000000000000000000000001691638620265091613cf3917f0000000000000000000000000000000000000000000000000000000000000000906004019182526001600160a01b0316602082015260400190565b602060405180830381865afa158015613d10573d6000803e3d6000fd5b505050506040513d601f19601f82011682018060405250810190613d3491906149f7565b90506001600160a01b038116613d5d57604051636921234360e01b815260040160405180910390fd5b6001600160a01b038116301480613d775750633b9aca0083145b80613d9a57506001600160a01b03811660009081526004602052604090205460ff165b15613da757839150613db9565b613db48460025485612346565b840391505b60408051602080825281830190925260009160208201818036833701905050905086604051602001613ded91815260200190565b6040516020818303038152906040529050876020015115613fcf57816001600160a01b0316630cf8e85861eeee6001600160a01b03167f00000000000000000000000000000000000000000000000000000000000000006001600160a01b031614613e59576000613e5b565b845b8a60600151867f0000000000000000000000000000000000000000000000000000000000000000866040518663ffffffff1660e01b8152600401613ea29493929190614a7d565b6000604051808303818588803b158015613ebb57600080fd5b505af193505050508015613ecd575060015b613fca573d808015613efb576040519150601f19603f3d011682016040523d82523d6000602084013e613f00565b606091505b5060405163e7c8e3e360e01b81526004810189905260248101879052600094507f00000000000000000000000000000000000000000000000000000000000000006001600160a01b03169063e7c8e3e390604401600060405180830381600087803b158015613f6e57600080fd5b505af1158015613f82573d6000803e3d6000fd5b50505050877f290b5df59e172593762964e4f8ed2b4a9192d3197bfd2be4bae123908f8007968a888433604051613fbc94939291906155e2565b60405180910390a2506140fd565b6140fd565b816001600160a01b0316631ebc263f61eeee6001600160a01b03167f00000000000000000000000000000000000000000000000000000000000000006001600160a01b031614614020576000614022565b845b60608b015160808c015187907f0000000000000000000000000000000000000000000000000000000000000000906001600160a01b03166140635733614069565b8d608001515b8e516040516001600160e01b031960e089901b16815261409495949392916000918b9060040161509c565b60206040518083038185885af1935050505080156140cf575060408051601f3d908101601f191682019092526140cc91810190614a14565b60015b613c5b573d808015613efb576040519150601f19603f3d011682016040523d82523d6000602084013e613f00565b5050613589565b60808601516000906001600160a01b031661411f5733614125565b86608001515b9050633b9aca00830361413a5783915061414c565b6141478460025485612346565b840391505b6141573082846117e5565b5095945050505050565b600061416c8361417d565b8015612385575061238583836141b0565b6000614190826301ffc9a760e01b6141b0565b801561083557506141a9826001600160e01b03196141b0565b1592915050565b604080516001600160e01b03198316602480830191909152825180830390910181526044909101909152602080820180516001600160e01b03166301ffc9a760e01b178152825160009392849283928392918391908a617530fa92503d91506000519050828015614222575060208210155b801561422e5750600081115b979650505050505050565b508054600082556002029060005260206000209081019061177291906142af565b6040518061012001604052806000815260200160008152602001600081526020016000815260200160008152602001600081526020016000815260200160006001600160a01b03168152602001600081525090565b5b808211156142d657600081556001810180546001600160e01b03191690556002016142b0565b5090565b6000602082840312156142ec57600080fd5b81356001600160e01b03198116811461238557600080fd5b6001600160a01b038116811461177257600080fd5b60008083601f84011261432b57600080fd5b5081356001600160401b0381111561434257600080fd5b60208301915083602082850101111561435a57600080fd5b9250929050565b600080600080600080600060a0888a03121561437c57600080fd5b8735965060208801359550604088013561439581614304565b945060608801356001600160401b03808211156143b157600080fd5b6143bd8b838c01614319565b909650945060808a01359150808211156143d657600080fd5b506143e38a828b01614319565b989b979a50959850939692959293505050565b60006020828403121561440857600080fd5b813561238581614304565b801515811461177257600080fd5b6000806000806000806000806000806101008b8d03121561444157600080fd5b8a35995060208b0135985060408b013561445a81614304565b975060608b013561446a81614304565b965060808b0135955060a08b013561448181614413565b945060c08b01356001600160401b038082111561449d57600080fd5b6144a98e838f01614319565b909650945060e08d01359150808211156144c257600080fd5b506144cf8d828e01614319565b915080935050809150509295989b9194979a5092959850565b600080604083850312156144fb57600080fd5b82359150602083013561450d81614304565b809150509250929050565b600080600080600080600060c0888a03121561453357600080fd5b873596506020880135955060408801359450606088013561455381614304565b93506080880135925060a08801356001600160401b0381111561457557600080fd5b6143e38a828b01614319565b60006020828403121561459357600080fd5b5035919050565b600080604083850312156145ad57600080fd5b82356145b881614304565b9150602083013561450d81614413565b602080825282518282018190526000919060409081850190868401855b82811015614631578151805185528681015163ffffffff908116888701528682015116868601526060908101516001600160a01b031690850152608090930192908501906001016145e5565b5091979650505050505050565b634e487b7160e01b600052604160045260246000fd5b60405161012081016001600160401b03811182821017156146775761467761463e565b60405290565b604080519081016001600160401b03811182821017156146775761467761463e565b60405160e081016001600160401b03811182821017156146775761467761463e565b604051601f8201601f191681016001600160401b03811182821017156146e9576146e961463e565b604052919050565b60006001600160401b0382111561470a5761470a61463e565b50601f01601f191660200190565b600082601f83011261472957600080fd5b813561473c614737826146f1565b6146c1565b81815284602083860101111561475157600080fd5b816020850160208301376000918101602001919091529392505050565b60008060008060008060008060006101008a8c03121561478d57600080fd5b8935985060208a0135975060408a0135965060608a01356147ad81614304565b955060808a0135945060a08a01356147c481614304565b935060c08a01356001600160401b03808211156147e057600080fd5b6147ec8d838e01614718565b945060e08c013591508082111561480257600080fd5b5061480f8c828d01614319565b915080935050809150509295985092959850929598565b60008060008060008060008060c0898b03121561484257600080fd5b8835975060208901359650604089013561485b81614304565b9550606089013561486b81614413565b945060808901356001600160401b038082111561488757600080fd5b6148938c838d01614319565b909650945060a08b01359150808211156148ac57600080fd5b506148b98b828c01614319565b999c989b5096995094979396929594505050565b600080604083850312156148e057600080fd5b82356148eb81614304565b946020939093013593505050565b600080600080600080600080610100898b03121561491657600080fd5b883561492181614304565b97506020890135965060408901359550606089013561493f81614304565b94506080890135935060a089013561495681614304565b925060c08901356001600160401b038082111561497257600080fd5b61497e8c838d01614718565b935060e08b013591508082111561499457600080fd5b506149a18b828c01614718565b9150509295985092959890939650565b6000602082840312156149c357600080fd5b815161238581614413565b634e487b7160e01b600052601160045260246000fd5b81810381811115610835576108356149ce565b600060208284031215614a0957600080fd5b815161238581614304565b600060208284031215614a2657600080fd5b5051919050565b60005b83811015614a48578181015183820152602001614a30565b50506000910152565b60008151808452614a69816020860160208601614a2d565b601f01601f19169290920160200192915050565b84815283602082015260018060a01b038316604082015260a06060820152600060a082015260c060808201526000614ab860c0830184614a51565b9695505050505050565b634e487b7160e01b600052603260045260246000fd5b600181815b80851115614b13578160001904821115614af957614af96149ce565b80851615614b0657918102915b93841c9390800290614add565b509250929050565b600082614b2a57506001610835565b81614b3757506000610835565b8160018114614b4d5760028114614b5757614b73565b6001915050610835565b60ff841115614b6857614b686149ce565b50506001821b610835565b5060208310610133831016604e8410600b8410161715614b96575081810a610835565b614ba08383614ad8565b8060001904821115614bb457614bb46149ce565b029392505050565b60006123858383614b1b565b80516001600160a01b031682526020808201519083015260408082015190830152606090810151910152565b6001600160a01b03888116825260009061014090614c15602085018b614bc8565b8860a08501528760c085015280871660e08501525080610100840152614c3d81840186614a51565b9050828103610120840152614c528185614a51565b9a9950505050505050505050565b8051614c6b81614304565b919050565b60006101208284031215614c8357600080fd5b614c8b614654565b9050815181526020820151602082015260408201516040820152606082015160608201526080820151608082015260a082015160a082015260c082015160c0820152614cd960e08301614c60565b60e082015261010080830151818301525092915050565b60006001600160401b03821115614d0957614d0961463e565b5060051b60200190565b600082601f830112614d2457600080fd5b8151614d32614737826146f1565b818152846020838601011115614d4757600080fd5b61154d826020830160208701614a2d565b6000806000806101808587031215614d6f57600080fd5b614d798686614c70565b935061012085015192506101408501516001600160401b0380821115614d9e57600080fd5b818701915087601f830112614db257600080fd5b81516020614dc261473783614cf0565b82815260069290921b8401810191818101908b841115614de157600080fd5b948201945b83861015614e2d576040868d031215614dff5760008081fd5b614e0761467d565b8651614e1281614304565b81528684015184820152825260409095019490820190614de6565b6101608b0151909750945050505080821115614e4857600080fd5b50614e5587828801614d13565b91505092959194509250565b80516001600160a01b03168252600061020060208301516020850152604083015160408501526060830151614e996060860182614bc8565b506080830151614eac60e0860182614bc8565b5060a083015161016085015260c08301516001600160a01b031661018085015260e083015115156101a08501526101008301516101c08501829052614ef382860182614a51565b9150506101208301518482036101e08601526135898282614a51565b6020815260006123856020830184614e61565b606081526000614f356060830186614e61565b6020830194909452506001600160a01b0391909116604090910152919050565b600060018060a01b03808a168352808916602084015287604084015286606084015260e06080840152614f8b60e0840187614a51565b83810360a0850152614f9d8187614a51565b92505080841660c08401525098975050505050505050565b6001600160a01b0394851681529290931660208301526040820152606081019190915260800190565b6000806101408385031215614ff257600080fd5b614ffc8484614c70565b915061012083015190509250929050565b81835281816020850137506000828201602090810191909152601f909101601f19169091010190565b600060018060a01b03808b16835289602084015288604084015287606084015286608084015260e060a084015261507160e08401868861500d565b915080841660c0840152509998505050505050505050565b80820180821115610835576108356149ce565b878152602081018790526001600160a01b038681166040830152851660608201526080810184905282151560a082015261010060c08201819052600090820181905261012060e08301819052614c5281840185614a51565b83815260606020820152600061510d6060830185614a51565b905060018060a01b0383166040830152949350505050565b600060018060a01b03808b16835289602084015288604084015287606084015260e0608084015261515960e0840188614a51565b83810360a085015261516c81878961500d565b92505080841660c0840152509998505050505050505050565b8082028115828204841417610835576108356149ce565b634e487b7160e01b600052601260045260246000fd5b6000826151cf57634e487b7160e01b600052601260045260246000fd5b500490565b85815284602082015260a0604082015260006151f360a0830186614a51565b82810360608401526152058186614a51565b91505060018060a01b03831660808301529695505050505050565b60018060a01b038616815284602082015283604082015260a06060820152600061524d60a0830185614a51565b8281036080840152610dce8185614a51565b600080600080610180858703121561527657600080fd5b6152808686614c70565b935061012085015192506101408501516001600160401b03808211156152a557600080fd5b818701915087601f8301126152b957600080fd5b815160206152c961473783614cf0565b82815260069290921b8401810191818101908b8411156152e857600080fd5b948201945b83861015614e2d576040868d0312156153065760008081fd5b61530e61467d565b865161531981614304565b815286840151848201528252604090950194908201906152ed565b80516001600160a01b0316825260006101e060208301516020850152604083015160408501526060830151606085015260808301516153766080860182614bc8565b5060a083015161010061538b81870183614bc8565b60c08501516001600160a01b031661018087015260e08501516101a0870184905291506153ba83870183614a51565b9250808501519150508482036101c08601526135898282614a51565b6020815260006123856020830184615334565b606081526000614f356060830186615334565b6000602080838503121561540f57600080fd5b82516001600160401b0381111561542557600080fd5b8301601f8101851361543657600080fd5b805161544461473782614cf0565b81815260e0918202830184019184820191908884111561546357600080fd5b938501935b838510156154f95780858a0312156154805760008081fd5b61548861469f565b855161549381614413565b8152858701516154a281614413565b8188015260408681015190820152606080870151908201526080808701516154c981614304565b9082015260a0868101519082015260c0808701516154e681614304565b9082015283529384019391850191615468565b50979650505050505050565b80511515825260208082015115159083015260408082015190830152606080820151908301526080808201516001600160a01b039081169184019190915260a0808301519084015260c09182015116910152565b61014081016155688287615505565b60e08201949094526101008101929092526001600160a01b031661012090910152919050565b81516001600160a01b031681526020808301519082015260408083015190820152606080830151908201526080808301519082015260a0828101516101808301916155db90840182615505565b5092915050565b60006101406155f18388615505565b8560e08401528061010084015261560a81840186614a51565b91505060018060a01b0383166101208301529594505050505056fea26469706673582212203060abc52ec1638fcc06e8db7796e938134cc34d9cefe7c0c6e33fa5b684e93364736f6c63430008140033",
    "linkReferences": {}
  },
  "methodIdentifiers": {
    "acceptsToken(address,uint256)": "df21a7dd",
    "addToBalanceOf(uint256,uint256,address,bool,string,bytes)": "c715967a",
    "addToBalanceOf(uint256,uint256,address,string,bytes)": "0cf8e858",
    "baseWeightCurrency()": "2d1a5903",
    "currency()": "e5a6b10f",
    "currencyForToken(address)": "1982d679",
    "currentEthOverflowOf(uint256)": "a32e1e96",
    "decimals()": "313ce567",
    "decimalsForToken(address)": "b7bad1b1",
    "directory()": "c41c2f24",
    "distributePayoutsOf(uint256,uint256,uint256,address,uint256,bytes)": "4a4305c0",
    "fee()": "ddca3f43",
    "feeGauge()": "d6dacc53",
    "heldFeesOf(uint256)": "8af56094",
    "isFeelessAddress(address)": "b631b500",
    "migrate(uint256,address)": "405b84fa",
    "operatorStore()": "ad007d63",
    "owner()": "8da5cb5b",
    "pay(uint256,uint256,address,address,uint256,bool,string,bytes)": "1ebc263f",
    "payoutSplitsGroup()": "66248b86",
    "prices()": "d3419bf3",
    "processFees(uint256)": "89701db5",
    "projects()": "8b79543c",
    "redeemTokensOf(address,uint256,uint256,address,uint256,address,string,bytes)": "fe663f0f",
    "renounceOwnership()": "715018a6",
    "setFee(uint256)": "69fe0e2d",
    "setFeeGauge(address)": "637913ac",
    "setFeelessAddress(address,bool)": "7258002c",
    "splitsStore()": "2bdfe004",
    "store()": "975057e7",
    "supportsInterface(bytes4)": "01ffc9a7",
    "token()": "fc0c546a",
    "transferOwnership(address)": "f2fde38b",
    "useAllowanceOf(uint256,uint256,uint256,address,uint256,address,string,bytes)": "a02f801c"
  },
  "id": 16
}