{
  "abi": [
    {
      "inputs": [
        {
          "internalType": "uint256",
          "name": "_baseWeightCurrency",
          "type": "uint256"
        },
        {
          "internalType": "contract IJBOperatorStore",
          "name": "_operatorStore",
          "type": "address"
        },
        {
          "internalType": "contract IJBProjects",
          "name": "_projects",
          "type": "address"
        },
        {
          "internalType": "contract IJBDirectory",
          "name": "_directory",
          "type": "address"
        },
        {
          "internalType": "contract IJBSplitsStore",
          "name": "_splitsStore",
          "type": "address"
        },
        {
          "internalType": "contract IJBPrices",
          "name": "_prices",
          "type": "address"
        },
        {
          "internalType": "address",
          "name": "_store",
          "type": "address"
        },
        {
          "internalType": "address",
          "name": "_owner",
          "type": "address"
        }
      ],
      "stateMutability": "nonpayable",
      "type": "constructor"
    },
    {
      "inputs": [],
      "name": "FEE_TOO_HIGH",
      "type": "error"
    },
    {
      "inputs": [],
      "name": "INADEQUATE_DISTRIBUTION_AMOUNT",
      "type": "error"
    },
    {
      "inputs": [],
      "name": "INADEQUATE_RECLAIM_AMOUNT",
      "type": "error"
    },
    {
      "inputs": [],
      "name": "INADEQUATE_TOKEN_COUNT",
      "type": "error"
    },
    {
      "inputs": [],
      "name": "NO_MSG_VALUE_ALLOWED",
      "type": "error"
    },
    {
      "inputs": [],
      "name": "PAY_TO_ZERO_ADDRESS",
      "type": "error"
    },
    {
      "inputs": [
        {
          "internalType": "uint256",
          "name": "prod1",
          "type": "uint256"
        },
        {
          "internalType": "uint256",
          "name": "denominator",
          "type": "uint256"
        }
      ],
      "name": "PRBMath__MulDivOverflow",
      "type": "error"
    },
    {
      "inputs": [],
      "name": "PROJECT_TERMINAL_MISMATCH",
      "type": "error"
    },
    {
      "inputs": [],
      "name": "REDEEM_TO_ZERO_ADDRESS",
      "type": "error"
    },
    {
      "inputs": [],
      "name": "TERMINAL_TOKENS_INCOMPATIBLE",
      "type": "error"
    },
    {
      "inputs": [],
      "name": "UNAUTHORIZED",
      "type": "error"
    },
    {
      "anonymous": false,
      "inputs": [
        {
          "indexed": true,
          "internalType": "uint256",
          "name": "projectId",
          "type": "uint256"
        },
        {
          "indexed": false,
          "internalType": "uint256",
          "name": "amount",
          "type": "uint256"
        },
        {
          "indexed": false,
          "internalType": "uint256",
          "name": "refundedFees",
          "type": "uint256"
        },
        {
          "indexed": false,
          "internalType": "string",
          "name": "memo",
          "type": "string"
        },
        {
          "indexed": false,
          "internalType": "bytes",
          "name": "metadata",
          "type": "bytes"
        },
        {
          "indexed": false,
          "internalType": "address",
          "name": "caller",
          "type": "address"
        }
      ],
      "name": "AddToBalance",
      "type": "event"
    },
    {
      "anonymous": false,
      "inputs": [
        {
          "indexed": true,
          "internalType": "contract IJBPayDelegate3_1_1",
          "name": "delegate",
          "type": "address"
        },
        {
          "components": [
            {
              "internalType": "address",
              "name": "payer",
              "type": "address"
            },
            {
              "internalType": "uint256",
              "name": "projectId",
              "type": "uint256"
            },
            {
              "internalType": "uint256",
              "name": "currentFundingCycleConfiguration",
              "type": "uint256"
            },
            {
              "components": [
                {
                  "internalType": "address",
                  "name": "token",
                  "type": "address"
                },
                {
                  "internalType": "uint256",
                  "name": "value",
                  "type": "uint256"
                },
                {
                  "internalType": "uint256",
                  "name": "decimals",
                  "type": "uint256"
                },
                {
                  "internalType": "uint256",
                  "name": "currency",
                  "type": "uint256"
                }
              ],
              "internalType": "struct JBTokenAmount",
              "name": "amount",
              "type": "tuple"
            },
            {
              "components": [
                {
                  "internalType": "address",
                  "name": "token",
                  "type": "address"
                },
                {
                  "internalType": "uint256",
                  "name": "value",
                  "type": "uint256"
                },
                {
                  "internalType": "uint256",
                  "name": "decimals",
                  "type": "uint256"
                },
                {
                  "internalType": "uint256",
                  "name": "currency",
                  "type": "uint256"
                }
              ],
              "internalType": "struct JBTokenAmount",
              "name": "forwardedAmount",
              "type": "tuple"
            },
            {
              "internalType": "uint256",
              "name": "projectTokenCount",
              "type": "uint256"
            },
            {
              "internalType": "address",
              "name": "beneficiary",
              "type": "address"
            },
            {
              "internalType": "bool",
              "name": "preferClaimedTokens",
              "type": "bool"
            },
            {
              "internalType": "string",
              "name": "memo",
              "type": "string"
            },
            {
              "internalType": "bytes",
              "name": "dataSourceMetadata",
              "type": "bytes"
            },
            {
              "internalType": "bytes",
              "name": "payerMetadata",
              "type": "bytes"
            }
          ],
          "indexed": false,
          "internalType": "struct JBDidPayData3_1_1",
          "name": "data",
          "type": "tuple"
        },
        {
          "indexed": false,
          "internalType": "uint256",
          "name": "delegatedAmount",
          "type": "uint256"
        },
        {
          "indexed": false,
          "internalType": "address",
          "name": "caller",
          "type": "address"
        }
      ],
      "name": "DelegateDidPay",
      "type": "event"
    },
    {
      "anonymous": false,
      "inputs": [
        {
          "indexed": true,
          "internalType": "contract IJBPayDelegate",
          "name": "delegate",
          "type": "address"
        },
        {
          "components": [
            {
              "internalType": "address",
              "name": "payer",
              "type": "address"
            },
            {
              "internalType": "uint256",
              "name": "projectId",
              "type": "uint256"
            },
            {
              "internalType": "uint256",
              "name": "currentFundingCycleConfiguration",
              "type": "uint256"
            },
            {
              "components": [
                {
                  "internalType": "address",
                  "name": "token",
                  "type": "address"
                },
                {
                  "internalType": "uint256",
                  "name": "value",
                  "type": "uint256"
                },
                {
                  "internalType": "uint256",
                  "name": "decimals",
                  "type": "uint256"
                },
                {
                  "internalType": "uint256",
                  "name": "currency",
                  "type": "uint256"
                }
              ],
              "internalType": "struct JBTokenAmount",
              "name": "amount",
              "type": "tuple"
            },
            {
              "components": [
                {
                  "internalType": "address",
                  "name": "token",
                  "type": "address"
                },
                {
                  "internalType": "uint256",
                  "name": "value",
                  "type": "uint256"
                },
                {
                  "internalType": "uint256",
                  "name": "decimals",
                  "type": "uint256"
                },
                {
                  "internalType": "uint256",
                  "name": "currency",
                  "type": "uint256"
                }
              ],
              "internalType": "struct JBTokenAmount",
              "name": "forwardedAmount",
              "type": "tuple"
            },
            {
              "internalType": "uint256",
              "name": "projectTokenCount",
              "type": "uint256"
            },
            {
              "internalType": "address",
              "name": "beneficiary",
              "type": "address"
            },
            {
              "internalType": "bool",
              "name": "preferClaimedTokens",
              "type": "bool"
            },
            {
              "internalType": "string",
              "name": "memo",
              "type": "string"
            },
            {
              "internalType": "bytes",
              "name": "metadata",
              "type": "bytes"
            }
          ],
          "indexed": false,
          "internalType": "struct JBDidPayData",
          "name": "data",
          "type": "tuple"
        },
        {
          "indexed": false,
          "internalType": "uint256",
          "name": "delegatedAmount",
          "type": "uint256"
        },
        {
          "indexed": false,
          "internalType": "address",
          "name": "caller",
          "type": "address"
        }
      ],
      "name": "DelegateDidPay",
      "type": "event"
    },
    {
      "anonymous": false,
      "inputs": [
        {
          "indexed": true,
          "internalType": "contract IJBRedemptionDelegate3_1_1",
          "name": "delegate",
          "type": "address"
        },
        {
          "components": [
            {
              "internalType": "address",
              "name": "holder",
              "type": "address"
            },
            {
              "internalType": "uint256",
              "name": "projectId",
              "type": "uint256"
            },
            {
              "internalType": "uint256",
              "name": "currentFundingCycleConfiguration",
              "type": "uint256"
            },
            {
              "internalType": "uint256",
              "name": "projectTokenCount",
              "type": "uint256"
            },
            {
              "components": [
                {
                  "internalType": "address",
                  "name": "token",
                  "type": "address"
                },
                {
                  "internalType": "uint256",
                  "name": "value",
                  "type": "uint256"
                },
                {
                  "internalType": "uint256",
                  "name": "decimals",
                  "type": "uint256"
                },
                {
                  "internalType": "uint256",
                  "name": "currency",
                  "type": "uint256"
                }
              ],
              "internalType": "struct JBTokenAmount",
              "name": "reclaimedAmount",
              "type": "tuple"
            },
            {
              "components": [
                {
                  "internalType": "address",
                  "name": "token",
                  "type": "address"
                },
                {
                  "internalType": "uint256",
                  "name": "value",
                  "type": "uint256"
                },
                {
                  "internalType": "uint256",
                  "name": "decimals",
                  "type": "uint256"
                },
                {
                  "internalType": "uint256",
                  "name": "currency",
                  "type": "uint256"
                }
              ],
              "internalType": "struct JBTokenAmount",
              "name": "forwardedAmount",
              "type": "tuple"
            },
            {
              "internalType": "address payable",
              "name": "beneficiary",
              "type": "address"
            },
            {
              "internalType": "string",
              "name": "memo",
              "type": "string"
            },
            {
              "internalType": "bytes",
              "name": "dataSourceMetadata",
              "type": "bytes"
            },
            {
              "internalType": "bytes",
              "name": "redeemerMetadata",
              "type": "bytes"
            }
          ],
          "indexed": false,
          "internalType": "struct JBDidRedeemData3_1_1",
          "name": "data",
          "type": "tuple"
        },
        {
          "indexed": false,
          "internalType": "uint256",
          "name": "delegatedAmount",
          "type": "uint256"
        },
        {
          "indexed": false,
          "internalType": "uint256",
          "name": "fee",
          "type": "uint256"
        },
        {
          "indexed": false,
          "internalType": "address",
          "name": "caller",
          "type": "address"
        }
      ],
      "name": "DelegateDidRedeem",
      "type": "event"
    },
    {
      "anonymous": false,
      "inputs": [
        {
          "indexed": true,
          "internalType": "contract IJBRedemptionDelegate",
          "name": "delegate",
          "type": "address"
        },
        {
          "components": [
            {
              "internalType": "address",
              "name": "holder",
              "type": "address"
            },
            {
              "internalType": "uint256",
              "name": "projectId",
              "type": "uint256"
            },
            {
              "internalType": "uint256",
              "name": "currentFundingCycleConfiguration",
              "type": "uint256"
            },
            {
              "internalType": "uint256",
              "name": "projectTokenCount",
              "type": "uint256"
            },
            {
              "components": [
                {
                  "internalType": "address",
                  "name": "token",
                  "type": "address"
                },
                {
                  "internalType": "uint256",
                  "name": "value",
                  "type": "uint256"
                },
                {
                  "internalType": "uint256",
                  "name": "decimals",
                  "type": "uint256"
                },
                {
                  "internalType": "uint256",
                  "name": "currency",
                  "type": "uint256"
                }
              ],
              "internalType": "struct JBTokenAmount",
              "name": "reclaimedAmount",
              "type": "tuple"
            },
            {
              "components": [
                {
                  "internalType": "address",
                  "name": "token",
                  "type": "address"
                },
                {
                  "internalType": "uint256",
                  "name": "value",
                  "type": "uint256"
                },
                {
                  "internalType": "uint256",
                  "name": "decimals",
                  "type": "uint256"
                },
                {
                  "internalType": "uint256",
                  "name": "currency",
                  "type": "uint256"
                }
              ],
              "internalType": "struct JBTokenAmount",
              "name": "forwardedAmount",
              "type": "tuple"
            },
            {
              "internalType": "address payable",
              "name": "beneficiary",
              "type": "address"
            },
            {
              "internalType": "string",
              "name": "memo",
              "type": "string"
            },
            {
              "internalType": "bytes",
              "name": "metadata",
              "type": "bytes"
            }
          ],
          "indexed": false,
          "internalType": "struct JBDidRedeemData",
          "name": "data",
          "type": "tuple"
        },
        {
          "indexed": false,
          "internalType": "uint256",
          "name": "delegatedAmount",
          "type": "uint256"
        },
        {
          "indexed": false,
          "internalType": "address",
          "name": "caller",
          "type": "address"
        }
      ],
      "name": "DelegateDidRedeem",
      "type": "event"
    },
    {
      "anonymous": false,
      "inputs": [
        {
          "indexed": true,
          "internalType": "uint256",
          "name": "fundingCycleConfiguration",
          "type": "uint256"
        },
        {
          "indexed": true,
          "internalType": "uint256",
          "name": "fundingCycleNumber",
          "type": "uint256"
        },
        {
          "indexed": true,
          "internalType": "uint256",
          "name": "projectId",
          "type": "uint256"
        },
        {
          "indexed": false,
          "internalType": "address",
          "name": "beneficiary",
          "type": "address"
        },
        {
          "indexed": false,
          "internalType": "uint256",
          "name": "amount",
          "type": "uint256"
        },
        {
          "indexed": false,
          "internalType": "uint256",
          "name": "distributedAmount",
          "type": "uint256"
        },
        {
          "indexed": false,
          "internalType": "uint256",
          "name": "fee",
          "type": "uint256"
        },
        {
          "indexed": false,
          "internalType": "uint256",
          "name": "beneficiaryDistributionAmount",
          "type": "uint256"
        },
        {
          "indexed": false,
          "internalType": "bytes",
          "name": "metadata",
          "type": "bytes"
        },
        {
          "indexed": false,
          "internalType": "address",
          "name": "caller",
          "type": "address"
        }
      ],
      "name": "DistributePayouts",
      "type": "event"
    },
    {
      "anonymous": false,
      "inputs": [
        {
          "indexed": true,
          "internalType": "uint256",
          "name": "projectId",
          "type": "uint256"
        },
        {
          "indexed": true,
          "internalType": "uint256",
          "name": "domain",
          "type": "uint256"
        },
        {
          "indexed": true,
          "internalType": "uint256",
          "name": "group",
          "type": "uint256"
        },
        {
          "components": [
            {
              "internalType": "bool",
              "name": "preferClaimed",
              "type": "bool"
            },
            {
              "internalType": "bool",
              "name": "preferAddToBalance",
              "type": "bool"
            },
            {
              "internalType": "uint256",
              "name": "percent",
              "type": "uint256"
            },
            {
              "internalType": "uint256",
              "name": "projectId",
              "type": "uint256"
            },
            {
              "internalType": "address payable",
              "name": "beneficiary",
              "type": "address"
            },
            {
              "internalType": "uint256",
              "name": "lockedUntil",
              "type": "uint256"
            },
            {
              "internalType": "contract IJBSplitAllocator",
              "name": "allocator",
              "type": "address"
            }
          ],
          "indexed": false,
          "internalType": "struct JBSplit",
          "name": "split",
          "type": "tuple"
        },
        {
          "indexed": false,
          "internalType": "uint256",
          "name": "amount",
          "type": "uint256"
        },
        {
          "indexed": false,
          "internalType": "uint256",
          "name": "netAmount",
          "type": "uint256"
        },
        {
          "indexed": false,
          "internalType": "address",
          "name": "caller",
          "type": "address"
        }
      ],
      "name": "DistributeToPayoutSplit",
      "type": "event"
    },
    {
      "anonymous": false,
      "inputs": [
        {
          "indexed": true,
          "internalType": "uint256",
          "name": "projectId",
          "type": "uint256"
        },
        {
          "indexed": true,
          "internalType": "uint256",
          "name": "feeProjectId",
          "type": "uint256"
        },
        {
          "indexed": false,
          "internalType": "uint256",
          "name": "amount",
          "type": "uint256"
        },
        {
          "indexed": false,
          "internalType": "bytes",
          "name": "reason",
          "type": "bytes"
        },
        {
          "indexed": false,
          "internalType": "address",
          "name": "caller",
          "type": "address"
        }
      ],
      "name": "FeeReverted",
      "type": "event"
    },
    {
      "anonymous": false,
      "inputs": [
        {
          "indexed": true,
          "internalType": "uint256",
          "name": "projectId",
          "type": "uint256"
        },
        {
          "indexed": true,
          "internalType": "uint256",
          "name": "amount",
          "type": "uint256"
        },
        {
          "indexed": true,
          "internalType": "uint256",
          "name": "fee",
          "type": "uint256"
        },
        {
          "indexed": false,
          "internalType": "uint256",
          "name": "feeDiscount",
          "type": "uint256"
        },
        {
          "indexed": false,
          "internalType": "address",
          "name": "beneficiary",
          "type": "address"
        },
        {
          "indexed": false,
          "internalType": "address",
          "name": "caller",
          "type": "address"
        }
      ],
      "name": "HoldFee",
      "type": "event"
    },
    {
      "anonymous": false,
      "inputs": [
        {
          "indexed": true,
          "internalType": "uint256",
          "name": "projectId",
          "type": "uint256"
        },
        {
          "indexed": true,
          "internalType": "contract IJBPaymentTerminal",
          "name": "to",
          "type": "address"
        },
        {
          "indexed": false,
          "internalType": "uint256",
          "name": "amount",
          "type": "uint256"
        },
        {
          "indexed": false,
          "internalType": "address",
          "name": "caller",
          "type": "address"
        }
      ],
      "name": "Migrate",
      "type": "event"
    },
    {
      "anonymous": false,
      "inputs": [
        {
          "indexed": true,
          "internalType": "address",
          "name": "previousOwner",
          "type": "address"
        },
        {
          "indexed": true,
          "internalType": "address",
          "name": "newOwner",
          "type": "address"
        }
      ],
      "name": "OwnershipTransferred",
      "type": "event"
    },
    {
      "anonymous": false,
      "inputs": [
        {
          "indexed": true,
          "internalType": "uint256",
          "name": "fundingCycleConfiguration",
          "type": "uint256"
        },
        {
          "indexed": true,
          "internalType": "uint256",
          "name": "fundingCycleNumber",
          "type": "uint256"
        },
        {
          "indexed": true,
          "internalType": "uint256",
          "name": "projectId",
          "type": "uint256"
        },
        {
          "indexed": false,
          "internalType": "address",
          "name": "payer",
          "type": "address"
        },
        {
          "indexed": false,
          "internalType": "address",
          "name": "beneficiary",
          "type": "address"
        },
        {
          "indexed": false,
          "internalType": "uint256",
          "name": "amount",
          "type": "uint256"
        },
        {
          "indexed": false,
          "internalType": "uint256",
          "name": "beneficiaryTokenCount",
          "type": "uint256"
        },
        {
          "indexed": false,
          "internalType": "string",
          "name": "memo",
          "type": "string"
        },
        {
          "indexed": false,
          "internalType": "bytes",
          "name": "metadata",
          "type": "bytes"
        },
        {
          "indexed": false,
          "internalType": "address",
          "name": "caller",
          "type": "address"
        }
      ],
      "name": "Pay",
      "type": "event"
    },
    {
      "anonymous": false,
      "inputs": [
        {
          "indexed": true,
          "internalType": "uint256",
          "name": "projectId",
          "type": "uint256"
        },
        {
          "components": [
            {
              "internalType": "bool",
              "name": "preferClaimed",
              "type": "bool"
            },
            {
              "internalType": "bool",
              "name": "preferAddToBalance",
              "type": "bool"
            },
            {
              "internalType": "uint256",
              "name": "percent",
              "type": "uint256"
            },
            {
              "internalType": "uint256",
              "name": "projectId",
              "type": "uint256"
            },
            {
              "internalType": "address payable",
              "name": "beneficiary",
              "type": "address"
            },
            {
              "internalType": "uint256",
              "name": "lockedUntil",
              "type": "uint256"
            },
            {
              "internalType": "contract IJBSplitAllocator",
              "name": "allocator",
              "type": "address"
            }
          ],
          "indexed": false,
          "internalType": "struct JBSplit",
          "name": "split",
          "type": "tuple"
        },
        {
          "indexed": false,
          "internalType": "uint256",
          "name": "amount",
          "type": "uint256"
        },
        {
          "indexed": false,
          "internalType": "bytes",
          "name": "reason",
          "type": "bytes"
        },
        {
          "indexed": false,
          "internalType": "address",
          "name": "caller",
          "type": "address"
        }
      ],
      "name": "PayoutReverted",
      "type": "event"
    },
    {
      "anonymous": false,
      "inputs": [
        {
          "indexed": true,
          "internalType": "uint256",
          "name": "projectId",
          "type": "uint256"
        },
        {
          "indexed": true,
          "internalType": "uint256",
          "name": "amount",
          "type": "uint256"
        },
        {
          "indexed": true,
          "internalType": "bool",
          "name": "wasHeld",
          "type": "bool"
        },
        {
          "indexed": false,
          "internalType": "address",
          "name": "beneficiary",
          "type": "address"
        },
        {
          "indexed": false,
          "internalType": "address",
          "name": "caller",
          "type": "address"
        }
      ],
      "name": "ProcessFee",
      "type": "event"
    },
    {
      "anonymous": false,
      "inputs": [
        {
          "indexed": true,
          "internalType": "uint256",
          "name": "fundingCycleConfiguration",
          "type": "uint256"
        },
        {
          "indexed": true,
          "internalType": "uint256",
          "name": "fundingCycleNumber",
          "type": "uint256"
        },
        {
          "indexed": true,
          "internalType": "uint256",
          "name": "projectId",
          "type": "uint256"
        },
        {
          "indexed": false,
          "internalType": "address",
          "name": "holder",
          "type": "address"
        },
        {
          "indexed": false,
          "internalType": "address",
          "name": "beneficiary",
          "type": "address"
        },
        {
          "indexed": false,
          "internalType": "uint256",
          "name": "tokenCount",
          "type": "uint256"
        },
        {
          "indexed": false,
          "internalType": "uint256",
          "name": "reclaimedAmount",
          "type": "uint256"
        },
        {
          "indexed": false,
          "internalType": "string",
          "name": "memo",
          "type": "string"
        },
        {
          "indexed": false,
          "internalType": "bytes",
          "name": "metadata",
          "type": "bytes"
        },
        {
          "indexed": false,
          "internalType": "address",
          "name": "caller",
          "type": "address"
        }
      ],
      "name": "RedeemTokens",
      "type": "event"
    },
    {
      "anonymous": false,
      "inputs": [
        {
          "indexed": true,
          "internalType": "uint256",
          "name": "projectId",
          "type": "uint256"
        },
        {
          "indexed": true,
          "internalType": "uint256",
          "name": "amount",
          "type": "uint256"
        },
        {
          "indexed": true,
          "internalType": "uint256",
          "name": "refundedFees",
          "type": "uint256"
        },
        {
          "indexed": false,
          "internalType": "uint256",
          "name": "leftoverAmount",
          "type": "uint256"
        },
        {
          "indexed": false,
          "internalType": "address",
          "name": "caller",
          "type": "address"
        }
      ],
      "name": "RefundHeldFees",
      "type": "event"
    },
    {
      "anonymous": false,
      "inputs": [
        {
          "indexed": false,
          "internalType": "uint256",
          "name": "fee",
          "type": "uint256"
        },
        {
          "indexed": false,
          "internalType": "address",
          "name": "caller",
          "type": "address"
        }
      ],
      "name": "SetFee",
      "type": "event"
    },
    {
      "anonymous": false,
      "inputs": [
        {
          "indexed": true,
          "internalType": "address",
          "name": "feeGauge",
          "type": "address"
        },
        {
          "indexed": false,
          "internalType": "address",
          "name": "caller",
          "type": "address"
        }
      ],
      "name": "SetFeeGauge",
      "type": "event"
    },
    {
      "anonymous": false,
      "inputs": [
        {
          "indexed": true,
          "internalType": "address",
          "name": "addrs",
          "type": "address"
        },
        {
          "indexed": true,
          "internalType": "bool",
          "name": "flag",
          "type": "bool"
        },
        {
          "indexed": false,
          "internalType": "address",
          "name": "caller",
          "type": "address"
        }
      ],
      "name": "SetFeelessAddress",
      "type": "event"
    },
    {
      "anonymous": false,
      "inputs": [
        {
          "indexed": true,
          "internalType": "uint256",
          "name": "fundingCycleConfiguration",
          "type": "uint256"
        },
        {
          "indexed": true,
          "internalType": "uint256",
          "name": "fundingCycleNumber",
          "type": "uint256"
        },
        {
          "indexed": true,
          "internalType": "uint256",
          "name": "projectId",
          "type": "uint256"
        },
        {
          "indexed": false,
          "internalType": "address",
          "name": "beneficiary",
          "type": "address"
        },
        {
          "indexed": false,
          "internalType": "uint256",
          "name": "amount",
          "type": "uint256"
        },
        {
          "indexed": false,
          "internalType": "uint256",
          "name": "distributedAmount",
          "type": "uint256"
        },
        {
          "indexed": false,
          "internalType": "uint256",
          "name": "netDistributedamount",
          "type": "uint256"
        },
        {
          "indexed": false,
          "internalType": "string",
          "name": "memo",
          "type": "string"
        },
        {
          "indexed": false,
          "internalType": "bytes",
          "name": "metadata",
          "type": "bytes"
        },
        {
          "indexed": false,
          "internalType": "address",
          "name": "caller",
          "type": "address"
        }
      ],
      "name": "UseAllowance",
      "type": "event"
    },
    {
      "inputs": [
        {
          "internalType": "address",
          "name": "_token",
          "type": "address"
        },
        {
          "internalType": "uint256",
          "name": "_projectId",
          "type": "uint256"
        }
      ],
      "name": "acceptsToken",
      "outputs": [
        {
          "internalType": "bool",
          "name": "",
          "type": "bool"
        }
      ],
      "stateMutability": "view",
      "type": "function"
    },
    {
      "inputs": [
        {
          "internalType": "uint256",
          "name": "_projectId",
          "type": "uint256"
        },
        {
          "internalType": "uint256",
          "name": "_amount",
          "type": "uint256"
        },
        {
          "internalType": "address",
          "name": "_token",
          "type": "address"
        },
        {
          "internalType": "string",
          "name": "_memo",
          "type": "string"
        },
        {
          "internalType": "bytes",
          "name": "_metadata",
          "type": "bytes"
        }
      ],
      "name": "addToBalanceOf",
      "outputs": [],
      "stateMutability": "payable",
      "type": "function"
    },
    {
      "inputs": [
        {
          "internalType": "uint256",
          "name": "_projectId",
          "type": "uint256"
        },
        {
          "internalType": "uint256",
          "name": "_amount",
          "type": "uint256"
        },
        {
          "internalType": "address",
          "name": "_token",
          "type": "address"
        },
        {
          "internalType": "bool",
          "name": "_shouldRefundHeldFees",
          "type": "bool"
        },
        {
          "internalType": "string",
          "name": "_memo",
          "type": "string"
        },
        {
          "internalType": "bytes",
          "name": "_metadata",
          "type": "bytes"
        }
      ],
      "name": "addToBalanceOf",
      "outputs": [],
      "stateMutability": "payable",
      "type": "function"
    },
    {
      "inputs": [],
      "name": "baseWeightCurrency",
      "outputs": [
        {
          "internalType": "uint256",
          "name": "",
          "type": "uint256"
        }
      ],
      "stateMutability": "view",
      "type": "function"
    },
    {
      "inputs": [],
      "name": "currency",
      "outputs": [
        {
          "internalType": "uint256",
          "name": "",
          "type": "uint256"
        }
      ],
      "stateMutability": "view",
      "type": "function"
    },
    {
      "inputs": [
        {
          "internalType": "address",
          "name": "_token",
          "type": "address"
        }
      ],
      "name": "currencyForToken",
      "outputs": [
        {
          "internalType": "uint256",
          "name": "",
          "type": "uint256"
        }
      ],
      "stateMutability": "view",
      "type": "function"
    },
    {
      "inputs": [
        {
          "internalType": "uint256",
          "name": "_projectId",
          "type": "uint256"
        }
      ],
      "name": "currentEthOverflowOf",
      "outputs": [
        {
          "internalType": "uint256",
          "name": "",
          "type": "uint256"
        }
      ],
      "stateMutability": "view",
      "type": "function"
    },
    {
      "inputs": [],
      "name": "decimals",
      "outputs": [
        {
          "internalType": "uint256",
          "name": "",
          "type": "uint256"
        }
      ],
      "stateMutability": "view",
      "type": "function"
    },
    {
      "inputs": [
        {
          "internalType": "address",
          "name": "_token",
          "type": "address"
        }
      ],
      "name": "decimalsForToken",
      "outputs": [
        {
          "internalType": "uint256",
          "name": "",
          "type": "uint256"
        }
      ],
      "stateMutability": "view",
      "type": "function"
    },
    {
      "inputs": [],
      "name": "directory",
      "outputs": [
        {
          "internalType": "contract IJBDirectory",
          "name": "",
          "type": "address"
        }
      ],
      "stateMutability": "view",
      "type": "function"
    },
    {
      "inputs": [
        {
          "internalType": "uint256",
          "name": "_projectId",
          "type": "uint256"
        },
        {
          "internalType": "uint256",
          "name": "_amount",
          "type": "uint256"
        },
        {
          "internalType": "uint256",
          "name": "_currency",
          "type": "uint256"
        },
        {
          "internalType": "address",
          "name": "_token",
          "type": "address"
        },
        {
          "internalType": "uint256",
          "name": "_minReturnedTokens",
          "type": "uint256"
        },
        {
          "internalType": "bytes",
          "name": "_metadata",
          "type": "bytes"
        }
      ],
      "name": "distributePayoutsOf",
      "outputs": [
        {
          "internalType": "uint256",
          "name": "netLeftoverDistributionAmount",
          "type": "uint256"
        }
      ],
      "stateMutability": "nonpayable",
      "type": "function"
    },
    {
      "inputs": [],
      "name": "fee",
      "outputs": [
        {
          "internalType": "uint256",
          "name": "",
          "type": "uint256"
        }
      ],
      "stateMutability": "view",
      "type": "function"
    },
    {
      "inputs": [],
      "name": "feeGauge",
      "outputs": [
        {
          "internalType": "address",
          "name": "",
          "type": "address"
        }
      ],
      "stateMutability": "view",
      "type": "function"
    },
    {
      "inputs": [
        {
          "internalType": "uint256",
          "name": "_projectId",
          "type": "uint256"
        }
      ],
      "name": "heldFeesOf",
      "outputs": [
        {
          "components": [
            {
              "internalType": "uint256",
              "name": "amount",
              "type": "uint256"
            },
            {
              "internalType": "uint32",
              "name": "fee",
              "type": "uint32"
            },
            {
              "internalType": "uint32",
              "name": "feeDiscount",
              "type": "uint32"
            },
            {
              "internalType": "address",
              "name": "beneficiary",
              "type": "address"
            }
          ],
          "internalType": "struct JBFee[]",
          "name": "",
          "type": "tuple[]"
        }
      ],
      "stateMutability": "view",
      "type": "function"
    },
    {
      "inputs": [
        {
          "internalType": "address",
          "name": "",
          "type": "address"
        }
      ],
      "name": "isFeelessAddress",
      "outputs": [
        {
          "internalType": "bool",
          "name": "",
          "type": "bool"
        }
      ],
      "stateMutability": "view",
      "type": "function"
    },
    {
      "inputs": [
        {
          "internalType": "uint256",
          "name": "_projectId",
          "type": "uint256"
        },
        {
          "internalType": "contract IJBPaymentTerminal",
          "name": "_to",
          "type": "address"
        }
      ],
      "name": "migrate",
      "outputs": [
        {
          "internalType": "uint256",
          "name": "balance",
          "type": "uint256"
        }
      ],
      "stateMutability": "nonpayable",
      "type": "function"
    },
    {
      "inputs": [],
      "name": "operatorStore",
      "outputs": [
        {
          "internalType": "contract IJBOperatorStore",
          "name": "",
          "type": "address"
        }
      ],
      "stateMutability": "view",
      "type": "function"
    },
    {
      "inputs": [],
      "name": "owner",
      "outputs": [
        {
          "internalType": "address",
          "name": "",
          "type": "address"
        }
      ],
      "stateMutability": "view",
      "type": "function"
    },
    {
      "inputs": [
        {
          "internalType": "uint256",
          "name": "_projectId",
          "type": "uint256"
        },
        {
          "internalType": "uint256",
          "name": "_amount",
          "type": "uint256"
        },
        {
          "internalType": "address",
          "name": "_token",
          "type": "address"
        },
        {
          "internalType": "address",
          "name": "_beneficiary",
          "type": "address"
        },
        {
          "internalType": "uint256",
          "name": "_minReturnedTokens",
          "type": "uint256"
        },
        {
          "internalType": "bool",
          "name": "_preferClaimedTokens",
          "type": "bool"
        },
        {
          "internalType": "string",
          "name": "_memo",
          "type": "string"
        },
        {
          "internalType": "bytes",
          "name": "_metadata",
          "type": "bytes"
        }
      ],
      "name": "pay",
      "outputs": [
        {
          "internalType": "uint256",
          "name": "",
          "type": "uint256"
        }
      ],
      "stateMutability": "payable",
      "type": "function"
    },
    {
      "inputs": [],
      "name": "payoutSplitsGroup",
      "outputs": [
        {
          "internalType": "uint256",
          "name": "",
          "type": "uint256"
        }
      ],
      "stateMutability": "view",
      "type": "function"
    },
    {
      "inputs": [],
      "name": "prices",
      "outputs": [
        {
          "internalType": "contract IJBPrices",
          "name": "",
          "type": "address"
        }
      ],
      "stateMutability": "view",
      "type": "function"
    },
    {
      "inputs": [
        {
          "internalType": "uint256",
          "name": "_projectId",
          "type": "uint256"
        }
      ],
      "name": "processFees",
      "outputs": [],
      "stateMutability": "nonpayable",
      "type": "function"
    },
    {
      "inputs": [],
      "name": "projects",
      "outputs": [
        {
          "internalType": "contract IJBProjects",
          "name": "",
          "type": "address"
        }
      ],
      "stateMutability": "view",
      "type": "function"
    },
    {
      "inputs": [
        {
          "internalType": "address",
          "name": "_holder",
          "type": "address"
        },
        {
          "internalType": "uint256",
          "name": "_projectId",
          "type": "uint256"
        },
        {
          "internalType": "uint256",
          "name": "_tokenCount",
          "type": "uint256"
        },
        {
          "internalType": "address",
          "name": "_token",
          "type": "address"
        },
        {
          "internalType": "uint256",
          "name": "_minReturnedTokens",
          "type": "uint256"
        },
        {
          "internalType": "address payable",
          "name": "_beneficiary",
          "type": "address"
        },
        {
          "internalType": "string",
          "name": "_memo",
          "type": "string"
        },
        {
          "internalType": "bytes",
          "name": "_metadata",
          "type": "bytes"
        }
      ],
      "name": "redeemTokensOf",
      "outputs": [
        {
          "internalType": "uint256",
          "name": "reclaimAmount",
          "type": "uint256"
        }
      ],
      "stateMutability": "nonpayable",
      "type": "function"
    },
    {
      "inputs": [],
      "name": "renounceOwnership",
      "outputs": [],
      "stateMutability": "nonpayable",
      "type": "function"
    },
    {
      "inputs": [
        {
          "internalType": "uint256",
          "name": "_fee",
          "type": "uint256"
        }
      ],
      "name": "setFee",
      "outputs": [],
      "stateMutability": "nonpayable",
      "type": "function"
    },
    {
      "inputs": [
        {
          "internalType": "address",
          "name": "_feeGauge",
          "type": "address"
        }
      ],
      "name": "setFeeGauge",
      "outputs": [],
      "stateMutability": "nonpayable",
      "type": "function"
    },
    {
      "inputs": [
        {
          "internalType": "address",
          "name": "_address",
          "type": "address"
        },
        {
          "internalType": "bool",
          "name": "_flag",
          "type": "bool"
        }
      ],
      "name": "setFeelessAddress",
      "outputs": [],
      "stateMutability": "nonpayable",
      "type": "function"
    },
    {
      "inputs": [],
      "name": "splitsStore",
      "outputs": [
        {
          "internalType": "contract IJBSplitsStore",
          "name": "",
          "type": "address"
        }
      ],
      "stateMutability": "view",
      "type": "function"
    },
    {
      "inputs": [],
      "name": "store",
      "outputs": [
        {
          "internalType": "address",
          "name": "",
          "type": "address"
        }
      ],
      "stateMutability": "view",
      "type": "function"
    },
    {
      "inputs": [
        {
          "internalType": "bytes4",
          "name": "_interfaceId",
          "type": "bytes4"
        }
      ],
      "name": "supportsInterface",
      "outputs": [
        {
          "internalType": "bool",
          "name": "",
          "type": "bool"
        }
      ],
      "stateMutability": "view",
      "type": "function"
    },
    {
      "inputs": [],
      "name": "token",
      "outputs": [
        {
          "internalType": "address",
          "name": "",
          "type": "address"
        }
      ],
      "stateMutability": "view",
      "type": "function"
    },
    {
      "inputs": [
        {
          "internalType": "address",
          "name": "newOwner",
          "type": "address"
        }
      ],
      "name": "transferOwnership",
      "outputs": [],
      "stateMutability": "nonpayable",
      "type": "function"
    },
    {
      "inputs": [
        {
          "internalType": "uint256",
          "name": "_projectId",
          "type": "uint256"
        },
        {
          "internalType": "uint256",
          "name": "_amount",
          "type": "uint256"
        },
        {
          "internalType": "uint256",
          "name": "_currency",
          "type": "uint256"
        },
        {
          "internalType": "address",
          "name": "_token",
          "type": "address"
        },
        {
          "internalType": "uint256",
          "name": "_minReturnedTokens",
          "type": "uint256"
        },
        {
          "internalType": "address payable",
          "name": "_beneficiary",
          "type": "address"
        },
        {
          "internalType": "string",
          "name": "_memo",
          "type": "string"
        },
        {
          "internalType": "bytes",
          "name": "_metadata",
          "type": "bytes"
        }
      ],
      "name": "useAllowanceOf",
      "outputs": [
        {
          "internalType": "uint256",
          "name": "netDistributedAmount",
          "type": "uint256"
        }
      ],
      "stateMutability": "nonpayable",
      "type": "function"
    }
  ],
  "bytecode": {
    "object": "0x6101e060405263017d78406002553480156200001a57600080fd5b5060405162005e5338038062005e538339810160408190526200003d9162000216565b61eeee6080819052601260a0819052600160c08190526001600160a01b038a1660e0528a818b8b8b8b8b8b8b6200007433620000cf565b6101a08990526101c08890526001600160a01b0380871661010052858116610120528481166101405283811661016052821661018052620000b5816200011f565b5050505050505050505050505050505050505050620002cb565b600080546001600160a01b038381166001600160a01b0319831681178455604051919092169283917f8be0079c531659141344cd1fd0a4f28419497f9722a3daafe3b4186f6b6457e09190a35050565b62000129620001a2565b6001600160a01b038116620001945760405162461bcd60e51b815260206004820152602660248201527f4f776e61626c653a206e6577206f776e657220697320746865207a65726f206160448201526564647265737360d01b60648201526084015b60405180910390fd5b6200019f81620000cf565b50565b6000546001600160a01b03163314620001fe5760405162461bcd60e51b815260206004820181905260248201527f4f776e61626c653a2063616c6c6572206973206e6f7420746865206f776e657260448201526064016200018b565b565b6001600160a01b03811681146200019f57600080fd5b600080600080600080600080610100898b0312156200023457600080fd5b885197506020890151620002488162000200565b60408a01519097506200025b8162000200565b60608a01519096506200026e8162000200565b60808a0151909550620002818162000200565b60a08a0151909450620002948162000200565b60c08a0151909350620002a78162000200565b60e08a0151909250620002ba8162000200565b809150509295985092959890939650565b60805160a05160c05160e05161010051610120516101405161016051610180516101a0516101c05161592c62000527600039600081816103cf0152611fc001526000818161030701526118220152600081816104f701528181610ad50152818161126b015281816117f001528181611e6b015281816125d10152818161293301528181612a40015261367d01526000818161065601526113f00152600081816102bb015261335401526000818161060f0152818161168d015281816118d30152818161237a01528181612b8b015281816131fa0152613e540152600081816104a50152818161099001528181610dec015281816111a001528181611f17015261268b01526000818161056b01528181611cff01528181611d9b015281816121ac01526122480152600081816102660152818161070e0152818161133b0152818161139d015281816117ca01528181611aa601528181612d210152612db101526000818161033b015281816105db015281816112dc0152818161130801528181611368015281816113ca015281816117a401528181611a8001528181612cfb01528181612d8b0152613c080152600081816106cc015281816107620152818161087e01528181610a2801528181610b5601528181610bc9015281816114820152818161176f01528181611a4a01528181611b980152818161234f015281816124060152818161244101528181612cc601528181612d5501528181612ede015281816131cd01528181613bd301528181613c7b01528181613e8101528181613fdc0152818161401a0152818161414f0152614193015261592c6000f3fe6080604052600436106101f95760003560e01c80638da5cb5b1161010d578063c715967a116100a0578063df21a7dd1161006f578063df21a7dd146106ae578063e5a6b10f146106fc578063f2fde38b14610730578063fc0c546a14610750578063fe663f0f1461078457600080fd5b8063c715967a14610631578063d3419bf314610644578063d6dacc5314610678578063ddca3f431461069857600080fd5b8063ad007d63116100dc578063ad007d6314610559578063b631b5001461058d578063b7bad1b1146105bd578063c41c2f24146105fd57600080fd5b80638da5cb5b146104c7578063975057e7146104e5578063a02f801c14610519578063a32e1e961461053957600080fd5b80634a4305c011610190578063715018a61161015f578063715018a6146104115780637258002c1461042657806389701db5146104465780638af56094146104665780638b79543c1461049357600080fd5b80634a4305c01461037d578063637913ac1461039d57806366248b86146103bd57806369fe0e2d146103f157600080fd5b80632bdfe004116101cc5780632bdfe004146102a95780632d1a5903146102f5578063313ce56714610329578063405b84fa1461035d57600080fd5b806301ffc9a7146101fe5780630cf8e858146102335780631982d679146102485780631ebc263f14610296575b600080fd5b34801561020a57600080fd5b5061021e610219366004614442565b6107a4565b60405190151581526020015b60405180910390f35b6102466102413660046144c9565b61084e565b005b34801561025457600080fd5b5061028861026336600461455e565b507f000000000000000000000000000000000000000000000000000000000000000090565b60405190815260200161022a565b6102886102a4366004614589565b610871565b3480156102b557600080fd5b506102dd7f000000000000000000000000000000000000000000000000000000000000000081565b6040516001600160a01b03909116815260200161022a565b34801561030157600080fd5b506102887f000000000000000000000000000000000000000000000000000000000000000081565b34801561033557600080fd5b506102887f000000000000000000000000000000000000000000000000000000000000000081565b34801561036957600080fd5b50610288610378366004614650565b610977565b34801561038957600080fd5b50610288610398366004614680565b610c73565b3480156103a957600080fd5b506102466103b836600461455e565b610c8f565b3480156103c957600080fd5b506102887f000000000000000000000000000000000000000000000000000000000000000081565b3480156103fd57600080fd5b5061024661040c3660046146e9565b610ceb565b34801561041d57600080fd5b50610246610d58565b34801561043257600080fd5b50610246610441366004614702565b610d6c565b34801561045257600080fd5b506102466104613660046146e9565b610dd6565b34801561047257600080fd5b506104866104813660046146e9565b6110da565b60405161022a9190614730565b34801561049f57600080fd5b506102dd7f000000000000000000000000000000000000000000000000000000000000000081565b3480156104d357600080fd5b506000546001600160a01b03166102dd565b3480156104f157600080fd5b506102dd7f000000000000000000000000000000000000000000000000000000000000000081565b34801561052557600080fd5b506102886105343660046148d6565b611187565b34801561054557600080fd5b506102886105543660046146e9565b611242565b34801561056557600080fd5b506102dd7f000000000000000000000000000000000000000000000000000000000000000081565b34801561059957600080fd5b5061021e6105a836600461455e565b60046020526000908152604090205460ff1681565b3480156105c957600080fd5b506102886105d836600461455e565b507f000000000000000000000000000000000000000000000000000000000000000090565b34801561060957600080fd5b506102dd7f000000000000000000000000000000000000000000000000000000000000000081565b61024661063f36600461498e565b611477565b34801561065057600080fd5b506102dd7f000000000000000000000000000000000000000000000000000000000000000081565b34801561068457600080fd5b506003546102dd906001600160a01b031681565b3480156106a457600080fd5b5061028860025481565b3480156106ba57600080fd5b5061021e6106c9366004614a35565b507f00000000000000000000000000000000000000000000000000000000000000006001600160a01b0390811691161490565b34801561070857600080fd5b506102887f000000000000000000000000000000000000000000000000000000000000000081565b34801561073c57600080fd5b5061024661074b36600461455e565b611573565b34801561075c57600080fd5b506102dd7f000000000000000000000000000000000000000000000000000000000000000081565b34801561079057600080fd5b5061028861079f366004614a61565b6115f1565b60006001600160e01b0319821615806107cd57506001600160e01b0319821663edb527eb60e01b145b806107e857506001600160e01b031982166301290c1760e61b145b8061080357506001600160e01b0319821663280be00760e21b145b8061081e57506001600160e01b0319821663fe663f0f60e01b145b8061083957506001600160e01b0319821663ad007d6360e01b145b80610848575061084882611621565b92915050565b61085787611671565b610868878787600088888888611477565b50505050505050565b600061087c8b611671565b7f00000000000000000000000000000000000000000000000000000000000000006001600160a01b031661eeee146108eb5734156108cd57604051635e7e9adf60e11b815260040160405180910390fd5b476108d933308d61171d565b6108e38147614b2f565b9a50506108ef565b3499505b6109688a338d8b8b8b8b8b8080601f01602080910402602001604051908101604052809392919081815260200183838082843760009201919091525050604080516020601f8f018190048102820181019092528d815292508d91508c908190840183828082843760009201919091525061172c92505050565b9b9a5050505050505050505050565b6040516331a9108f60e11b8152600481018390526000907f00000000000000000000000000000000000000000000000000000000000000006001600160a01b031690636352211e90602401602060405180830381865afa1580156109df573d6000803e3d6000fd5b505050506040513d601f19601f82011682018060405250810190610a039190614b42565b836004610a11838383611cd4565b60405163df21a7dd60e01b81526001600160a01b037f0000000000000000000000000000000000000000000000000000000000000000811660048301526024820188905286169063df21a7dd90604401602060405180830381865afa158015610a7e573d6000803e3d6000fd5b505050506040513d601f19601f82011682018060405250810190610aa29190614b5f565b610abf5760405163581010ed60e01b815260040160405180910390fd5b604051636bb6a5ad60e01b8152600481018790527f00000000000000000000000000000000000000000000000000000000000000006001600160a01b031690636bb6a5ad906024016020604051808303816000875af1158015610b26573d6000803e3d6000fd5b505050506040513d601f19601f82011682018060405250810190610b4a9190614b7c565b93508315610c255760007f00000000000000000000000000000000000000000000000000000000000000006001600160a01b031661eeee14610b8d576000610b8f565b845b6040805160208101825260008152905163019f1d0b60e31b81529192506001600160a01b03881691630cf8e858918491610bf1918c918b917f000000000000000000000000000000000000000000000000000000000000000091600401614be5565b6000604051808303818588803b158015610c0a57600080fd5b505af1158015610c1e573d6000803e3d6000fd5b5050505050505b604080518581523360208201526001600160a01b0387169188917fa7519e5f94697b7f53e97c5eb46a0c730a296ab686ab8fd333835c5f735784eb910160405180910390a350505092915050565b6000610c83888888878787611e38565b98975050505050505050565b610c976120cd565b600380546001600160a01b0319166001600160a01b0383169081179091556040513381527f0a9a80fe9716605b3e52abb3d792d6a4e7816d6afc02a5a4ef023081feaf9f609060200160405180910390a250565b610cf36120cd565b6302faf080811115610d18576040516345fbd9c160e01b815260040160405180910390fd5b6002819055604080518281523360208201527fd7414e590e1cb532989ab2a34c8f4c2c17f7ab6f006efeeaef2e87cd5008c202910160405180910390a150565b610d606120cd565b610d6a6000612127565b565b610d746120cd565b6001600160a01b038216600081815260046020908152604091829020805460ff191685151590811790915591513381529192917fa2653e25a502c023a5830d0de847ef6f458387865b1f4f575d7594f9f2c0d71e910160405180910390a35050565b6040516331a9108f60e11b8152600481018290527f00000000000000000000000000000000000000000000000000000000000000006001600160a01b031690636352211e90602401602060405180830381865afa158015610e3b573d6000803e3d6000fd5b505050506040513d601f19601f82011682018060405250810190610e5f9190614b42565b816005610e746000546001600160a01b031690565b6001600160a01b0316336001600160a01b031614610e9484848484612177565b600085815260016020908152604080832080548251818502810185019093528083529192909190849084015b82821015610f2d57600084815260209081902060408051608081018252600286029092018054835260019081015463ffffffff8082168587015264010000000082041692840192909252600160401b9091046001600160a01b031660608301529083529092019101610ec0565b5050506000888152600160205260408120929350610f4c9291506143a1565b80516000805b828110156110cf57838181518110610f6c57610f6c614c20565b60200260200101516020015163ffffffff1660001480610fb25750633b9aca00848281518110610f9e57610f9e614c20565b60200260200101516040015163ffffffff16145b61102957611024848281518110610fcb57610fcb614c20565b602002602001015160000151858381518110610fe957610fe9614c20565b60200260200101516020015163ffffffff1686848151811061100d5761100d614c20565b60200260200101516040015163ffffffff166122eb565b61102c565b60005b91506110568285838151811061104457611044614c20565b6020026020010151606001518b612331565b60011515828a7fcf0c92a2c6d7c42f488326b0cb900104b99984b6b218db81cd29371364a3525187858151811061108f5761108f614c20565b602002602001015160600151336040516110bf9291906001600160a01b0392831681529116602082015260400190565b60405180910390a4600101610f52565b505050505050505050565b606060016000838152602001908152602001600020805480602002602001604051908101604052809291908181526020016000905b8282101561117c57600084815260209081902060408051608081018252600286029092018054835260019081015463ffffffff8082168587015264010000000082041692840192909252600160401b9091046001600160a01b03166060830152908352909201910161110f565b505050509050919050565b6040516331a9108f60e11b8152600481018a90526000907f00000000000000000000000000000000000000000000000000000000000000006001600160a01b031690636352211e90602401602060405180830381865afa1580156111ef573d6000803e3d6000fd5b505050506040513d601f19601f820116820180604052508101906112139190614b42565b8a6011611221838383611cd4565b6112318d8d8d8c8c8c8c8c61259e565b9d9c50505050505050505050505050565b60405163035240c760e61b81523060048201526024810182905260009081906001600160a01b037f0000000000000000000000000000000000000000000000000000000000000000169063d49031c090604401602060405180830381865afa1580156112b2573d6000803e3d6000fd5b505050506040513d601f19601f820116820180604052508101906112d69190614b7c565b905060007f00000000000000000000000000000000000000000000000000000000000000006012146113335761132e827f000000000000000000000000000000000000000000000000000000000000000060126127e5565b611335565b815b905060017f00000000000000000000000000000000000000000000000000000000000000001461146d576114688161138e7f0000000000000000000000000000000000000000000000000000000000000000600a614d1a565b604051635268657960e11b81527f00000000000000000000000000000000000000000000000000000000000000006004820152600160248201527f000000000000000000000000000000000000000000000000000000000000000060448201527f00000000000000000000000000000000000000000000000000000000000000006001600160a01b03169063a4d0caf290606401602060405180830381865afa15801561143f573d6000803e3d6000fd5b505050506040513d601f19601f820116820180604052508101906114639190614b7c565b612842565b61146f565b805b949350505050565b61148088611671565b7f00000000000000000000000000000000000000000000000000000000000000006001600160a01b031661eeee146114ef5734156114d157604051635e7e9adf60e11b815260040160405180910390fd5b476114dd33308a61171d565b6114e78147614b2f565b9750506114f3565b3496505b61156988888787878080601f01602080910402602001604051908101604052809392919081815260200183838082843760009201919091525050604080516020601f8b01819004810282018101909252898152925089915088908190840183828082843760009201919091525061290f92505050565b5050505050505050565b61157b6120cd565b6001600160a01b0381166115e55760405162461bcd60e51b815260206004820152602660248201527f4f776e61626c653a206e6577206f776e657220697320746865207a65726f206160448201526564647265737360d01b60648201526084015b60405180910390fd5b6115ee81612127565b50565b600088886002611602838383611cd4565b6116118c8c8c8b8b8b8b612a01565b9c9b505050505050505050505050565b60006001600160e01b0319821663301cdc3960e21b148061165257506001600160e01b0319821663144b000160e11b145b8061084857506301ffc9a760e01b6001600160e01b0319831614610848565b604051636e49181f60e01b8152600481018290523060248201527f00000000000000000000000000000000000000000000000000000000000000006001600160a01b031690636e49181f90604401602060405180830381865afa1580156116dc573d6000803e3d6000fd5b505050506040513d601f19601f820116820180604052508101906117009190614b5f565b6115ee57604051631b1d5a5960e31b815260040160405180910390fd5b6117278282613096565b505050565b60006001600160a01b0386166117555760405163a762251360e01b815260040160405180910390fd5b61175d6143c2565b606060008060405180608001604052807f00000000000000000000000000000000000000000000000000000000000000006001600160a01b031681526020018e81526020017f000000000000000000000000000000000000000000000000000000000000000081526020017f000000000000000000000000000000000000000000000000000000000000000081525090507f00000000000000000000000000000000000000000000000000000000000000006001600160a01b0316632fa1b3918d838e7f00000000000000000000000000000000000000000000000000000000000000008f8d8d6040518863ffffffff1660e01b81526004016118669796959493929190614d52565b6000604051808303816000875af1158015611885573d6000803e3d6000fd5b505050506040513d6000823e601f3d908101601f191682016040526118ad9190810190614eb6565b9950919550909350915081156119e257604051632eec7b5560e11b8152600481018c90527f00000000000000000000000000000000000000000000000000000000000000006001600160a01b031690635dd8f6aa90602401602060405180830381865afa158015611922573d6000803e3d6000fd5b505050506040513d601f19601f820116820180604052508101906119469190614b42565b604051638ae9c07b60e01b8152600481018d9052602481018490526001600160a01b038c8116604483015260c06064830152600060c48301528a15156084830152600160a48301529190911690638ae9c07b9060e4016020604051808303816000875af11580156119bb573d6000803e3d6000fd5b505050506040513d601f19601f820116820180604052508101906119df9190614b7c565b94505b88851015611a0357604051633dca309360e11b815260040160405180910390fd5b825115611c765760006040518061016001604052808e6001600160a01b031681526020018d81526020018660200151815260200183815260200160405180608001604052807f00000000000000000000000000000000000000000000000000000000000000006001600160a01b03168152602001600081526020017f000000000000000000000000000000000000000000000000000000000000000081526020017f000000000000000000000000000000000000000000000000000000000000000081525081526020018781526020018c6001600160a01b031681526020018a15158152602001898152602001604051806020016040528060008152508152602001888152509050600084519050611b3e604051806060016040528060006001600160a01b0316815260200160008152602001606081525090565b60005b82811015611c7157868181518110611b5b57611b5b614c20565b60209081029190910101519150602080830151608086015190910152604082015161012085015281516001600160a01b0390811690636b204943907f00000000000000000000000000000000000000000000000000000000000000001661eeee14611bc7576000611bcd565b83602001515b866040518363ffffffff1660e01b8152600401611bea91906150d1565b6000604051808303818588803b158015611c0357600080fd5b505af1158015611c17573d6000803e3d6000fd5b505050505081600001516001600160a01b03167f232bbbe420e7bac6f941dc82678daec2b4c712378d91e864b69aab6e26cdd42485846020015133604051611c61939291906150e4565b60405180910390a2600101611b41565b505050505b50505087816000015182602001517f133161f1c9161488f777ab9a26aae91d47c0d9a3fafb398960f138db02c737978c8b8f888b8b33604051611cbf9796959493929190615117565b60405180910390a45098975050505050505050565b336001600160a01b03841614801590611d7d575060405163c161c93f60e01b81526001600160a01b037f0000000000000000000000000000000000000000000000000000000000000000169063c161c93f90611d3a903390879087908790600401615177565b602060405180830381865afa158015611d57573d6000803e3d6000fd5b505050506040513d601f19601f82011682018060405250810190611d7b9190614b5f565b155b8015611e1a575060405163c161c93f60e01b81526001600160a01b037f0000000000000000000000000000000000000000000000000000000000000000169063c161c93f90611dd790339087906000908790600401615177565b602060405180830381865afa158015611df4573d6000803e3d6000fd5b505050506040513d601f19601f82011682018060405250810190611e189190614b5f565b155b156117275760405163075fd2b160e01b815260040160405180910390fd5b60405163c664459760e01b8152600481018790526024810186905260448101859052600090819081906001600160a01b037f0000000000000000000000000000000000000000000000000000000000000000169063c664459790606401610140604051808303816000875af1158015611eb5573d6000803e3d6000fd5b505050506040513d601f19601f82011682018060405250810190611ed991906151a0565b9150915085811015611efe5760405163b01493c160e01b815260040160405180910390fd5b6040516331a9108f60e11b8152600481018a90526000907f00000000000000000000000000000000000000000000000000000000000000006001600160a01b031690636352211e90602401602060405180830381865afa158015611f66573d6000803e3d6000fd5b505050506040513d601f19601f82011682018060405250810190611f8a9190614b42565b600254909150600090818115611faa57611fa58d60006131af565b611fb0565b633b9aca005b9050600080611fe78f89602001517f00000000000000000000000000000000000000000000000000000000000000008a8888613323565b92509050633b9aca008314611ffb57908101905b8160000361200a57600061202e565b61202e8f6120258a61010001516001604f9190911c81161490565b84878a886134e3565b9450801561206b57633b9aca0083146120515761204c8185856122eb565b612054565b60005b61205e9082614b2f565b985061206b30878b61171d565b505050508a846000015185602001517fc41a8d26c70cfcf1b9ea10f82482ac947b8be5bea2750bc729af844bbfde1e28858e88878c8f8f336040516120b79897969594939291906151f8565b60405180910390a4505050509695505050505050565b6000546001600160a01b03163314610d6a5760405162461bcd60e51b815260206004820181905260248201527f4f776e61626c653a2063616c6c6572206973206e6f7420746865206f776e657260448201526064016115dc565b600080546001600160a01b038381166001600160a01b0319831681178455604051919092169283917f8be0079c531659141344cd1fd0a4f28419497f9722a3daafe3b4186f6b6457e09190a35050565b8015801561218e5750336001600160a01b03851614155b801561222a575060405163c161c93f60e01b81526001600160a01b037f0000000000000000000000000000000000000000000000000000000000000000169063c161c93f906121e7903390889088908890600401615177565b602060405180830381865afa158015612204573d6000803e3d6000fd5b505050506040513d601f19601f820116820180604052508101906122289190614b5f565b155b80156122c7575060405163c161c93f60e01b81526001600160a01b037f0000000000000000000000000000000000000000000000000000000000000000169063c161c93f9061228490339088906000908890600401615177565b602060405180830381865afa1580156122a1573d6000803e3d6000fd5b505050506040513d601f19601f820116820180604052508101906122c59190614b5f565b155b156122e55760405163075fd2b160e01b815260040160405180910390fd5b50505050565b6000806122fd8484633b9aca00612842565b6123079085614b2f565b905061231c85633b9aca00611463818561524b565b6123269086614b2f565b9150505b9392505050565b604051630862026560e41b8152600160048201526001600160a01b037f0000000000000000000000000000000000000000000000000000000000000000811660248301526000917f000000000000000000000000000000000000000000000000000000000000000090911690638620265090604401602060405180830381865afa1580156123c3573d6000803e3d6000fd5b505050506040513d601f19601f820116820180604052508101906123e79190614b42565b9050806001600160a01b0316631ebc263f61eeee6001600160a01b03167f00000000000000000000000000000000000000000000000000000000000000006001600160a01b03161461243a57600061243c565b855b6001877f0000000000000000000000000000000000000000000000000000000000000000886000808a60405160200161247791815260200190565b6040516020818303038152906040526040518963ffffffff1660e01b81526004016124a8979695949392919061525e565b60206040518083038185885af1935050505080156124e3575060408051601f3d908101601f191682019092526124e091810190614b7c565b60015b612597573d808015612511576040519150601f19603f3d011682016040523d82523d6000602084013e612516565b606091505b5061255383306001600160a01b03851603612532576000612534565b835b306001600160a01b0386160361254b57600061254d565b875b88613660565b6001837f80a889d08f0d59eb962335b57fb1d5b29e86e3d23f15087b5541fddf15422bbe878433604051612589939291906152b6565b60405180910390a3506122e5565b5050505050565b604051632538671560e01b8152600481018990526024810188905260448101879052600090819081906001600160a01b037f00000000000000000000000000000000000000000000000000000000000000001690632538671590606401610140604051808303816000875af115801561261b573d6000803e3d6000fd5b505050506040513d601f19601f8201168201806040525081019061263f91906151a0565b91509150878110156126645760405163b01493c160e01b815260040160405180910390fd5b6002546040516331a9108f60e11b8152600481018d90526000919082906001600160a01b037f00000000000000000000000000000000000000000000000000000000000000001690636352211e90602401602060405180830381865afa1580156126d2573d6000803e3d6000fd5b505050506040513d601f19601f820116820180604052508101906126f69190614b42565b9050600082158061271657503360009081526004602052604090205460ff165b61272a576127258f60016131af565b612730565b633b9aca005b9050633b9aca008114612766576127618f6127588861010001516001604f9190911c81161490565b878686866134e3565b612769565b60005b935083850396508660001461278357612783308c8961171d565b505050508a826000015183602001517f2eeee47c6d8d31c3523c3aa07b4c3e3795db36be4c04546ef3e30a5102f568e18a8e86898d8d8d336040516127cf9897969594939291906152e7565b60405180910390a4505098975050505050505050565b60008282036127f557508261232a565b82821115612823576128078383614b2f565b61281290600a614d1a565b61281c9085615347565b905061232a565b61282d8284614b2f565b61283890600a614d1a565b61281c9085615374565b600080806000198587098587029250828110838203039150508060000361287c578382816128725761287261535e565b049250505061232a565b8381106128a657604051631dcf306360e21b815260048101829052602481018590526044016115dc565b60008486880960026001871981018816978890046003810283188082028403028082028403028082028403028082028403028082028403029081029092039091026000889003889004909101858311909403939093029303949094049190911702949350505050565b60008361291d576000612927565b61292786866136dd565b90506001600160a01b037f00000000000000000000000000000000000000000000000000000000000000001663e7c8e3e387612963848961524b565b6040516001600160e01b031960e085901b16815260048101929092526024820152604401600060405180830381600087803b1580156129a157600080fd5b505af11580156129b5573d6000803e3d6000fd5b50505050857f9ecaf7fc3dfffd6867c175d6e684b1f1e3aef019398ba8db2c1ffab4a09db25386838686336040516129f1959493929190615396565b60405180910390a2505050505050565b60006001600160a01b038416612a2a57604051637ba50db360e11b815260040160405180910390fd5b612a326143c2565b6000806000600254905060607f00000000000000000000000000000000000000000000000000000000000000006001600160a01b031663a2df1f958e8e8e8c8c6040518663ffffffff1660e01b8152600401612a929594939291906153e2565b6000604051808303816000875af1158015612ab1573d6000803e3d6000fd5b505050506040513d6000823e601f3d908101601f19168201604052612ad99190810190615421565b6001600160a01b038d16600090815260046020526040902054909b5091985091965090915060ff1680612b295750612710612b1386613b31565b148015612b295750612710612b2786613b4e565b145b80612b32575081155b612b4657612b418c60026131af565b612b4c565b633b9aca005b925089861015612b6f5760405163f896960b60e01b815260040160405180910390fd5b8a15612c7f57604051632eec7b5560e11b8152600481018d90527f00000000000000000000000000000000000000000000000000000000000000006001600160a01b031690635dd8f6aa90602401602060405180830381865afa158015612bda573d6000803e3d6000fd5b505050506040513d601f19601f82011682018060405250810190612bfe9190614b42565b604051631665bc0f60e01b81526001600160a01b038f81166004830152602482018f9052604482018e905260a06064830152600060a4830181905260848301529190911690631665bc0f9060c401600060405180830381600087803b158015612c6657600080fd5b505af1158015612c7a573d6000803e3d6000fd5b505050505b805115612fbf5760006040518061014001604052808f6001600160a01b031681526020018e8152602001876020015181526020018d815260200160405180608001604052807f00000000000000000000000000000000000000000000000000000000000000006001600160a01b031681526020018a81526020017f000000000000000000000000000000000000000000000000000000000000000081526020017f0000000000000000000000000000000000000000000000000000000000000000815250815260200160405180608001604052807f00000000000000000000000000000000000000000000000000000000000000006001600160a01b03168152602001600081526020017f000000000000000000000000000000000000000000000000000000000000000081526020017f000000000000000000000000000000000000000000000000000000000000000081525081526020018b6001600160a01b031681526020018a8152602001604051806020016040528060008152508152602001898152509050612e35604051806060016040528060006001600160a01b0316815260200160008152602001606081525090565b8251600090815b81811015612fb957858181518110612e5657612e56614c20565b6020026020010151935086600014612e7c57612e778460200151888a6122eb565b612e7f565b60005b92508215612eae576020840151612e96908a61524b565b98508284602001818151612eaa9190614b2f565b9052505b60208085015160a087015190910152604084015161010086015283516001600160a01b0390811690630bf46e59907f00000000000000000000000000000000000000000000000000000000000000001661eeee14612f0d576000612f13565b85602001515b876040518363ffffffff1660e01b8152600401612f3091906155f3565b6000604051808303818588803b158015612f4957600080fd5b505af1158015612f5d573d6000803e3d6000fd5b505050505083600001516001600160a01b03167f6596068545b2541b0aff5579d91f991d0fe5957df8e2082483ef361953e1f9978686602001518633604051612fa99493929190615606565b60405180910390a2600101612e3c565b50505050505b50841561301a576000633b9aca008314612fe357612fde8683856122eb565b612fe6565b60005b9050801561300757612ff8868561524b565b93506130048187614b2f565b95505b851561301857613018308a8861171d565b505b82600003613029576000613038565b6130388b600085848c876134e3565b5050505087816000015182602001517f2be10f2a0203c77d0fcaa9fd6484a8a1d6904de31cd820587f60c1c8c338c8148c898c888b8b336040516130829796959493929190615117565b60405180910390a450979650505050505050565b804710156130e65760405162461bcd60e51b815260206004820152601d60248201527f416464726573733a20696e73756666696369656e742062616c616e636500000060448201526064016115dc565b6000826001600160a01b03168260405160006040518083038185875af1925050503d8060008114613133576040519150601f19603f3d011682016040523d82523d6000602084013e613138565b606091505b50509050806117275760405162461bcd60e51b815260206004820152603a60248201527f416464726573733a20756e61626c6520746f2073656e642076616c75652c207260448201527f6563697069656e74206d6179206861766520726576657274656400000000000060648201526084016115dc565b604051630862026560e41b8152600160048201526001600160a01b037f00000000000000000000000000000000000000000000000000000000000000008116602483015260009182917f00000000000000000000000000000000000000000000000000000000000000001690638620265090604401602060405180830381865afa158015613241573d6000803e3d6000fd5b505050506040513d601f19601f820116820180604052508101906132659190614b42565b6001600160a01b03160361327e5750633b9aca00610848565b6003546001600160a01b03161561331a5760035460405163192dd60960e01b81526001600160a01b039091169063192dd609906132c1908690869060040161563e565b602060405180830381865afa9250505080156132fa575060408051601f3d908101601f191682019092526132f791810190614b7c565b60015b61330657506000610848565b633b9aca008111613318579050610848565b505b50600092915050565b6040516369e11cc560e01b81526004810187905260248101869052604481018590526000908190633b9aca009082907f00000000000000000000000000000000000000000000000000000000000000006001600160a01b0316906369e11cc590606401600060405180830381865afa1580156133a3573d6000803e3d6000fd5b505050506040513d6000823e601f3d908101601f191682016040526133cb9190810190615670565b6040805160e081018252600080825260208201819052918101829052606081018290526080810182905260a0810182905260c081018290529192505b82518110156134d15782818151811061342257613422614c20565b60200260200101519150600061343d8a846040015187612842565b9050600061344f848f8e858e8e613b6b565b905080158015906134605750818114155b156134725761346f828861524b565b96505b811561347e57818b039a505b8360400151860395508b8d8f7f0d31ab573f6daa4b1edba8d31973b4ba9f98fbfecc47010c1533eeefd2a1225a878686336040516134bf94939291906157cd565b60405180910390a45050600101613407565b50879450505050965096945050505050565b60006134f08585846122eb565b9050851561360257600087815260016020818152604080842081516080810183528a815263ffffffff808b168286019081528982168386019081526001600160a01b03808d16606086019081528654808b018855968b5297909920935160029095029093019384555192909501805491519451909616600160401b02600160401b600160e01b03199486166401000000000267ffffffffffffffff199092169290951691909117179190911691909117909155518490869089907f77813be0661650ddc1a5193ff2837df4162b251cb432651e2c060c3fc39756be906135f5908790899033909283526001600160a01b03918216602084015216604082015260600190565b60405180910390a4613656565b61360d818489612331565b604080516001600160a01b038516815233602082015260009183918a917fcf0c92a2c6d7c42f488326b0cb900104b99984b6b218db81cd29371364a35251910160405180910390a45b9695505050505050565b60405163e7c8e3e360e01b815260048101859052602481018290527f00000000000000000000000000000000000000000000000000000000000000006001600160a01b03169063e7c8e3e390604401600060405180830381600087803b1580156136c957600080fd5b505af1158015611569573d6000803e3d6000fd5b600082815260016020908152604080832080548251818502810185019093528083528493849084015b8282101561377357600084815260209081902060408051608081018252600286029092018054835260019081015463ffffffff8082168587015264010000000082041692840192909252600160401b9091046001600160a01b031660608301529083529092019101613706565b50505060008681526001602052604081209293506137929291506143a1565b8051839060005b81811015613ae9578260000361385857600087815260016020526040902084518590839081106137cb576137cb614c20565b60209081029190910181015182546001818101855560009485529383902082516002909202019081559181015191909201805460408401516060909401516001600160a01b0316600160401b02600160401b600160e01b031963ffffffff9586166401000000000267ffffffffffffffff1990931695909416949094171791909116919091179055613ae1565b83818151811061386a5761386a614c20565b60200260200101516000015183106139205783818151811061388e5761388e614c20565b602002602001015160000151830392508381815181106138b0576138b0614c20565b60200260200101516020015163ffffffff16600014806138f65750633b9aca008482815181106138e2576138e2614c20565b60200260200101516040015163ffffffff16145b6139145761390f848281518110610fcb57610fcb614c20565b613917565b60005b85019450613ae1565b6001600088815260200190815260200160002060405180608001604052808587858151811061395157613951614c20565b60200260200101516000015103815260200186848151811061397557613975614c20565b60200260200101516020015163ffffffff16815260200186848151811061399e5761399e614c20565b60200260200101516040015163ffffffff1681526020018684815181106139c7576139c7614c20565b6020908102919091018101516060908101516001600160a01b0390811690935284546001818101875560009687529583902085516002909202019081559184015191909401805460408501519490950151909216600160401b02600160401b600160e01b031963ffffffff9485166401000000000267ffffffffffffffff19909616949092169390931793909317929092161790558351849082908110613a7057613a70614c20565b60200260200101516020015163ffffffff1660001480613ab65750633b9aca00848281518110613aa257613aa2614c20565b60200260200101516040015163ffffffff16145b613ad557613ad083858381518110610fe957610fe9614c20565b613ad8565b60005b85019450600092505b600101613799565b50604080518381523360208201528591879189917f59860d79d97c1fce2be7f987915c631471f4b08f671200463cc40a3380194ffb910160405180910390a450505092915050565b60006028826101000151901c61ffff166127106108489190614b2f565b60006038826101000151901c61ffff166127106108489190614b2f565b60c086015183906001600160a01b031615613e2b57633b9aca008214158015613bb1575060c08701516001600160a01b031660009081526004602052604090205460ff16155b15613bc457613bc18484846122eb565b90035b60006040518060c001604052807f00000000000000000000000000000000000000000000000000000000000000006001600160a01b031681526020018381526020017f000000000000000000000000000000000000000000000000000000000000000081526020018881526020018781526020018981525090506060613c558960c00151634eba05fd60e11b6142c9565b15613d88578860c001516001600160a01b0316639d740bfa61eeee6001600160a01b03167f00000000000000000000000000000000000000000000000000000000000000006001600160a01b031614613caf576000613cb1565b845b846040518363ffffffff1660e01b8152600401613cce9190615802565b6000604051808303818588803b158015613ce757600080fd5b505af193505050508015613cf9575060015b613d83573d808015613d27576040519150601f19603f3d011682016040523d82523d6000602084013e613d2c565b606091505b50805115613d3a5780613d7b565b604051602001613d6b906020808252600d908201526c105b1b1bd8d85d194819985a5b609a1b604082015260600190565b6040516020818303038152906040525b915050613dca565b613dca565b604051602001613db8906020808252600c908201526b12515490cc4d8d4819985a5b60a21b604082015260600190565b60405160208183030381529060405290505b805115613e2457613de1888a60c001518589613660565b60009250877f290b5df59e172593762964e4f8ed2b4a9192d3197bfd2be4bae123908f8007968a888433604051613e1b9493929190615856565b60405180910390a25b5050613656565b606087015115614286576060870151604051630862026560e41b81526000916001600160a01b037f00000000000000000000000000000000000000000000000000000000000000001691638620265091613ebb917f0000000000000000000000000000000000000000000000000000000000000000906004019182526001600160a01b0316602082015260400190565b602060405180830381865afa158015613ed8573d6000803e3d6000fd5b505050506040513d601f19601f82011682018060405250810190613efc9190614b42565b90506001600160a01b038116613f5e5760009150613f1d8760008088613660565b867f290b5df59e172593762964e4f8ed2b4a9192d3197bfd2be4bae123908f800796898733604051613f5193929190615899565b60405180910390a2614280565b6001600160a01b0381163014801590613f7b5750633b9aca008314155b8015613fa057506001600160a01b03811660009081526004602052604090205460ff16155b15613fb557613fb08585856122eb565b820391505b87602001511561413257806001600160a01b0316630cf8e85861eeee6001600160a01b03167f00000000000000000000000000000000000000000000000000000000000000006001600160a01b031614614010576000614012565b835b8a60600151857f00000000000000000000000000000000000000000000000000000000000000008c60405160200161404c91815260200190565b6040516020818303038152906040526040518663ffffffff1660e01b815260040161407a9493929190614be5565b6000604051808303818588803b15801561409357600080fd5b505af1935050505080156140a5575060015b61412d573d8080156140d3576040519150601f19603f3d011682016040523d82523d6000602084013e6140d8565b606091505b506140e588838589613660565b60009250877f290b5df59e172593762964e4f8ed2b4a9192d3197bfd2be4bae123908f8007968a88843360405161411f9493929190615856565b60405180910390a250614280565b614280565b806001600160a01b0316631ebc263f61eeee6001600160a01b03167f00000000000000000000000000000000000000000000000000000000000000006001600160a01b031614614183576000614185565b835b60608b015160808c015186907f0000000000000000000000000000000000000000000000000000000000000000906001600160a01b03166141c657336141cc565b8d608001515b60008f600001518f6040516020016141e691815260200190565b6040516020818303038152906040526040518963ffffffff1660e01b8152600401614217979695949392919061525e565b60206040518083038185885af193505050508015614252575060408051601f3d908101601f1916820190925261424f91810190614b7c565b60015b613e24573d8080156140d3576040519150601f19603f3d011682016040523d82523d6000602084013e6140d8565b50613656565b633b9aca00821461429f5761429c8484846122eb565b90035b60808701516136569030906001600160a01b03166142bd57336142c3565b88608001515b8361171d565b60006142d4836142e5565b801561232a575061232a8383614318565b60006142f8826301ffc9a760e01b614318565b80156108485750614311826001600160e01b0319614318565b1592915050565b604080516001600160e01b03198316602480830191909152825180830390910181526044909101909152602080820180516001600160e01b03166301ffc9a760e01b178152825160009392849283928392918391908a617530fa92503d9150600051905082801561438a575060208210155b80156143965750600081115b979650505050505050565b50805460008255600202906000526020600020908101906115ee9190614417565b6040518061012001604052806000815260200160008152602001600081526020016000815260200160008152602001600081526020016000815260200160006001600160a01b03168152602001600081525090565b5b8082111561443e57600081556001810180546001600160e01b0319169055600201614418565b5090565b60006020828403121561445457600080fd5b81356001600160e01b03198116811461232a57600080fd5b6001600160a01b03811681146115ee57600080fd5b60008083601f84011261449357600080fd5b5081356001600160401b038111156144aa57600080fd5b6020830191508360208285010111156144c257600080fd5b9250929050565b600080600080600080600060a0888a0312156144e457600080fd5b873596506020880135955060408801356144fd8161446c565b945060608801356001600160401b038082111561451957600080fd5b6145258b838c01614481565b909650945060808a013591508082111561453e57600080fd5b5061454b8a828b01614481565b989b979a50959850939692959293505050565b60006020828403121561457057600080fd5b813561232a8161446c565b80151581146115ee57600080fd5b6000806000806000806000806000806101008b8d0312156145a957600080fd5b8a35995060208b0135985060408b01356145c28161446c565b975060608b01356145d28161446c565b965060808b0135955060a08b01356145e98161457b565b945060c08b01356001600160401b038082111561460557600080fd5b6146118e838f01614481565b909650945060e08d013591508082111561462a57600080fd5b506146378d828e01614481565b915080935050809150509295989b9194979a5092959850565b6000806040838503121561466357600080fd5b8235915060208301356146758161446c565b809150509250929050565b600080600080600080600060c0888a03121561469b57600080fd5b87359650602088013595506040880135945060608801356146bb8161446c565b93506080880135925060a08801356001600160401b038111156146dd57600080fd5b61454b8a828b01614481565b6000602082840312156146fb57600080fd5b5035919050565b6000806040838503121561471557600080fd5b82356147208161446c565b915060208301356146758161457b565b602080825282518282018190526000919060409081850190868401855b82811015614799578151805185528681015163ffffffff908116888701528682015116868601526060908101516001600160a01b0316908501526080909301929085019060010161474d565b5091979650505050505050565b634e487b7160e01b600052604160045260246000fd5b60405161012081016001600160401b03811182821017156147df576147df6147a6565b60405290565b604051606081016001600160401b03811182821017156147df576147df6147a6565b60405160e081016001600160401b03811182821017156147df576147df6147a6565b604051601f8201601f191681016001600160401b0381118282101715614851576148516147a6565b604052919050565b60006001600160401b03821115614872576148726147a6565b50601f01601f191660200190565b600082601f83011261489157600080fd5b81356148a461489f82614859565b614829565b8181528460208386010111156148b957600080fd5b816020850160208301376000918101602001919091529392505050565b60008060008060008060008060006101008a8c0312156148f557600080fd5b8935985060208a0135975060408a0135965060608a01356149158161446c565b955060808a0135945060a08a013561492c8161446c565b935060c08a01356001600160401b038082111561494857600080fd5b6149548d838e01614880565b945060e08c013591508082111561496a57600080fd5b506149778c828d01614481565b915080935050809150509295985092959850929598565b60008060008060008060008060c0898b0312156149aa57600080fd5b883597506020890135965060408901356149c38161446c565b955060608901356149d38161457b565b945060808901356001600160401b03808211156149ef57600080fd5b6149fb8c838d01614481565b909650945060a08b0135915080821115614a1457600080fd5b50614a218b828c01614481565b999c989b5096995094979396929594505050565b60008060408385031215614a4857600080fd5b8235614a538161446c565b946020939093013593505050565b600080600080600080600080610100898b031215614a7e57600080fd5b8835614a898161446c565b975060208901359650604089013595506060890135614aa78161446c565b94506080890135935060a0890135614abe8161446c565b925060c08901356001600160401b0380821115614ada57600080fd5b614ae68c838d01614880565b935060e08b0135915080821115614afc57600080fd5b50614b098b828c01614880565b9150509295985092959890939650565b634e487b7160e01b600052601160045260246000fd5b8181038181111561084857610848614b19565b600060208284031215614b5457600080fd5b815161232a8161446c565b600060208284031215614b7157600080fd5b815161232a8161457b565b600060208284031215614b8e57600080fd5b5051919050565b60005b83811015614bb0578181015183820152602001614b98565b50506000910152565b60008151808452614bd1816020860160208601614b95565b601f01601f19169290920160200192915050565b84815283602082015260018060a01b038316604082015260a06060820152600060a082015260c06080820152600061365660c0830184614bb9565b634e487b7160e01b600052603260045260246000fd5b600181815b80851115614c71578160001904821115614c5757614c57614b19565b80851615614c6457918102915b93841c9390800290614c3b565b509250929050565b600082614c8857506001610848565b81614c9557506000610848565b8160018114614cab5760028114614cb557614cd1565b6001915050610848565b60ff841115614cc657614cc6614b19565b50506001821b610848565b5060208310610133831016604e8410600b8410161715614cf4575081810a610848565b614cfe8383614c36565b8060001904821115614d1257614d12614b19565b029392505050565b600061232a8383614c79565b80516001600160a01b031682526020808201519083015260408082015190830152606090810151910152565b6001600160a01b03888116825260009061014090614d73602085018b614d26565b8860a08501528760c085015280871660e08501525080610100840152614d9b81840186614bb9565b9050828103610120840152614db08185614bb9565b9a9950505050505050505050565b8051614dc98161446c565b919050565b60006101208284031215614de157600080fd5b614de96147bc565b9050815181526020820151602082015260408201516040820152606082015160608201526080820151608082015260a082015160a082015260c082015160c0820152614e3760e08301614dbe565b60e082015261010080830151818301525092915050565b60006001600160401b03821115614e6757614e676147a6565b5060051b60200190565b600082601f830112614e8257600080fd5b8151614e9061489f82614859565b818152846020838601011115614ea557600080fd5b61146f826020830160208701614b95565b6000806000806101808587031215614ecd57600080fd5b614ed78686614dce565b935061012085015192506101408501516001600160401b0380821115614efc57600080fd5b818701915087601f830112614f1057600080fd5b8151614f1e61489f82614e4e565b8082825260208201915060208360051b86010192508a831115614f4057600080fd5b602085015b83811015614fca57805185811115614f5c57600080fd5b86016060818e03601f19011215614f7257600080fd5b614f7a6147e5565b6020820151614f888161446c565b815260408201516020820152606082015187811115614fa657600080fd5b614fb58f602083860101614e71565b60408301525084525060209283019201614f45565b506101608a01519096509350505080821115614fe557600080fd5b50614ff287828801614e71565b91505092959194509250565b80516001600160a01b031682526000610220602083015160208501526040830151604085015260608301516150366060860182614d26565b50608083015161504960e0860182614d26565b5060a083015161016085015260c08301516001600160a01b031661018085015260e083015115156101a08501526101008301516101c0850182905261509082860182614bb9565b9150506101208301518482036101e08601526150ac8282614bb9565b9150506101408301518482036102008601526150c88282614bb9565b95945050505050565b60208152600061232a6020830184614ffe565b6060815260006150f76060830186614ffe565b6020830194909452506001600160a01b0391909116604090910152919050565b600060018060a01b03808a168352808916602084015287604084015286606084015260e0608084015261514d60e0840187614bb9565b83810360a085015261515f8187614bb9565b92505080841660c08401525098975050505050505050565b6001600160a01b0394851681529290931660208301526040820152606081019190915260800190565b60008061014083850312156151b457600080fd5b6151be8484614dce565b915061012083015190509250929050565b81835281816020850137506000828201602090810191909152601f909101601f19169091010190565b600060018060a01b03808b16835289602084015288604084015287606084015286608084015260e060a084015261523360e0840186886151cf565b915080841660c0840152509998505050505050505050565b8082018082111561084857610848614b19565b878152602081018790526001600160a01b038681166040830152851660608201526080810184905282151560a082015261010060c08201819052600090820181905261012060e08301819052614db081840185614bb9565b8381526060602082015260006152cf6060830185614bb9565b905060018060a01b0383166040830152949350505050565b600060018060a01b03808b16835289602084015288604084015287606084015260e0608084015261531b60e0840188614bb9565b83810360a085015261532e8187896151cf565b92505080841660c0840152509998505050505050505050565b808202811582820484141761084857610848614b19565b634e487b7160e01b600052601260045260246000fd5b60008261539157634e487b7160e01b600052601260045260246000fd5b500490565b85815284602082015260a0604082015260006153b560a0830186614bb9565b82810360608401526153c78186614bb9565b91505060018060a01b03831660808301529695505050505050565b60018060a01b038616815284602082015283604082015260a06060820152600061540f60a0830185614bb9565b8281036080840152610c838185614bb9565b600080600080610180858703121561543857600080fd5b6154428686614dce565b935061012085015192506101408501516001600160401b038082111561546757600080fd5b818701915087601f83011261547b57600080fd5b815161548961489f82614e4e565b8082825260208201915060208360051b86010192508a8311156154ab57600080fd5b602085015b83811015614fca578051858111156154c757600080fd5b86016060818e03601f190112156154dd57600080fd5b6154e56147e5565b60208201516154f38161446c565b81526040820151602082015260608201518781111561551157600080fd5b6155208f602083860101614e71565b604083015250845250602092830192016154b0565b80516001600160a01b03168252600061020060208301516020850152604083015160408501526060830151606085015260808301516155776080860182614d26565b5060a083015161010061558c81870183614d26565b60c08501516001600160a01b031661018087015260e08501516101a0870184905291506155bb83870183614bb9565b9250808501519150508482036101c08601526155d78282614bb9565b9150506101208301518482036101e08601526150c88282614bb9565b60208152600061232a6020830184615535565b6080815260006156196080830187615535565b60208301959095525060408101929092526001600160a01b0316606090910152919050565b828152604081016003831061566357634e487b7160e01b600052602160045260246000fd5b8260208301529392505050565b6000602080838503121561568357600080fd5b82516001600160401b0381111561569957600080fd5b8301601f810185136156aa57600080fd5b80516156b861489f82614e4e565b81815260e091820283018401918482019190888411156156d757600080fd5b938501935b8385101561576d5780858a0312156156f45760008081fd5b6156fc614807565b85516157078161457b565b8152858701516157168161457b565b81880152604086810151908201526060808701519082015260808087015161573d8161446c565b9082015260a0868101519082015260c08087015161575a8161446c565b90820152835293840193918501916156dc565b50979650505050505050565b80511515825260208082015115159083015260408082015190830152606080820151908301526080808201516001600160a01b039081169184019190915260a0808301519084015260c09182015116910152565b61014081016157dc8287615779565b60e08201949094526101008101929092526001600160a01b031661012090910152919050565b81516001600160a01b031681526020808301519082015260408083015190820152606080830151908201526080808301519082015260a08281015161018083019161584f90840182615779565b5092915050565b60006101406158658388615779565b8560e08401528061010084015261587e81840186614bb9565b91505060018060a01b03831661012083015295945050505050565b60006101406158a88387615779565b60e08301949094525061010081018390526012928101929092527115195c9b5a5b985b081b9bdd08199bdd5b9960721b6101608301526001600160a01b03166101208201526101800191905056fea2646970667358221220543fd280dd0669877a93aa94ca58f7373f376f899f0953d366c1d2d63b07e8dc64736f6c63430008120033",
    "linkReferences": {}
  },
  "methodIdentifiers": {
    "acceptsToken(address,uint256)": "df21a7dd",
    "addToBalanceOf(uint256,uint256,address,bool,string,bytes)": "c715967a",
    "addToBalanceOf(uint256,uint256,address,string,bytes)": "0cf8e858",
    "baseWeightCurrency()": "2d1a5903",
    "currency()": "e5a6b10f",
    "currencyForToken(address)": "1982d679",
    "currentEthOverflowOf(uint256)": "a32e1e96",
    "decimals()": "313ce567",
    "decimalsForToken(address)": "b7bad1b1",
    "directory()": "c41c2f24",
    "distributePayoutsOf(uint256,uint256,uint256,address,uint256,bytes)": "4a4305c0",
    "fee()": "ddca3f43",
    "feeGauge()": "d6dacc53",
    "heldFeesOf(uint256)": "8af56094",
    "isFeelessAddress(address)": "b631b500",
    "migrate(uint256,address)": "405b84fa",
    "operatorStore()": "ad007d63",
    "owner()": "8da5cb5b",
    "pay(uint256,uint256,address,address,uint256,bool,string,bytes)": "1ebc263f",
    "payoutSplitsGroup()": "66248b86",
    "prices()": "d3419bf3",
    "processFees(uint256)": "89701db5",
    "projects()": "8b79543c",
    "redeemTokensOf(address,uint256,uint256,address,uint256,address,string,bytes)": "fe663f0f",
    "renounceOwnership()": "715018a6",
    "setFee(uint256)": "69fe0e2d",
    "setFeeGauge(address)": "637913ac",
    "setFeelessAddress(address,bool)": "7258002c",
    "splitsStore()": "2bdfe004",
    "store()": "975057e7",
    "supportsInterface(bytes4)": "01ffc9a7",
    "token()": "fc0c546a",
    "transferOwnership(address)": "f2fde38b",
    "useAllowanceOf(uint256,uint256,uint256,address,uint256,address,string,bytes)": "a02f801c"
  },
  "id": 16
}