{
  "abi": [
    {
      "inputs": [
        {
          "internalType": "contract IJBDirectory",
          "name": "_directory",
          "type": "address"
        },
        {
          "internalType": "contract IJBFundingCycleStore",
          "name": "_fundingCycleStore",
          "type": "address"
        },
        {
          "internalType": "contract IJBPrices",
          "name": "_prices",
          "type": "address"
        }
      ],
      "stateMutability": "nonpayable",
      "type": "constructor"
    },
    {
      "inputs": [],
      "name": "CURRENCY_MISMATCH",
      "type": "error"
    },
    {
      "inputs": [],
      "name": "DISTRIBUTION_AMOUNT_LIMIT_REACHED",
      "type": "error"
    },
    {
      "inputs": [],
      "name": "FUNDING_CYCLE_DISTRIBUTION_PAUSED",
      "type": "error"
    },
    {
      "inputs": [],
      "name": "FUNDING_CYCLE_PAYMENT_PAUSED",
      "type": "error"
    },
    {
      "inputs": [],
      "name": "FUNDING_CYCLE_REDEEM_PAUSED",
      "type": "error"
    },
    {
      "inputs": [],
      "name": "INADEQUATE_CONTROLLER_ALLOWANCE",
      "type": "error"
    },
    {
      "inputs": [],
      "name": "INADEQUATE_PAYMENT_TERMINAL_STORE_BALANCE",
      "type": "error"
    },
    {
      "inputs": [],
      "name": "INSUFFICIENT_TOKENS",
      "type": "error"
    },
    {
      "inputs": [],
      "name": "INVALID_AMOUNT_TO_SEND_DELEGATE",
      "type": "error"
    },
    {
      "inputs": [],
      "name": "INVALID_FUNDING_CYCLE",
      "type": "error"
    },
    {
      "inputs": [],
      "name": "PAYMENT_TERMINAL_MIGRATION_NOT_ALLOWED",
      "type": "error"
    },
    {
      "inputs": [
        {
          "internalType": "uint256",
          "name": "prod1",
          "type": "uint256"
        },
        {
          "internalType": "uint256",
          "name": "denominator",
          "type": "uint256"
        }
      ],
      "name": "PRBMath__MulDivOverflow",
      "type": "error"
    },
    {
      "inputs": [
        {
          "internalType": "contract IJBSingleTokenPaymentTerminal",
          "name": "",
          "type": "address"
        },
        {
          "internalType": "uint256",
          "name": "",
          "type": "uint256"
        }
      ],
      "name": "balanceOf",
      "outputs": [
        {
          "internalType": "uint256",
          "name": "",
          "type": "uint256"
        }
      ],
      "stateMutability": "view",
      "type": "function"
    },
    {
      "inputs": [
        {
          "internalType": "contract IJBSingleTokenPaymentTerminal",
          "name": "_terminal",
          "type": "address"
        },
        {
          "internalType": "uint256",
          "name": "_projectId",
          "type": "uint256"
        }
      ],
      "name": "currentOverflowOf",
      "outputs": [
        {
          "internalType": "uint256",
          "name": "",
          "type": "uint256"
        }
      ],
      "stateMutability": "view",
      "type": "function"
    },
    {
      "inputs": [
        {
          "internalType": "uint256",
          "name": "_projectId",
          "type": "uint256"
        },
        {
          "internalType": "uint256",
          "name": "_tokenCount",
          "type": "uint256"
        },
        {
          "internalType": "uint256",
          "name": "_totalSupply",
          "type": "uint256"
        },
        {
          "internalType": "uint256",
          "name": "_overflow",
          "type": "uint256"
        }
      ],
      "name": "currentReclaimableOverflowOf",
      "outputs": [
        {
          "internalType": "uint256",
          "name": "",
          "type": "uint256"
        }
      ],
      "stateMutability": "view",
      "type": "function"
    },
    {
      "inputs": [
        {
          "internalType": "contract IJBSingleTokenPaymentTerminal",
          "name": "_terminal",
          "type": "address"
        },
        {
          "internalType": "uint256",
          "name": "_projectId",
          "type": "uint256"
        },
        {
          "internalType": "uint256",
          "name": "_tokenCount",
          "type": "uint256"
        },
        {
          "internalType": "bool",
          "name": "_useTotalOverflow",
          "type": "bool"
        }
      ],
      "name": "currentReclaimableOverflowOf",
      "outputs": [
        {
          "internalType": "uint256",
          "name": "",
          "type": "uint256"
        }
      ],
      "stateMutability": "view",
      "type": "function"
    },
    {
      "inputs": [
        {
          "internalType": "uint256",
          "name": "_projectId",
          "type": "uint256"
        },
        {
          "internalType": "uint256",
          "name": "_decimals",
          "type": "uint256"
        },
        {
          "internalType": "uint256",
          "name": "_currency",
          "type": "uint256"
        }
      ],
      "name": "currentTotalOverflowOf",
      "outputs": [
        {
          "internalType": "uint256",
          "name": "",
          "type": "uint256"
        }
      ],
      "stateMutability": "view",
      "type": "function"
    },
    {
      "inputs": [],
      "name": "directory",
      "outputs": [
        {
          "internalType": "contract IJBDirectory",
          "name": "",
          "type": "address"
        }
      ],
      "stateMutability": "view",
      "type": "function"
    },
    {
      "inputs": [],
      "name": "fundingCycleStore",
      "outputs": [
        {
          "internalType": "contract IJBFundingCycleStore",
          "name": "",
          "type": "address"
        }
      ],
      "stateMutability": "view",
      "type": "function"
    },
    {
      "inputs": [],
      "name": "prices",
      "outputs": [
        {
          "internalType": "contract IJBPrices",
          "name": "",
          "type": "address"
        }
      ],
      "stateMutability": "view",
      "type": "function"
    },
    {
      "inputs": [
        {
          "internalType": "uint256",
          "name": "_projectId",
          "type": "uint256"
        },
        {
          "internalType": "uint256",
          "name": "_amount",
          "type": "uint256"
        }
      ],
      "name": "recordAddedBalanceFor",
      "outputs": [],
      "stateMutability": "nonpayable",
      "type": "function"
    },
    {
      "inputs": [
        {
          "internalType": "uint256",
          "name": "_projectId",
          "type": "uint256"
        },
        {
          "internalType": "uint256",
          "name": "_amount",
          "type": "uint256"
        },
        {
          "internalType": "uint256",
          "name": "_currency",
          "type": "uint256"
        }
      ],
      "name": "recordDistributionFor",
      "outputs": [
        {
          "components": [
            {
              "internalType": "uint256",
              "name": "number",
              "type": "uint256"
            },
            {
              "internalType": "uint256",
              "name": "configuration",
              "type": "uint256"
            },
            {
              "internalType": "uint256",
              "name": "basedOn",
              "type": "uint256"
            },
            {
              "internalType": "uint256",
              "name": "start",
              "type": "uint256"
            },
            {
              "internalType": "uint256",
              "name": "duration",
              "type": "uint256"
            },
            {
              "internalType": "uint256",
              "name": "weight",
              "type": "uint256"
            },
            {
              "internalType": "uint256",
              "name": "discountRate",
              "type": "uint256"
            },
            {
              "internalType": "contract IJBFundingCycleBallot",
              "name": "ballot",
              "type": "address"
            },
            {
              "internalType": "uint256",
              "name": "metadata",
              "type": "uint256"
            }
          ],
          "internalType": "struct JBFundingCycle",
          "name": "fundingCycle",
          "type": "tuple"
        },
        {
          "internalType": "uint256",
          "name": "distributedAmount",
          "type": "uint256"
        }
      ],
      "stateMutability": "nonpayable",
      "type": "function"
    },
    {
      "inputs": [
        {
          "internalType": "uint256",
          "name": "_projectId",
          "type": "uint256"
        }
      ],
      "name": "recordMigration",
      "outputs": [
        {
          "internalType": "uint256",
          "name": "balance",
          "type": "uint256"
        }
      ],
      "stateMutability": "nonpayable",
      "type": "function"
    },
    {
      "inputs": [
        {
          "internalType": "address",
          "name": "_payer",
          "type": "address"
        },
        {
          "components": [
            {
              "internalType": "address",
              "name": "token",
              "type": "address"
            },
            {
              "internalType": "uint256",
              "name": "value",
              "type": "uint256"
            },
            {
              "internalType": "uint256",
              "name": "decimals",
              "type": "uint256"
            },
            {
              "internalType": "uint256",
              "name": "currency",
              "type": "uint256"
            }
          ],
          "internalType": "struct JBTokenAmount",
          "name": "_amount",
          "type": "tuple"
        },
        {
          "internalType": "uint256",
          "name": "_projectId",
          "type": "uint256"
        },
        {
          "internalType": "uint256",
          "name": "_baseWeightCurrency",
          "type": "uint256"
        },
        {
          "internalType": "address",
          "name": "_beneficiary",
          "type": "address"
        },
        {
          "internalType": "string",
          "name": "_memo",
          "type": "string"
        },
        {
          "internalType": "bytes",
          "name": "_metadata",
          "type": "bytes"
        }
      ],
      "name": "recordPaymentFrom",
      "outputs": [
        {
          "components": [
            {
              "internalType": "uint256",
              "name": "number",
              "type": "uint256"
            },
            {
              "internalType": "uint256",
              "name": "configuration",
              "type": "uint256"
            },
            {
              "internalType": "uint256",
              "name": "basedOn",
              "type": "uint256"
            },
            {
              "internalType": "uint256",
              "name": "start",
              "type": "uint256"
            },
            {
              "internalType": "uint256",
              "name": "duration",
              "type": "uint256"
            },
            {
              "internalType": "uint256",
              "name": "weight",
              "type": "uint256"
            },
            {
              "internalType": "uint256",
              "name": "discountRate",
              "type": "uint256"
            },
            {
              "internalType": "contract IJBFundingCycleBallot",
              "name": "ballot",
              "type": "address"
            },
            {
              "internalType": "uint256",
              "name": "metadata",
              "type": "uint256"
            }
          ],
          "internalType": "struct JBFundingCycle",
          "name": "fundingCycle",
          "type": "tuple"
        },
        {
          "internalType": "uint256",
          "name": "tokenCount",
          "type": "uint256"
        },
        {
          "components": [
            {
              "internalType": "contract IJBPayDelegate",
              "name": "delegate",
              "type": "address"
            },
            {
              "internalType": "uint256",
              "name": "amount",
              "type": "uint256"
            }
          ],
          "internalType": "struct JBPayDelegateAllocation[]",
          "name": "delegateAllocations",
          "type": "tuple[]"
        },
        {
          "internalType": "string",
          "name": "memo",
          "type": "string"
        }
      ],
      "stateMutability": "nonpayable",
      "type": "function"
    },
    {
      "inputs": [
        {
          "internalType": "address",
          "name": "_holder",
          "type": "address"
        },
        {
          "internalType": "uint256",
          "name": "_projectId",
          "type": "uint256"
        },
        {
          "internalType": "uint256",
          "name": "_tokenCount",
          "type": "uint256"
        },
        {
          "internalType": "string",
          "name": "_memo",
          "type": "string"
        },
        {
          "internalType": "bytes",
          "name": "_metadata",
          "type": "bytes"
        }
      ],
      "name": "recordRedemptionFor",
      "outputs": [
        {
          "components": [
            {
              "internalType": "uint256",
              "name": "number",
              "type": "uint256"
            },
            {
              "internalType": "uint256",
              "name": "configuration",
              "type": "uint256"
            },
            {
              "internalType": "uint256",
              "name": "basedOn",
              "type": "uint256"
            },
            {
              "internalType": "uint256",
              "name": "start",
              "type": "uint256"
            },
            {
              "internalType": "uint256",
              "name": "duration",
              "type": "uint256"
            },
            {
              "internalType": "uint256",
              "name": "weight",
              "type": "uint256"
            },
            {
              "internalType": "uint256",
              "name": "discountRate",
              "type": "uint256"
            },
            {
              "internalType": "contract IJBFundingCycleBallot",
              "name": "ballot",
              "type": "address"
            },
            {
              "internalType": "uint256",
              "name": "metadata",
              "type": "uint256"
            }
          ],
          "internalType": "struct JBFundingCycle",
          "name": "fundingCycle",
          "type": "tuple"
        },
        {
          "internalType": "uint256",
          "name": "reclaimAmount",
          "type": "uint256"
        },
        {
          "components": [
            {
              "internalType": "contract IJBRedemptionDelegate",
              "name": "delegate",
              "type": "address"
            },
            {
              "internalType": "uint256",
              "name": "amount",
              "type": "uint256"
            }
          ],
          "internalType": "struct JBRedemptionDelegateAllocation[]",
          "name": "delegateAllocations",
          "type": "tuple[]"
        },
        {
          "internalType": "string",
          "name": "memo",
          "type": "string"
        }
      ],
      "stateMutability": "nonpayable",
      "type": "function"
    },
    {
      "inputs": [
        {
          "internalType": "uint256",
          "name": "_projectId",
          "type": "uint256"
        },
        {
          "internalType": "uint256",
          "name": "_amount",
          "type": "uint256"
        },
        {
          "internalType": "uint256",
          "name": "_currency",
          "type": "uint256"
        }
      ],
      "name": "recordUsedAllowanceOf",
      "outputs": [
        {
          "components": [
            {
              "internalType": "uint256",
              "name": "number",
              "type": "uint256"
            },
            {
              "internalType": "uint256",
              "name": "configuration",
              "type": "uint256"
            },
            {
              "internalType": "uint256",
              "name": "basedOn",
              "type": "uint256"
            },
            {
              "internalType": "uint256",
              "name": "start",
              "type": "uint256"
            },
            {
              "internalType": "uint256",
              "name": "duration",
              "type": "uint256"
            },
            {
              "internalType": "uint256",
              "name": "weight",
              "type": "uint256"
            },
            {
              "internalType": "uint256",
              "name": "discountRate",
              "type": "uint256"
            },
            {
              "internalType": "contract IJBFundingCycleBallot",
              "name": "ballot",
              "type": "address"
            },
            {
              "internalType": "uint256",
              "name": "metadata",
              "type": "uint256"
            }
          ],
          "internalType": "struct JBFundingCycle",
          "name": "fundingCycle",
          "type": "tuple"
        },
        {
          "internalType": "uint256",
          "name": "usedAmount",
          "type": "uint256"
        }
      ],
      "stateMutability": "nonpayable",
      "type": "function"
    },
    {
      "inputs": [
        {
          "internalType": "contract IJBSingleTokenPaymentTerminal",
          "name": "",
          "type": "address"
        },
        {
          "internalType": "uint256",
          "name": "",
          "type": "uint256"
        },
        {
          "internalType": "uint256",
          "name": "",
          "type": "uint256"
        }
      ],
      "name": "usedDistributionLimitOf",
      "outputs": [
        {
          "internalType": "uint256",
          "name": "",
          "type": "uint256"
        }
      ],
      "stateMutability": "view",
      "type": "function"
    },
    {
      "inputs": [
        {
          "internalType": "contract IJBSingleTokenPaymentTerminal",
          "name": "",
          "type": "address"
        },
        {
          "internalType": "uint256",
          "name": "",
          "type": "uint256"
        },
        {
          "internalType": "uint256",
          "name": "",
          "type": "uint256"
        }
      ],
      "name": "usedOverflowAllowanceOf",
      "outputs": [
        {
          "internalType": "uint256",
          "name": "",
          "type": "uint256"
        }
      ],
      "stateMutability": "view",
      "type": "function"
    }
  ],
  "bytecode": {
    "object": "0x60e06040523480156200001157600080fd5b506040516200349138038062003491833981016040819052620000349162000070565b60016000556001600160a01b0392831660805290821660a0521660c052620000c4565b6001600160a01b03811681146200006d57600080fd5b50565b6000806000606084860312156200008657600080fd5b8351620000938162000057565b6020850151909350620000a68162000057565b6040850151909250620000b98162000057565b809150509250925092565b60805160a05160c05161331162000180600039600081816102630152818161069a01528181610bc5015281816120fd01526122e101526000818161018b01528181610337015281816107e801528181610c9301528181610d8f015281816111800152818161144c015281816115150152818161182f01528181611c320152612368015260008181610229015281816103e701528181610fcf015281816116f70152818161190801528181611ed3015261218001526133116000f3fe608060405234801561001057600080fd5b50600436106100ff5760003560e01c8063c294b2f411610097578063d49031c011610066578063d49031c014610285578063d4c3a8d214610298578063e7c8e3e3146102c9578063e8ba563a146102de57600080fd5b8063c294b2f414610211578063c41c2f2414610224578063c66445971461024b578063d3419bf31461025e57600080fd5b80636bb6a5ad116100d35780636bb6a5ad146101c5578063a2df1f95146101d8578063a57c7f59146101eb578063b753d7e9146101fe57600080fd5b8062fdd58e1461010457806325386715146101425780632fa1b39114610163578063557e715514610186575b600080fd5b61012f61011236600461257b565b600160209081526000928352604080842090915290825290205481565b6040519081526020015b60405180910390f35b6101556101503660046125a7565b61030f565b604051610139929190612632565b6101766101713660046127b2565b6107bd565b60405161013994939291906128c3565b6101ad7f000000000000000000000000000000000000000000000000000000000000000081565b6040516001600160a01b039091168152602001610139565b61012f6101d3366004612942565b610c70565b6101766101e636600461295b565b610d64565b61012f6101f93660046129fc565b611411565b61012f61020c3660046125a7565b6114db565b61012f61021f366004612a2e565b6114f2565b6101ad7f000000000000000000000000000000000000000000000000000000000000000081565b6101556102593660046125a7565b611807565b6101ad7f000000000000000000000000000000000000000000000000000000000000000081565b61012f61029336600461257b565b611c29565b61012f6102a6366004612a7d565b600360209081526000938452604080852082529284528284209052825290205481565b6102dc6102d7366004612ab2565b611d07565b005b61012f6102ec366004612a7d565b600260209081526000938452604080852082529284528284209052825290205481565b61031761250e565b6000610321611d50565b6040516321d1336160e11b8152600481018690527f00000000000000000000000000000000000000000000000000000000000000006001600160a01b0316906343a266c29060240161012060405180830381865afa158015610387573d6000803e3d6000fd5b505050506040513d601f19601f820116820180604052508101906103ab9190612adf565b3360009081526003602090815260408083208984528252808320828501518452909152812054919350906103e0908690612b75565b90506000807f00000000000000000000000000000000000000000000000000000000000000006001600160a01b0316635dd8f6aa896040518263ffffffff1660e01b815260040161043391815260200190565b602060405180830381865afa158015610450573d6000803e3d6000fd5b505050506040513d601f19601f820116820180604052508101906104749190612b88565b6001600160a01b031663a29a68146040518163ffffffff1660e01b8152600401602060405180830381865afa1580156104b1573d6000803e3d6000fd5b505050506040513d601f19601f820116820180604052508101906104d59190612b88565b6001600160a01b0316637a81b56289876020015133336001600160a01b031663fc0c546a6040518163ffffffff1660e01b8152600401602060405180830381865afa158015610528573d6000803e3d6000fd5b505050506040513d601f19601f8201168201806040525081019061054c9190612b88565b6040518563ffffffff1660e01b815260040161056b9493929190612ba5565b6040805180830381865afa158015610587573d6000803e3d6000fd5b505050506040513d601f19601f820116820180604052508101906105ab9190612bcc565b91509150818311806105bb575081155b156105d957604051635b76558960e11b815260040160405180910390fd5b8086146105f95760405163e56ea4e760e01b815260040160405180910390fd5b6000336001600160a01b031663e5a6b10f6040518163ffffffff1660e01b8152600401602060405180830381865afa158015610639573d6000803e3d6000fd5b505050506040513d601f19601f8201168201806040525081019061065d9190612bf0565b905080871461071857610713886106766012600a612ced565b604051635268657960e11b8152600481018b905260248101859052601260448201527f00000000000000000000000000000000000000000000000000000000000000006001600160a01b03169063a4d0caf2906064015b602060405180830381865afa1580156106ea573d6000803e3d6000fd5b505050506040513d601f19601f8201168201806040525081019061070e9190612bf0565b611dae565b61071a565b875b9450610728338a8884611e7b565b851115610748576040516317e53f6760e11b815260040160405180910390fd5b3360008181526003602090815260408083208d845282528083208a83015184528252808320889055928252600181528282208c83529052205461078c908690612cf9565b3360009081526001602090815260408083208d8452909152902055506107b59250612156915050565b935093915050565b6107c561250e565b60006060806107d2611d50565b6040516321d1336160e11b8152600481018b90527f00000000000000000000000000000000000000000000000000000000000000006001600160a01b0316906343a266c29060240161012060405180830381865afa158015610838573d6000803e3d6000fd5b505050506040513d601f19601f8201168201806040525081019061085c9190612adf565b80519094506000036108815760405163174b338d60e11b815260040160405180910390fd5b61010084015160481c6001908116036108ad5760405163a3bb913360e01b815260040160405180910390fd5b61010084015160009060521c60019081161480156108e3575060006108d786610100015160541c90565b6001600160a01b031614155b15610a35576000604051806101400160405280336001600160a01b031681526020018f6001600160a01b031681526020018e8036038101906109259190612d0c565b815260208082018f905288015160408201526001600160a01b038c16606082015260a080890151608083015261010089015191019060181c61ffff1681526020018a8a8080601f01602080910402602001604051908101604052809392919081815260200183838082843760009201919091525050509082525060200188905290506109b686610100015160541c90565b6001600160a01b031663d46cf171826040518263ffffffff1660e01b81526004016109e19190612d7b565b6000604051808303816000875af1158015610a00573d6000803e3d6000fd5b505050506040513d6000823e601f3d908101601f19168201604052610a289190810190612ee6565b955093509150610a769050565b8460a00151905087878080601f0160208091040260200160405190810160405280939291908181526020018383808284376000920191909152509294505050505b825160208d01359015610af25760005b8451811015610af0576000858281518110610aa357610aa3612fd7565b602002602001015160200151905080600014610ae75782811115610ada576040516336a8da9360e11b815260040160405180910390fd5b610ae48184612cf9565b92505b50600101610a86565b505b8c60200135600003610b0a575060009350610c579050565b8015610b71573360009081526001602090815260408083208f8452909152902054610b36908290612b75565b60016000336001600160a01b03166001600160a01b0316815260200190815260200160002060008e8152602001908152602001600020819055505b5080600003610b84575060009250610c57565b60408c0135600060608e01358c14610c3557604051635268657960e11b815260608f01356004820152602481018d9052604481018390526001600160a01b037f0000000000000000000000000000000000000000000000000000000000000000169063a4d0caf290606401602060405180830381865afa158015610c0c573d6000803e3d6000fd5b505050506040513d601f19601f82011682018060405250810190610c309190612bf0565b610c40565b610c4082600a612ced565b9050610c518e602001358483611dae565b95505050505b610c616001600055565b98509850985098945050505050565b6000610c7a611d50565b6040516321d1336160e11b8152600481018390526000907f00000000000000000000000000000000000000000000000000000000000000006001600160a01b0316906343a266c29060240161012060405180830381865afa158015610ce3573d6000803e3d6000fd5b505050506040513d601f19601f82011682018060405250810190610d079190612adf565b610100810151909150604d1c600190811614610d36576040516373e4f05f60e11b815260040160405180910390fd5b505033600090815260016020818152604080842085855290915282208054908390559155919050565b919050565b610d6c61250e565b6000606080610d79611d50565b6040516321d1336160e11b8152600481018990527f00000000000000000000000000000000000000000000000000000000000000006001600160a01b0316906343a266c29060240161012060405180830381865afa158015610ddf573d6000803e3d6000fd5b505050506040513d601f19601f82011682018060405250810190610e039190612adf565b610100810151909450604a1c600190811603610e325760405163a97cf58f60e01b815260040160405180910390fd5b610e66604051806080016040528060006001600160a01b031681526020016000815260200160008152602001600081525090565b6000806000336001600160a01b031663fc0c546a6040518163ffffffff1660e01b8152600401602060405180830381865afa158015610ea9573d6000803e3d6000fd5b505050506040513d601f19601f82011682018060405250810190610ecd9190612b88565b90506000336001600160a01b031663313ce5676040518163ffffffff1660e01b8152600401602060405180830381865afa158015610f0f573d6000803e3d6000fd5b505050506040513d601f19601f82011682018060405250810190610f339190612bf0565b90506000336001600160a01b031663e5a6b10f6040518163ffffffff1660e01b8152600401602060405180830381865afa158015610f75573d6000803e3d6000fd5b505050506040513d601f19601f82011682018060405250810190610f999190612bf0565b6101008b015190915060511c600190811614610fc057610fbb338f8c84611e7b565b610fcb565b610fcb8e838361215d565b94507f00000000000000000000000000000000000000000000000000000000000000006001600160a01b0316635dd8f6aa8f6040518263ffffffff1660e01b815260040161101b91815260200190565b602060405180830381865afa158015611038573d6000803e3d6000fd5b505050506040513d601f19601f8201168201806040525081019061105c9190612b88565b6001600160a01b031663c18f2d318f6040518263ffffffff1660e01b815260040161108991815260200190565b602060405180830381865afa1580156110a6573d6000803e3d6000fd5b505050506040513d601f19601f820116820180604052508101906110ca9190612bf0565b9350838d11156110ec57604051625c579160e91b815260040160405180910390fd5b8415611102576110ff8e8b8f878961233f565b98505b604080516080810182526001600160a01b03949094168452602084018a9052830191909152606082015261010088015190935060531c60019081161480156111625750600061115688610100015160541c90565b6001600160a01b031614155b1561133957604051633157d5c760e21b8152600481018c90526000907f00000000000000000000000000000000000000000000000000000000000000006001600160a01b03169063c55f571c90602401602060405180830381865afa1580156111cf573d6000803e3d6000fd5b505050506040513d601f19601f820116820180604052508101906111f39190612fed565b90506000604051806101800160405280336001600160a01b031681526020018f6001600160a01b031681526020018e81526020018a6020015181526020018d81526020018481526020018581526020018681526020016112608b6101000151600160519190911c81161490565b15158152602001600084600281111561127b5761127b61300e565b1461128e576112898b612477565b611297565b6112978b612494565b81526020018c81526020018b81525090506112b789610100015160541c90565b6001600160a01b031663a51cfd18826040518263ffffffff1660e01b81526004016112e29190613024565b6000604051808303816000875af1158015611301573d6000803e3d6000fd5b505050506040513d6000823e601f3d908101601f19168201604052611329919081019061311c565b919950909750955061133d915050565b8893505b50508251849150156113975760005b835181101561139557600084828151811061136957611369612fd7565b60200260200101516020015190508060001461138c576113898184612b75565b92505b5060010161134c565b505b3360009081526001602090815260408083208c84529091529020548111156113d2576040516317e53f6760e11b815260040160405180910390fd5b80156113fa573360009081526001602090815260408083208c84529091529020805482900390555b506114056001600055565b95509550955095915050565b600081600003611423575060006114d3565b82841115611433575060006114d3565b6040516321d1336160e11b8152600481018690526000907f00000000000000000000000000000000000000000000000000000000000000006001600160a01b0316906343a266c29060240161012060405180830381865afa15801561149c573d6000803e3d6000fd5b505050506040513d601f19601f820116820180604052508101906114c09190612adf565b90506114cf868287878761233f565b9150505b949350505050565b60006114e884848461215d565b90505b9392505050565b6040516321d1336160e11b81526004810184905260009081906001600160a01b037f000000000000000000000000000000000000000000000000000000000000000016906343a266c29060240161012060405180830381865afa15801561155d573d6000803e3d6000fd5b505050506040513d601f19601f820116820180604052508101906115819190612adf565b90506000836115fc576115f78787848a6001600160a01b031663e5a6b10f6040518163ffffffff1660e01b8152600401602060405180830381865afa1580156115ce573d6000803e3d6000fd5b505050506040513d601f19601f820116820180604052508101906115f29190612bf0565b611e7b565b6116c9565b6116c986886001600160a01b031663313ce5676040518163ffffffff1660e01b8152600401602060405180830381865afa15801561163e573d6000803e3d6000fd5b505050506040513d601f19601f820116820180604052508101906116629190612bf0565b896001600160a01b031663e5a6b10f6040518163ffffffff1660e01b8152600401602060405180830381865afa1580156116a0573d6000803e3d6000fd5b505050506040513d601f19601f820116820180604052508101906116c49190612bf0565b61215d565b9050806000036116de576000925050506114d3565b604051632eec7b5560e11b8152600481018790526000907f00000000000000000000000000000000000000000000000000000000000000006001600160a01b031690635dd8f6aa90602401602060405180830381865afa158015611746573d6000803e3d6000fd5b505050506040513d601f19601f8201168201806040525081019061176a9190612b88565b6001600160a01b031663c18f2d31886040518263ffffffff1660e01b815260040161179791815260200190565b602060405180830381865afa1580156117b4573d6000803e3d6000fd5b505050506040513d601f19601f820116820180604052508101906117d89190612bf0565b9050808611156117ee57600093505050506114d3565b6117fb878488848661233f565b98975050505050505050565b61180f61250e565b6000611819611d50565b6040516321d1336160e11b8152600481018690527f00000000000000000000000000000000000000000000000000000000000000006001600160a01b0316906343a266c29060240161012060405180830381865afa15801561187f573d6000803e3d6000fd5b505050506040513d601f19601f820116820180604052508101906118a39190612adf565b61010081015190925060491c6001908116036118d25760405163861e9dcd60e01b815260040160405180910390fd5b336000908152600260209081526040808320888452825280832085518452909152812054611901908690612b75565b90506000807f00000000000000000000000000000000000000000000000000000000000000006001600160a01b0316635dd8f6aa896040518263ffffffff1660e01b815260040161195491815260200190565b602060405180830381865afa158015611971573d6000803e3d6000fd5b505050506040513d601f19601f820116820180604052508101906119959190612b88565b6001600160a01b031663a29a68146040518163ffffffff1660e01b8152600401602060405180830381865afa1580156119d2573d6000803e3d6000fd5b505050506040513d601f19601f820116820180604052508101906119f69190612b88565b6001600160a01b031663e8db213089876020015133336001600160a01b031663fc0c546a6040518163ffffffff1660e01b8152600401602060405180830381865afa158015611a49573d6000803e3d6000fd5b505050506040513d601f19601f82011682018060405250810190611a6d9190612b88565b6040518563ffffffff1660e01b8152600401611a8c9493929190612ba5565b6040805180830381865afa158015611aa8573d6000803e3d6000fd5b505050506040513d601f19601f82011682018060405250810190611acc9190612bcc565b9150915081831180611adc575081155b15611afa57604051630236b92b60e21b815260040160405180910390fd5b808614611b1a5760405163e56ea4e760e01b815260040160405180910390fd5b6000336001600160a01b031663e5a6b10f6040518163ffffffff1660e01b8152600401602060405180830381865afa158015611b5a573d6000803e3d6000fd5b505050506040513d601f19601f82011682018060405250810190611b7e9190612bf0565b9050808714611b9c57611b97886106766012600a612ced565b611b9e565b875b3360009081526001602090815260408083208d8452909152902054909550851115611bdc576040516317e53f6760e11b815260040160405180910390fd5b50503360008181526002602090815260408083208b845282528083208851845282528083209590955591815260018083528482208a835290925292832080548590039055909155506107b5565b6000611cfe83837f00000000000000000000000000000000000000000000000000000000000000006001600160a01b03166343a266c2866040518263ffffffff1660e01b8152600401611c7e91815260200190565b61012060405180830381865afa158015611c9c573d6000803e3d6000fd5b505050506040513d601f19601f82011682018060405250810190611cc09190612adf565b866001600160a01b031663e5a6b10f6040518163ffffffff1660e01b8152600401602060405180830381865afa1580156115ce573d6000803e3d6000fd5b90505b92915050565b336000908152600160209081526040808320858452909152902054611d2d908290612b75565b336000908152600160209081526040808320958352949052929092209190915550565b600260005403611da75760405162461bcd60e51b815260206004820152601f60248201527f5265656e7472616e637947756172643a207265656e7472616e742063616c6c0060448201526064015b60405180910390fd5b6002600055565b6000808060001985870985870292508281108382030391505080600003611de857838281611dde57611dde6131fd565b04925050506114eb565b838110611e1257604051631dcf306360e21b81526004810182905260248101859052604401611d9e565b60008486880960026001871981018816978890046003810283188082028403028082028403028082028403028082028403028082028403029081029092039091026000889003889004909101858311909403939093029303949094049190911702949350505050565b6001600160a01b0384166000908152600160209081526040808320868452909152812054808203611eb05760009150506114d3565b604051632eec7b5560e11b81526004810186905260009081906001600160a01b037f00000000000000000000000000000000000000000000000000000000000000001690635dd8f6aa90602401602060405180830381865afa158015611f1a573d6000803e3d6000fd5b505050506040513d601f19601f82011682018060405250810190611f3e9190612b88565b6001600160a01b031663a29a68146040518163ffffffff1660e01b8152600401602060405180830381865afa158015611f7b573d6000803e3d6000fd5b505050506040513d601f19601f82011682018060405250810190611f9f9190612b88565b6001600160a01b031663e8db21308888602001518b8c6001600160a01b031663fc0c546a6040518163ffffffff1660e01b8152600401602060405180830381865afa158015611ff2573d6000803e3d6000fd5b505050506040513d601f19601f820116820180604052508101906120169190612b88565b6040518563ffffffff1660e01b81526004016120359493929190612ba5565b6040805180830381865afa158015612051573d6000803e3d6000fd5b505050506040513d601f19601f820116820180604052508101906120759190612bcc565b6001600160a01b038a1660009081526002602090815260408083208c845282528083208b518452909152812054929450909250906120b39084612cf9565b905080158015906120c45750858214155b1561213757612134816120d96012600a612ced565b604051635268657960e11b815260048101869052602481018a9052601260448201527f00000000000000000000000000000000000000000000000000000000000000006001600160a01b03169063a4d0caf2906064016106cd565b90505b808411612145576000612149565b8084035b9998505050505050505050565b6001600055565b60405163d175415360e01b81526004810184905260009081906001600160a01b037f0000000000000000000000000000000000000000000000000000000000000000169063d175415390602401600060405180830381865afa1580156121c7573d6000803e3d6000fd5b505050506040513d6000823e601f3d908101601f191682016040526121ef9190810190613213565b90506000805b825181101561229a5782818151811061221057612210612fd7565b60200260200101516001600160a01b031663a32e1e96886040518263ffffffff1660e01b815260040161224591815260200190565b602060405180830381865afa158015612262573d6000803e3d6000fd5b505050506040513d601f19601f820116820180604052508101906122869190612bf0565b6122909083612b75565b91506001016121f5565b5060006001851461231557604051635268657960e11b8152600160048201526024810186905260126044820152612310908390670de0b6b3a7640000906001600160a01b037f0000000000000000000000000000000000000000000000000000000000000000169063a4d0caf2906064016106cd565b612317565b815b9050856012146123325761232d816012886124b1565b612334565b805b979650505050505050565b600082840361234f57508061246e565b600080604051633157d5c760e21b8152600481018990527f00000000000000000000000000000000000000000000000000000000000000006001600160a01b03169063c55f571c90602401602060405180830381865afa1580156123b7573d6000803e3d6000fd5b505050506040513d601f19601f820116820180604052508101906123db9190612fed565b60028111156123ec576123ec61300e565b146123ff576123fa86612477565b612408565b61240886612494565b90508060000361241c57600091505061246e565b6000612429848787611dae565b9050612710820361243d57915061246e9050565b612469816124578861245186612710612cf9565b89611dae565b6124619085612b75565b612710611dae565b925050505b95945050505050565b60006028826101000151901c61ffff16612710611d019190612cf9565b60006038826101000151901c61ffff16612710611d019190612cf9565b60008282036124c15750826114eb565b828211156124ef576124d38383612cf9565b6124de90600a612ced565b6124e890856132a2565b90506114eb565b6124f98284612cf9565b61250490600a612ced565b6124e890856132b9565b6040518061012001604052806000815260200160008152602001600081526020016000815260200160008152602001600081526020016000815260200160006001600160a01b03168152602001600081525090565b6001600160a01b038116811461257857600080fd5b50565b6000806040838503121561258e57600080fd5b823561259981612563565b946020939093013593505050565b6000806000606084860312156125bc57600080fd5b505081359360208301359350604090920135919050565b805182526020808201519083015260408082015190830152606080820151908301526080808201519083015260a0808201519083015260c0808201519083015260e0808201516001600160a01b03169083015261010090810151910152565b610140810161264182856125d3565b826101208301529392505050565b60008083601f84011261266157600080fd5b50813567ffffffffffffffff81111561267957600080fd5b60208301915083602082850101111561269157600080fd5b9250929050565b634e487b7160e01b600052604160045260246000fd5b604051610120810167ffffffffffffffff811182821017156126d2576126d2612698565b60405290565b6040805190810167ffffffffffffffff811182821017156126d2576126d2612698565b604051601f8201601f1916810167ffffffffffffffff8111828210171561272457612724612698565b604052919050565b600067ffffffffffffffff82111561274657612746612698565b50601f01601f191660200190565b60006127676127628461272c565b6126fb565b905082815283838301111561277b57600080fd5b828260208301376000602084830101529392505050565b600082601f8301126127a357600080fd5b611cfe83833560208501612754565b600080600080600080600080888a036101408112156127d057600080fd5b89356127db81612563565b98506080601f19820112156127ef57600080fd5b5060208901965060a0890135955060c0890135945060e089013561281281612563565b935061010089013567ffffffffffffffff8082111561283057600080fd5b61283c8c838d0161264f565b90955093506101208b013591508082111561285657600080fd5b506128638b828c01612792565b9150509295985092959890939650565b60005b8381101561288e578181015183820152602001612876565b50506000910152565b600081518084526128af816020860160208601612873565b601f01601f19169290920160200192915050565b60006101808083016128d584896125d3565b61012084018790526101408401919091528451908190526101a083019060209081870160005b8281101561292b57815180516001600160a01b0316865284015184860152604090940193908301906001016128fb565b505050508281036101608401526123348185612897565b60006020828403121561295457600080fd5b5035919050565b600080600080600060a0868803121561297357600080fd5b853561297e81612563565b94506020860135935060408601359250606086013567ffffffffffffffff808211156129a957600080fd5b818801915088601f8301126129bd57600080fd5b6129cc89833560208501612754565b935060808801359150808211156129e257600080fd5b506129ef88828901612792565b9150509295509295909350565b60008060008060808587031215612a1257600080fd5b5050823594602084013594506040840135936060013592509050565b60008060008060808587031215612a4457600080fd5b8435612a4f81612563565b9350602085013592506040850135915060608501358015158114612a7257600080fd5b939692955090935050565b600080600060608486031215612a9257600080fd5b8335612a9d81612563565b95602085013595506040909401359392505050565b60008060408385031215612ac557600080fd5b50508035926020909101359150565b8051610d5f81612563565b60006101208284031215612af257600080fd5b612afa6126ae565b825181526020830151602082015260408301516040820152606083015160608201526080830151608082015260a083015160a082015260c083015160c0820152612b4660e08401612ad4565b60e0820152610100928301519281019290925250919050565b634e487b7160e01b600052601160045260246000fd5b80820180821115611d0157611d01612b5f565b600060208284031215612b9a57600080fd5b81516114eb81612563565b93845260208401929092526001600160a01b03908116604084015216606082015260800190565b60008060408385031215612bdf57600080fd5b505080516020909101519092909150565b600060208284031215612c0257600080fd5b5051919050565b600181815b80851115612c44578160001904821115612c2a57612c2a612b5f565b80851615612c3757918102915b93841c9390800290612c0e565b509250929050565b600082612c5b57506001611d01565b81612c6857506000611d01565b8160018114612c7e5760028114612c8857612ca4565b6001915050611d01565b60ff841115612c9957612c99612b5f565b50506001821b611d01565b5060208310610133831016604e8410600b8410161715612cc7575081810a611d01565b612cd18383612c09565b8060001904821115612ce557612ce5612b5f565b029392505050565b6000611cfe8383612c4c565b81810381811115611d0157611d01612b5f565b600060808284031215612d1e57600080fd5b6040516080810181811067ffffffffffffffff82111715612d4157612d41612698565b6040528235612d4f81612563565b808252506020830135602082015260408301356040820152606083013560608201528091505092915050565b60208152612d956020820183516001600160a01b03169052565b60006020830151612db160408401826001600160a01b03169052565b506040830151612deb606084018280516001600160a01b031682526020808201519083015260408082015190830152606090810151910152565b50606083015160e08301526080830151610100818185015260a08501519150610120612e21818601846001600160a01b03169052565b60c086015161014086015260e08601516101608601528186015192506101a0915081610180860152612e576101c0860184612897565b90860151858203601f190183870152909250612e738382612897565b9695505050505050565b600082601f830112612e8e57600080fd5b8151612e9c6127628261272c565b818152846020838601011115612eb157600080fd5b6114d3826020830160208701612873565b600067ffffffffffffffff821115612edc57612edc612698565b5060051b60200190565b600080600060608486031215612efb57600080fd5b8351925060208085015167ffffffffffffffff80821115612f1b57600080fd5b612f2788838901612e7d565b9450604091508187015181811115612f3e57600080fd5b87019050601f81018813612f5157600080fd5b8051612f5f61276282612ec2565b81815260069190911b8201840190848101908a831115612f7e57600080fd5b928501925b82841015612fc75784848c031215612f9b5760008081fd5b612fa36126d8565b8451612fae81612563565b8152848701518782015282529284019290850190612f83565b8096505050505050509250925092565b634e487b7160e01b600052603260045260246000fd5b600060208284031215612fff57600080fd5b8151600381106114eb57600080fd5b634e487b7160e01b600052602160045260246000fd5b6020815261303e6020820183516001600160a01b03169052565b6000602083015161305a60408401826001600160a01b03169052565b506040830151606083015260608301516080830152608083015160a083015260a083015160c083015260c083015160e083015260e08301516101006130c88185018380516001600160a01b031682526020808201519083015260408082015190830152606090810151910152565b8401511515610180840152506101208301516101a08301526101408301516101e06101c084018190526130ff610200850183612897565b9150610160850151601f198584030182860152612e738382612897565b60008060006060848603121561313157600080fd5b8351925060208085015167ffffffffffffffff8082111561315157600080fd5b61315d88838901612e7d565b945060409150818701518181111561317457600080fd5b87019050601f8101881361318757600080fd5b805161319561276282612ec2565b81815260069190911b8201840190848101908a8311156131b457600080fd5b928501925b82841015612fc75784848c0312156131d15760008081fd5b6131d96126d8565b84516131e481612563565b81528487015187820152825292840192908501906131b9565b634e487b7160e01b600052601260045260246000fd5b6000602080838503121561322657600080fd5b825167ffffffffffffffff81111561323d57600080fd5b8301601f8101851361324e57600080fd5b805161325c61276282612ec2565b81815260059190911b8201830190838101908783111561327b57600080fd5b928401925b8284101561233457835161329381612563565b82529284019290840190613280565b8082028115828204841417611d0157611d01612b5f565b6000826132d657634e487b7160e01b600052601260045260246000fd5b50049056fea26469706673582212202a8aa67349b1498ef918d5ab9855f7702f2dd95ca96978eaa69d4ef237aaa3a564736f6c63430008120033",
    "linkReferences": {}
  },
  "methodIdentifiers": {
    "balanceOf(address,uint256)": "00fdd58e",
    "currentOverflowOf(address,uint256)": "d49031c0",
    "currentReclaimableOverflowOf(address,uint256,uint256,bool)": "c294b2f4",
    "currentReclaimableOverflowOf(uint256,uint256,uint256,uint256)": "a57c7f59",
    "currentTotalOverflowOf(uint256,uint256,uint256)": "b753d7e9",
    "directory()": "c41c2f24",
    "fundingCycleStore()": "557e7155",
    "prices()": "d3419bf3",
    "recordAddedBalanceFor(uint256,uint256)": "e7c8e3e3",
    "recordDistributionFor(uint256,uint256,uint256)": "c6644597",
    "recordMigration(uint256)": "6bb6a5ad",
    "recordPaymentFrom(address,(address,uint256,uint256,uint256),uint256,uint256,address,string,bytes)": "2fa1b391",
    "recordRedemptionFor(address,uint256,uint256,string,bytes)": "a2df1f95",
    "recordUsedAllowanceOf(uint256,uint256,uint256)": "25386715",
    "usedDistributionLimitOf(address,uint256,uint256)": "e8ba563a",
    "usedOverflowAllowanceOf(address,uint256,uint256)": "d4c3a8d2"
  },
  "id": 17
}